:020000040800F2
:100000000050002049660008DD4E0008DF4E000861
:10001000E14E0008E34E0008E54E00080000000035
:10002000000000000000000000000000E74E000893
:10003000E94E000800000000EB4E0008ED4E0008FD
:10004000916600089166000891660008854E0008D8
:1000500091660008916600089166000891660008A4
:100060009166000891660008916600089166000894
:100070009166000891660008916600089166000884
:100080009166000891660008916600089166000874
:100090009166000891660008916600089166000864
:1000A00091660008E549000891660008916600081D
:1000B00091660008F54900089166000891660008FD
:1000C0009166000891660008916600089166000834
:1000D0009166000891660008916600089166000824
:1000E000614B00089166000891660008000000005E
:1000F0000000000000000000000000000000000000
:0C01000000000000000000005FF808F1A3
:100110000348044B834202D0034B03B11847704796
:10012000DC010020DC010020000000000548064939
:100130000B1AD90F01EBA301491002D0034B03B1F5
:1001400018477047DC010020DC010020000000009F
:1001500010B5064C237843B9FFF7DAFF044B13B10F
:100160000448AFF300800123237010BDDC010020A0
:10017000000000009466000808B5044B1BB1044958
:100180000448AFF30080BDE80840CFE7000000005E
:10019000E00100209466000870B50D4E0D4D761BF1
:1001A000B61006D0002455F8043B01349847A64207
:1001B000F9D1094E094D06F06DFA761BB61006D03E
:1001C000002455F8043B01349847A642F9D170BD8C
:1001D000C46A0008C46A0008C86A0008C46A000843
:1001E000830730B548D0541E002A3FD00346CAB218
:1001F00001E0013C3AD303F8012B9D07F9D1032C10
:100200002DD9CDB245EA05250F2C45EA054536D94D
:10021000A4F1100222F00F0C03F1200EE6444FEA85
:10022000121C03F1100242E9045542E90255103252
:100230007245F8D10CF1010214F00C0F03EB02121D
:1002400004F00F0C13D0ACF1040323F003030433C8
:10025000134442F8045B9342FBD10CF003042CB12D
:10026000CAB21C4403F8012B9C42FBD130BD64464A
:100270001346002CF4D1F9E703461446BFE71A46AB
:10028000A446E0E7002B2DE9F0479246B4BF2D22AB
:10029000002288B0149EB8BF03F100491C46DDE976
:1002A0001217B8BF4C46662E109D0A7019D0462E04
:1002B00017D026F02003452B5246029735D0022155
:1002C000009107A9049106A923460195039100F026
:1002D000FDFD672E814634D1119BDB0733D4079B8C
:1002E0001BE00321009107A9049106A92346524669
:1002F000CDE90157039100F0E9FD814699F80030FE
:100300004619302B2CD03D683544504621460022FA
:10031000002304F0F7FAC0B12B464846159AA3EB28
:100320000903136008B0BDE8F0870221009107A916
:100330000491013506A923460195039100F0C6FDFD
:100340008146472EC8D04D44DFE7079B9D42E4D944
:1003500030215A1C07921970079BAB42F9D3DCE796
:10036000504621460022002304F0CCFA0028CAD1CE
:10037000C5F101053D60C7E70029B4BF2D232B233C
:1003800070B5B8BF4942092982B0027000F1020E6F
:10039000437030DD0DF1070423461D4E0D469C468B
:1003A00086FB0123CA17C2EBA30202EB8203A1EB77
:1003B000430101F13003632D0CF8013C11460CF1AF
:1003C000FF33EBDC3031ACF10202C9B2944203F8E6
:1003D000011C1BD9724601E013F8011BA34202F86D
:1003E000011BF9D10DF10903A3EB0C0CF444ACEBA8
:1003F000000002B070BD3023F44619440CF8023BF3
:100400008EF80110ACEB000002B070BDF446F9E7C5
:10041000676666662DE9F04F91B00C46DDF868B06E
:1004200016461F46054601F0D7FC036818460A9396
:1004300000F086FC00230E9323680B900993DBF8F1
:10044000003094F81890073323F00703D3F804A082
:10045000D3F80080514640460833CBF800302AF0EC
:10046000004BC4E912014FF0FF325946994B04F09A
:100470007BFA48B9404659464FF0FF32954B04F09D
:1004800055FA002800F09E804246404653465146A9
:1004900004F06AFA002840F0418263685A1C31D0A7
:1004A000B9F1670F70D0B9F1470F6DD0099900937A
:1004B00041F4806121600191002106910EA905910E
:1004C0000DA903910DF1330142460291534628468E
:1004D000CDF81090FFF7D6FEB9F1650F80460D9963
:1004E00039D84A46013904F150000D91FFF744FF15
:1004F0000E9A82461318012A236140F38981013341
:10050000236139E0062363600999009341F4806117
:1005100021600191002106910EA905910DA9039179
:100520000DF13301424653462846CDF81090029112
:10053000FFF7A8FE09F0DF03472B804640F0078154
:100540000D99C81C80F2FC80A9F102095FFA89F9B3
:10055000B9F1650FC5D9B9F1660F00F0FA800E9BAD
:100560008B4200F3018123682161DB0701D54B1C1D
:1005700023614FF0000AA1659DF83330002B3AD07B
:100580002D2384F8433036E0002B00F025810999B3
:10059000009341F4806121600191002106910EA930
:1005A00005910DA903910DF1330142460291534685
:1005B0002846CDF81090FFF765FE0D998046C81CBF
:1005C000C2DBBDE0404651460022002304F0A4F9FE
:1005D00010B12D2384F84330099B3F4823F00403D6
:1005E0002360032323613D4B4FF0000AB9F1470F0D
:1005F00094BF9846804633462146284600970FAA66
:1006000000F0B2F9013025D0236858052DD44246B8
:10061000314628462369B84701301BD0236813F0C0
:10062000020FE0680F9B1AD0C21A002A17DD4FF0A4
:10063000000804F1190904E0E0680F9BC21A424562
:100640000DDD01234A4631462846B847013008F1FE
:100650000108F1D14FF0FF3011B0BDE8F08F9842A2
:10066000B8BF184611B0BDE8F08FB9F1650F39D9A0
:10067000D4E912010022002304F044F900287BD0C1
:10068000012331462846164AB8470130E2D0DDE959
:100690000D239A4202DB2368D907C0D5DDE90A237E
:1006A00031462846B8470130D4D00E9B012BB5DD2A
:1006B0004FF0000804F11A0903E00E9B013B43458B
:1006C000ACDD01234A46314628469844B8470130FC
:1006D000F3D1BFE7FFFFEF7F84690008806900085E
:1006E000906900080E9A012A79DD012342463146BD
:1006F0002846B8470130ADD0DDE90A233146284607
:10070000B8470130A6D0D4E912010022002304F03A
:10071000F9F8002877D00E9B012B6ADD4FF0000816
:1007200004F11A0903E00E9B013B434561DD0123FF
:100730004A46314628469844B8470130F3D189E704
:10074000636899423FF700AF4FF0670907E70D99DB
:10075000FEE6002961DD63682161002B00F08E80D8
:1007600001330B44236104E70029CCBF0122C1F10E
:10077000020213442361FCE60D9B002B55DD0E9B0A
:10078000D4F858A05345A8BF5346002B9B4608DD1C
:10079000424631462846B84701303FF45BAFD4F8B3
:1007A00058A02BEAEB731A46AAEB0303002B72DD69
:1007B0004FF00009924604F11A0B04E0A36DA3EB7D
:1007C0000A024A4566DD01235A46314628469944C5
:1007D000B8470130F2D13DE70123636094E6DB07BF
:1007E00083D44246012331462846B84701303FF4BE
:1007F00031AF53463146284604F15002B847013024
:100800007FF40CAF26E70E9B08F10102013BEAE7FB
:100810002268D2077FF5B0AE71E66368002B32D153
:100820002268D2072FD40123A4E7012331462846AA
:100830004A4AB84701303FF40DAFDDE90D231343B9
:1008400023D0DDE90A2331462846B84701303FF47A
:1008500001AF0D9B002B77DA4FF0000904F11A0A63
:1008600003E00D9B5B424B456EDD01235246314652
:1008700028469944B8470130F3D1EBE62268D00707
:100880007FF577AE6CE7023374E72368DA077FF50C
:10089000C6AED6E79A46DDE90D218A4202DB23681F
:1008A000D80709D5DDE90A2331462846B847013083
:1008B0003FF4D0AEDDE90D21A1EB0A098A1A91457A
:1008C000A8BF9146B9F1000F0BDD4B4631462846D3
:1008D00008EB0A02B84701303FF4BCAEDDE90D3247
:1008E000D21A29EAE979A2EB0903002B7FF796AE29
:1008F0004FF0000804F11A0A07E0DDE90D239B1A06
:10090000A3EB090343457FF789AE012352463146E5
:1009100028469844B8470130EFD19BE6BAF1000F62
:10092000BCBF2D2384F84330099B0D4A23F00403F8
:100930002360032323610B4B4FF0000AB9F1470FEB
:1009400094BF9046984656E64246314628460E9B4E
:10095000B84701307FF462AE7CE600BF90690008C2
:10096000886900088C6900082DE9F04791461E4609
:100970000A698B680C469A42B8BF1A46C9F800202B
:1009800091F843300546DDF8208013B10132C9F8F3
:100990000020226891065DD5D9F800300233C9F8ED
:1009A0000030226812F0060F11461ED1E168CB1A02
:1009B000002BD8BF114618DD002704F1190A06E004
:1009C000D9F80030E268A2EB030CBC450CDD012332
:1009D000524631462846C047013007F10107EFD1A2
:1009E0004FF0FF30BDE8F087216894F84330003BBA
:1009F00018BF01238A060AD53021E21882F8431075
:100A000094F845105A1C2244023382F843103146B0
:100A1000284604F14302C0470130E1D0236803F0C7
:100A20000603042B1DD0A3682269934225DD00270D
:100A30009B1A1F4404F11A09002401E0BC421CDA8D
:100A400001234A4631462846C047013004F10104DB
:100A5000F4D1C5E712F0060F12D0003B18BF0123F6
:100A6000D5E7D9F80030E1682269C91AA36821EAFC
:100A7000E1779342DCDC0029DCDC0020BDE8F08774
:100A8000E168D9F80030CB1A002BD8BF114693DCAF
:100A9000ABE700BF2DE9F04317460A7E85B00C4650
:100AA000064698460C9D01F1430C002A33D0A2F172
:100AB0005803D9B2202967D8202B65D8DFE813F076
:100AC000DD0064006400640064006400640064008D
:100AD000640064006400A3006E00640064006400AD
:100AE00064006E00640064006400640021007F0004
:100AF000BF0064006400AE0064007F006400640016
:100B0000E40023681A0640F102812B686269191D0E
:100B100029601B681A600023E14623613B46214699
:100B20003046CDF8008003AAFFF71EFF013020D029
:100B30004A46394630462369C047013019D02368F8
:100B4000E0689B07039919D5431A002B16DD002591
:100B500004F1190904E0E0680399431AAB420DDD82
:100B600001234A4639463046C047013005F10105A8
:100B7000F1D14FF0FF3005B0BDE8F0838842B8BF37
:100B8000084605B0BDE8F083012384F8422004F153
:100B900042092361002384F84330BFE72368190624
:100BA00002D45A0600F1BF8029680A68043129601E
:100BB0001146002A6ADB0A25DFF87CE110E0236891
:100BC000180640F19A802B68191D296019686F2A50
:100BD0000CBF08250A25DFF860E1002384F84330C4
:100BE0006268002AA2607DDB236823F0040323608F
:100BF000002959D1002A77D1E146082D63D0ACEB0A
:100C0000090323618AE701222B6804F1420919686C
:100C100004332B6084F842102261BBE72B6800216B
:100C20001A1D2A60D3F800906268484601F0ECF87B
:100C300000287FD0A0EB090060602061AAE723684C
:100C400043F0200323607822DFF8F0E084F84520A9
:100C50002A68111D2960190642D45D0640D5118805
:100C6000D80744BF43F020032360002943D1236801
:100C7000102523F020032360AFE75823DFF8B8E006
:100C800084F845302368E3E72368DCE72D2284F805
:100C9000432062684942002AA26002DB23F0040379
:100CA00023600A25DFF890E0E146B1FBF5F30A4640
:100CB00005FB131019461EF80030AA4209F8013D41
:100CC000F3D2082D9BD12368D90798D56268236990
:100CD0009A4294DC302309F1FF3989F800308EE71D
:100CE0001168BDE70029DFD19EF8003004F1420908
:100CF00084F8423081E710256FE713F0400F2B682E
:100D000003F1040129600CBF196819885FE713F02B
:100D1000400F2B68626903F1040129601B6814BF4E
:100D20001A801A60F7E62A68B2F9001004322A60C5
:100D30000A463EE7606880E794690008A8690008F1
:100D400020F0030110F00300C0F1000051F8043B53
:100D500000F1040C4FEACC0C6FF000021CBF22FA29
:100D60000CF213434FF0010C4CEA0C2C4CEA0C4CE7
:100D7000A3EB0C0222EA030212EACC1204BF51F8E0
:100D8000043B0430F4D0C2F1000102EA0102B2FADD
:100D900082F2C2F11F0200EBD20070470000000097
:100DA0002DE9F04F03690C6985B0A342C0F2898038
:100DB000013C01F11405A30000F11408019355F85A
:100DC000243058F8242001338A469A4208EB8401E3
:100DD0008146B2FBF3F605EB840702913AD300217A
:100DE000AE4640460A46A34603955EF8045B046897
:100DF000ABB206FB03132D0C190C06FB05119BB2BD
:100E0000D21A1FFA84FC94448AB2C2EB144202EB59
:100E10002C421FFA8CFC4CEA0243774540F8043B15
:100E20004FEA11414FEA2242DFD2019B5C4658F85B
:100E30000330039D73B9029B043B984504D307E03C
:100E4000984504F1FF3403D253F80429002AF7D05F
:100E5000C9F810405146484601F094FB00282CDBAD
:100E600040460023013655F8041BD0F800C08AB272
:100E70009A1A1FFA8CFE0B0C7244C3EB1C4303EB53
:100E8000224392B242EA0342AF4240F8042B4FEAB7
:100E90002343E8D258F8242008EB84036AB9043BC2
:100EA000984504D307E0984504F1FF3403D253F882
:100EB0000429002AF7D0C9F81040304605B0BDE833
:100EC000F08F002005B0BDE8F08F00BF2DE9F04F96
:100ED00090469946466A99B00546CDE90289259C17
:100EE000002E00F00D83316849B1012372689340F0
:100EF0004A608B6001F086F800226B6A1A60B9F1D3
:100F0000000AB4BF012300232360754BBCBF2AF045
:100F1000004ACDF80CA033EA0A0300F0AA80DDE90C
:100F200002341846214600220023CDE9080103F0CF
:100F3000E9FC074670B10123249A1360269B002B1D
:100F400000F0F78267481860431E0493049819B0B4
:100F5000BDE8F08F16AB019317AB00932846DDE98F
:100F6000082301F05FFC5FEA1A56044640F09780C0
:100F7000DDE916763E4406F23240202840F3C8836D
:100F8000C0F140000AFA00FA06F2124028FA00F016
:100F90004AEA000003F0D4F90123013E1093A1F1C5
:100FA000F8710022504B03F08DF847A3D3E90023DA
:100FB00003F040FA46A3D3E9002303F085F8804606
:100FC0003046894603F0CCF943A3D3E9002303F06C
:100FD00031FA02460B464046494603F075F8804612
:100FE000894603F0D7FC0022834600234046494649
:100FF00003F092FC002840F08F82BBF1160F00F244
:101000007282DDE90801394B03EBCB03D3E90023FE
:1010100003F082FC00286FD00023BE1B0D93731ECB
:101020000BF1FF3B059300F1658200230A93BBF1AE
:10103000000F68DA0A9BCDF818B0A3EB0B030A93F4
:10104000CBF100030C93229B4FF0000B092B63D8CC
:10105000052B40F35B830026043B2293229B023B3B
:10106000032B00F27E86DFE813F074047104680439
:10107000490442F20F73249ACAF3130A13605AEA1E
:1010800008031AD1269B002B00F06186184B0493AD
:101090000833269A0498136019B0BDE8F08FDDE993
:1010A0000812C2F31303084643F07F511097A6F2CB
:1010B000FF36169F41F4401173E7269B002B40F04A
:1010C00000840C4B049341E761436F63A787D23FD1
:1010D000B3C8608B288AC63FFB799F501344D33F27
:1010E0000000F07F916900080000F83FC866000822
:1010F000BC690008C8690008BE1B731E059300F197
:10110000C6840D900A90059B5B44CDE9053B002306
:101110000C93229B092B9BD9002322934FF0FF3382
:101120000126079300230B96239300216B6A5960D5
:10113000079B1193284600F025FF0490002800F03B
:1011400019866B6A049A1A60079B0E2B00F21481B1
:10115000002E00F011810699002940F36C84AF4BFA
:1011600001F00F0203EBC2030A46D3E900674FEA1E
:101170002118D10540F12584DDE90801A84B4FF085
:10118000030AD3E9082303F07FFACDE90E0108F042
:101190000F08B8F1000F13D0DFF8849218F0010F98
:1011A00009D0D9E900233046394603F043F9064611
:1011B0000F460AF1010A5FEA680809F10809EDD152
:1011C000DDE90E0132463B4603F05EFA8046894671
:1011D0000D9B43B1002240464946924B03F09CFBD5
:1011E000002840F04585504603F0BAF842464B4689
:1011F00003F020F98C4B002202F066FFA1F150733E
:10120000CDE90E010F93079B002B00F09780069B02
:101210001393079B12930B9B002B00F0BD84129A33
:101220007E4B002003EBC20353E902237F4903F006
:101230002BFADDE90E2302F045FFCDE90E01494608
:10124000404603F0A7FB074603F08AF802460B4628
:101250004046494602F036FFDDE90E23049E303752
:1012600006F8017B8046894603F056FB002840F0D3
:101270004385CDF854B01495DDE90EAB0027129DDF
:101280000E942AE00137AF4280F23E85504659461F
:101290000022674B03F0CEF80022654B82468B4656
:1012A0004046494603F0C6F88946804603F072FB83
:1012B000044603F055F802460B464046494602F004
:1012C00001FF303452465B4606F8014B80468946A2
:1012D00003F022FB002840F00D8542464B460020DB
:1012E000504902F0EFFE52465B4603F015FB002822
:1012F000C8D0DDE913350E9C049A069302E0B24291
:1013000000F0DD84B24616F8013D392BF7D00133E9
:10131000DBB23370069B01330693DAE1504603F0EB
:101320001FF842464B4603F085F83F4B002202F07F
:10133000CBFEA1F15073CDE90E010F934046494613
:1013400000223C4B02F0BEFEDDE90E894B464246D0
:1013500006460F4603F0FEFA8146002840F0BF849F
:10136000DDE90E01024601F100433046394603F043
:10137000D3FA002840F05683179B002BC0F28C80D4
:10138000069A0E2A00F38880244B03EBC203D3E9AC
:1013900000AB239B002B1BDA079B002B18DC40F0D3
:1013A0003F830022234B5046594603F043F8024640
:1013B0000B46DDE9080103F0B9FADDF81C904E4652
:1013C000002800F0DE82239BDDF81080DF43E0E29E
:1013D0005246DDE908785B463846414603F054F949
:1013E00003F0D8FA8146029002F0BAFF52465B46FB
:1013F00003F020F8049E0B4602464146384602F0B0
:1014000061FE09F1300306F8013B079B012B00F058
:101410006E8301279946029405952AE0C866000864
:10142000B86700080000F03F00001C400000E03FEB
:10143000000024400000144052465B4620462946E6
:1014400003F022F903F0A6FA804602F089FF524623
:101450005B4602F0EFFF01370B4602462946204665
:1014600002F030FE08F130034F4506F8013B00F072
:101470003A830022B44B02F0DDFF00220023044631
:101480000D4603F03FFA0028D6D0029C059D069B2E
:10149000B246013306931CE10B9A002A4FD0229AE0
:1014A000012A40F3A682079B03F1FF380C9B4345BA
:1014B00080F284820C9BCDF83080A8EB03034FF0C0
:1014C00000089B44079B002BC0F24983059A1A44ED
:1014D00005920A9A17461A440A920121284600F0FA
:1014E000A9FE06462FE00123BE1B0D93731E059334
:1014F0007FF59BADC6F101030A930023059396E5A2
:10150000102000F071FC6862002800F02484C0E91B
:1015100001660660C660F2E4584602F021FF4246CA
:101520004B4603F0EFF900287FF467AD0BF1FF3B6A
:1015300063E5864B0493049819B0BDE8F08FDDF89D
:101540003080DDE90A76002F0CDD059900290B4675
:1015500008DDB942A8BF3B460A9AFF1AD21ACB1A35
:101560000A9205930C9BE3B10B9B002B00F05C826D
:10157000B8F1000F10DD31464246284600F01EFF4C
:10158000064622463146284600F06AFE03462146BA
:1015900028461C4600F036FD0C9BB3EB080240F0D9
:1015A000D8820121284600F045FEBBF1000F81469C
:1015B00000F3B380229B012B40F388814FF0000A97
:1015C0000120BBF1000F40F0B480059A104410F0E8
:1015D0001F0000F09280C0F12003042B40F3D18360
:1015E0000A9BC0F11C00034402440A93074405927D
:1015F0000A9B002B05DD21461A46284600F04EFFC7
:101600000446059B002B05DD49461A46284600F096
:1016100045FF81460D9B002B40F03881079B002B36
:1016200040F31E810B9B002B40F09F80069B0133F3
:1016300006930127DDF81080DDF81CA007E02146A5
:1016400000230A22284600F001FD044601374946DE
:101650002046FFF7A5FB574500F1300308F8013B92
:10166000EDDB079A0027002ACCBF93464FF0010B11
:10167000049A9344214601222846029300F00EFF6B
:101680004946044600F07EFF002840F3A7811BF87E
:10169000013C049A0BF1FF3B04E05A4500F0B9818C
:1016A0001BF8013D392B0BF1010AF6D001338BF801
:1016B00000304946284600F0A5FC56B12FB1B7428C
:1016C00003D03946284600F09DFC3146284600F0FC
:1016D00099FC2146284600F095FC0023069A8AF8DA
:1016E0000030249B1A60269B002B3FF42FAC0498FB
:1016F000C3F800A019B0BDE8F08F1C200A9B074476
:1017000003440A93059B0344059371E70126A5E46E
:10171000C0F1200008FA00F03CE401465A46284691
:1017200000F04CFE229B8146012B40F3B2814FF02A
:10173000000AD9F8103009EB8303186900F02EFD78
:10174000C0F1200041E700BF00002440906900087C
:10175000314600230A22284600F078FC119B0646F9
:10176000002B40F3E582CDE90683002F00F31F81B3
:10177000BAF1000F40F0D681B046029B079903F002
:101780000102049B08921F46013B1944229B0791CA
:1017900013430A9349462046FFF702FB314683462E
:1017A000204600F0EFFE424649468246284600F0B9
:1017B00009FFC26801460BF13003002A43D10290B1
:1017C0002046059300F0DEFE02460299284602926A
:1017D00000F018FC029A059B1AB90A99002900F03A
:1017E0009982BAF1000FC0F2608122994AEA010A97
:1017F000089951EA0A0100F05881002A00F3B381E8
:10180000079A07F1010A9742D3463B7000F0B18175
:10181000214600230A22284600F018FC46450446CB
:1018200031464FF000034FF00A02284612D000F074
:101830000DFC4146064600230A22284600F006FC1D
:1018400057468046A6E72846029300F0DBFB0122BC
:10185000029BC6E700F0FAFB57460646804699E72A
:10186000229B022B7CDC0B9B002B7FF47EAF069B24
:101870004946013320460693FFF792FADDF810B08F
:1018800000F1300300270BF8013BF3E64946204600
:1018900000F078FE0028BFF6C1AE214600230A22E0
:1018A000284600F0D3FB069B044603F1FF380B9B50
:1018B000002B7FF44DAF119B002B40F33282079336
:1018C000B7E6B14B04930333FFF7E3BBDDE9021244
:1018D00000297FF473AEC2F31303002B7FF46EAEC6
:1018E000AA4B1340002B00F0FE810A9B4FF0010A27
:1018F00001330A93059B0133059361E601230B93A2
:10190000239B069A134411930133012B1846B8BF49
:101910000120079300216F6A172879607FF70AACCE
:10192000012204235B0003F1140C8445114602F1EB
:101930000102F7D97960FFF7FDBB01230B93239BCD
:10194000002B46DD184611930793E3E700230B9322
:10195000D6E700230B93F2E7119BCDF8188007938D
:10196000079B002B7FF42FAD49460522284600F047
:101970006DFB81462046494600F004FE00287FF7B3
:1019800022AD31230498069F804600F8013B0137C1
:1019900004904946284600F035FB7B1CDDF810A07A
:1019A0000693CDF81080002E7FF48FAE91E631467D
:1019B0003A46284600F072FD0646D9E6A3EB080831
:1019C00080E5DDE908234FF0020ACDE90E23FFF799
:1019D000E0BB012323930793FFF7A7BB03D1029B2F
:1019E000D8073FF554AEDA461BF8013D302BFAD04C
:1019F0005FE6109A002A00F0C28003F23343059A92
:101A0000DDF830801A4405920A9A17461A440A9261
:101A100063E5069B049A013306933123137048E66D
:101A20004FF000094E46CEE4214628460C9A00F0BD
:101A3000C5FC0446B5E500F01581DDE90801069A0C
:101A4000534B564206F00F0203EBC203D3E90023C7
:101A500002F0F0FC36118046894600F074810023C4
:101A60004FF0020A4B4FF20706D5D7E9002302F0E8
:101A7000E1FC01230AF1010A761007F10807F2D10F
:101A8000002B3FF4A5AB80468946FFF7A1BB0D9024
:101A900030E5029B002B7FF44AAEDDE90212C2F36F
:101AA0001303002B3FF41CAF41E6002A12DD214650
:101AB00001222846029300F0F1FC4946044600F05A
:101AC00061FD0028029B40F31981392B00F0FD8055
:101AD0000BF13103BA46069A374601324646069262
:101AE0000AF8013BE5E5059D029CCDF80880024619
:101AF0000B4602F0E9FA52465B468046894602F000
:101B000029FF60B952465B464046494602F0FAFE5C
:101B100000283FF4BCAC029BD9077FF5B8AC049A0F
:101B2000FFF7F0BB2846716800F02CFA0746002842
:101B300000F02C81336906F10C0102339A000C305D
:101B400000F0AAF939460122284600F0A7FC804699
:101B500013E62146284600F031FC044621E50A9BA5
:101B6000079A9F1AB9E4392B00F0AF80BA460133C7
:101B7000B1E7069A37460132464606927AE5169B49
:101B8000C3F136033BE700BFC86900080000F07FDF
:101B9000C8660008B8670008DDF848A08549DDE997
:101BA0000E2301EBCA0151E9020102F043FCCDE929
:101BB0000E014946404602F0EDFE064602F0D0FB1B
:101BC0000B4602464946404602F07CFA5346049FC3
:101BD0003036012B8046894607F8016B00F0B18052
:101BE000129E049B1E440022734B4046494602F05D
:101BF00021FC8946804602F0CDFE824602F0B0FB11
:101C000002460B464046494602F05CFA0AF1300AA9
:101C100007F801ABB74280468946E4D1DDE90E0101
:101C20000022664B02F050FA42464B4602F074FE28
:101C300000285AD1DDE90E230020604902F042FA63
:101C400042464B4602F086FE00283FF495AB16F85C
:101C5000013CB246302B06F1FF36F8D0139B01331E
:101C6000069336E54FF0020ADDE90889FFF7B0BABE
:101C7000079B002B3FF452AB119B002B7FF77CABF3
:101C80001293069B0022013B4046494613934A4B60
:101C900002F0D0FB804689460AF1010002F060FBA9
:101CA00042464B4602F0C6FB454B002202F00CFABE
:101CB000A1F15073CDE90E010F93FFF7ACBA069B6B
:101CC000013306933123FFF724BB069BBB46013348
:101CD0000693392337460BF8013B4646D9E44FF0CB
:101CE00000094E464DE69A466AE4139B049A069311
:101CF000FFF708BB0E9C149DB246AFE77FF4EAAE37
:101D0000DA077FF5E7AEE0E6DDF854B00E9C149DEF
:101D1000FFF732BB392BD8D0BAF1000F3FF7D8AE5E
:101D2000D8E6229B022B3FF717AECDF818809EE530
:101D3000229B022B3FF710AE119BCDF81880079322
:101D400013E53E466AE74FF0020AFFF741BA1D4B22
:101D50000493FFF7FBB80246EA211B4B1B4800F037
:101D600051FF00266B6A314628465E6000F00AF992
:101D7000049090B900224FF4D571154B134800F030
:101D800041FF3FF435ACC0F13C00B7E4024640F2FD
:101D9000EA210F4B0D4800F035FF6B6A04994FF0B4
:101DA000FF3219600123239611920B930792FFF7DC
:101DB000E3BA00BFC8660008000024400000E03F0E
:101DC00000001C40BC690008CC690008E4690008F8
:101DD000186A0008F030704700487047540100202E
:101DE0000048704754010020024B0146186800F07B
:101DF0009BBE00BF00000020024B0146186800F0A7
:101E00002DBE00BF000000205FFA81FC810710D0CA
:101E10000346511E2AB90AE09A0718460AD001392A
:101E200005D3184613F8012B6245F5D17047002001
:101E30007047114603290CD80029F8D00346014405
:101E400001E08B42F3D0184613F8012B6245F8D11C
:101E5000ECE7024610B54CEA0C2444EA0444104670
:101E6000036804326340A3F1013E2EEA030313F03A
:101E7000803F04D1043903291046F0D851B10346FC
:101E8000014401E08B4205D0184613F8012B62454E
:101E9000F8D110BD002010BD844641EA000313F0C4
:101EA000030349D1403A23D30B6803604B68436076
:101EB0008B688360CB68C3600B6903614B694361C6
:101EC0008B698361CB69C3610B6A03624B6A4362AE
:101ED0008B6A8362CB6AC3620B6B03634B6B436396
:101EE0008B6B8363CB6BC36340304031403ADBD2B2
:101EF00030320BD30B6803604B6843608B688360A0
:101F0000CB68C36010301031103AF3D20C3205D3D5
:101F100051F8043B40F8043B043AF9D2043208D0AB
:101F2000D2071CBF11F8013B00F8013B01D30B881D
:101F300003806046704700BF082A13D38B07B1D0D7
:101F400010F00303AED0C3F10403D21ADB071CBFA9
:101F500011F8013B00F8013BA4D331F8023B20F813
:101F6000023B9FE7043AD9D3013A11F8013B00F84C
:101F7000013BF9D20B7803704B7843708B788370F8
:101F80006046704770B5466A05460C465EB1F36818
:101F9000A3B153F82400E8B1026843F824200023D9
:101FA000C0E9033370BD1020FFF71EFF06466862CC
:101FB000E8B10023C0E901330360C360212204219A
:101FC000284600F03DFD6B6AF060DB68002BE0D135
:101FD000002070BD0121284601FA04F56A1D920017
:101FE00000F02EFD0028F3D0C0E90145D7E70246F6
:101FF0006621024B024800F005FE00BFCC690008D4
:102000002C6A000870B5466A05460C464EB13CB1D4
:102010006B6A6268DB6853F82210216043F8224043
:1020200070BD1020FFF7E0FE686220B1C0E90166D4
:102030000660C660EBE702468A21024B024800F0C8
:10204000E1FD00BFCC6900082C6A00082DE9F041D1
:102050004FF0000E0E461C460D69074601F11400B4
:1020600001680EF1010E8BB202FB0343090C4FEA2B
:10207000134C02FB01CC9BB203EB0C43754540F8BB
:10208000043B4FEA1C44EBDC3CB1B368AB4207DDD8
:1020900006EB850301355C6135613046BDE8F081B2
:1020A000716838460131FFF76DFF804690B13269A3
:1020B00006F10C01023292000C30FFF7EDFE3146C2
:1020C00046463846FFF79EFF06EB850301355C6107
:1020D0003561E2E70246B521014B024800F092FD6E
:1020E000186A00082C6A00082DE9F8431E46DFF83C
:1020F000A0C0174603F108028CFB023C092E4FEAF0
:10210000E27305460C46C3EB6C0339DD4FF0010C5E
:1021100000214FEA4C0C634501F10101F9DC28462E
:10212000FFF730FF014668B3089B092F43614FF06A
:102130000103036112DC09270A34BE420BDDF61BE2
:10214000264414F8013B0A222846303BFFF77EFF65
:10215000A6420146F5D10846BDE8F88304F1090915
:10216000C8463C4418F8013B0A222846303BFFF79A
:102170006DFFA0450146F5D1A7F108044C44DCE70A
:102180000021CCE70246CE21024B034800F03AFD85
:10219000398EE338186A00082C6A0008020C120411
:1021A0000346CAB91020834013F07F4F04BF1B02BF
:1021B000083013F0704F04BF1B01043013F0404F80
:1021C00004BF9B000230002B05DB13F0804F00F1B1
:1021D000010008BF202070470020E5E703680246A1
:1021E00013F0070009D0D9071FD498074BBF5B082D
:1021F0009B08012002201360704799B209B9102092
:10220000C340D9B209B908301B0A190704BF1B091A
:102210000430990704BF9B080230D90703D45B0838
:1022200000F1010003D013607047002070472020A8
:10223000704700BF10B50C460121FFF7A3FE024610
:1022400018B10123C0E9043410BD4FF4A071024B52
:10225000024800F0D7FC00BF186A00082C6A00088A
:102260002DE9F04F0E6915698846AE42144685B0D7
:1022700005DB2A46234635460C4616469846A36893
:102280006168AF19BB42B8BF0131FFF77BFE019017
:10229000002800F08780019B03F1140909EB870AED
:1022A000D14505D24B46002243F8042B9A45FBD872
:1022B00008F1140808EB860B04F11403D8451A46FC
:1022C00003EB85055FD22B1B153B23F0030304337F
:1022D0001534A54238BF0423CDE902A7AC461F46FA
:1022E000924605E0000C29D1C34509F1040948D9FB
:1022F00058F8040B85B2002DF4D056464C46002306
:1023000056F8040B216882B21FFA81FE05FB02EE2B
:10231000000C0A0C05FB0022734402EB13429BB233
:1023200043EA0243B44544F8043B4FEA1243E7D87A
:1023300049F8073058F8040C000CD5D0D9F8003013
:10234000544619464D4600222688090C00FB06110A
:102350009BB20A4443EA024345F8043B54F8046B39
:102360002968360C8BB200FB0633A44503EB1243FD
:102370004FEA1342E8D8C34549F8073009F1040988
:10238000B6D8DDE902A7002F02DC05E0013F03D04B
:102390005AF8043D002BF9D0019B18461F6105B087
:1023A000BDE8F08F024640F25D11024B024800F09A
:1023B00029FC00BF186A00082C6A00082DE9F041CA
:1023C00012F003031446074682B02DD10E46A41026
:1023D0001CD07A6A8AB39568002D39D0E3074FF094
:1023E000000806D4641011D0286898B10546E307A8
:1023F000F8D531462A463846FFF732FF03463146C4
:1024000038461E46FFF7FEFD6410EDD1304602B09F
:10241000BDE8F0812A4629463846FFF721FF2860AB
:102420000546C0F80080E2E7184A013B52F8232035
:102430000023FFF70BFE0646C9E71020FFF7D4FC88
:1024400002467862E0B10023C0E901330360C36053
:10245000012138460192FFF795FD019A054640B1EA
:10246000012340F27121C0E9043100239060036030
:10247000B4E702464FF4A071054B064800F0C2FBDA
:102480004FF4D771044B034800F0BCFBB86600085A
:10249000186A00082C6A0008CC6900082DE9F0478A
:1024A0000D462E69AB6806EB6216741C9C42914681
:1024B000074649684FEA621A04DD5B009C4201F15D
:1024C0000101FADC3846FFF75DFD804600284ED05A
:1024D000BAF1000F00F114000EDD034600210AF1ED
:1024E00005024FEA820C08EB820243F8041B934278
:1024F000FBD1ACF114031844296905F1140319F058
:102500001F0903EB81012AD084464FF0000AC9F16C
:10251000200E1A6802FA09F242EA0A024CF8042B69
:1025200053F8042B994222FA0EFAF2D84B1B153BB2
:1025300023F00303043305F11502914238BF04234D
:10254000BAF1000F18BF264640F803A038462946C6
:10255000C8F81060FFF756FD4046BDE8F087043824
:1025600053F8042B994240F8042FF9D8EEE70246BD
:1025700040F2D911014B024800F044FB186A0008F0
:102580002C6A000884460B690069C01A15D10CF149
:10259000140C14310CEB830210B401EB830301E043
:1025A000944508D252F8044D53F8041D8C42F7D0DC
:1025B00004D24FF0FF3010BC70477047012010BCB0
:1025C000704700BF2DE9F84F0C6913698946E41A7A
:1025D000002C17467DD101F11406143202EB830260
:1025E00006EB830301E09E4276D253F8045D52F875
:1025F000041D8D42F7D067D3D9F80410FFF7C2FC51
:10260000002873D0D9F81050C46000F11404264695
:102610004FF0000A3B6909F1140807F1140E09F1A3
:10262000100C08EB85020EEB83095CF804BF5EF822
:10263000041B1FFA8BF353441FFA81FA090CA3EB16
:102640000A03C1EB1B4101EB23419BB243EA014367
:10265000F14546F8043B4FEA214AE6D8A9EB0701C9
:1026600015391537B94521F0030606F1040638BFC0
:10267000042621F0030138BF0021B044424526441E
:102680000C4418D93746444654F8041B8BB25344C3
:102690004FEA234A0AEB11419BB243EA0143A242AB
:1026A00047F8043B4FEA214AEED8541EA4EB080435
:1026B00024F00304344423B954F8043D013D002BB5
:1026C000FAD00561BDE8F88F4B460124B9461F4694
:1026D00092E7F9DB00248FE70021FFF753FC60B19C
:1026E00001220023C0E90423BDE8F88F02464FF41D
:1026F0001071054B054800F085FA024640F2322180
:10270000014B024800F07EFA186A00082C6A0008A3
:102710000F4B0B40A3F15073002B02DD0020194634
:1027200070475B42B3F1A07F4FEA235205DA4FF4C2
:102730000023002043FA02F17047143A1E2AD6BF44
:102740004FF00043012223FA02F2002110467047A5
:102750000000F07F2DE9F041076900F1140606EB57
:1027600087070C4657F8041CA7F104080846FFF732
:1027700015FDC0F120030A28236036DD46451ED230
:10278000B0F10B0357F8082C26D0C3F1200C994068
:1027900022FA0CF00843A7F1080140F07F558E4261
:1027A00045F440153AD202FA03F057F80C3C23FAEC
:1027B0000CF303431C4620462946BDE8F081B0F1E6
:1027C0000B0308D001FA03F0002340F07F551C46AC
:1027D00045F44015EFE71A46144641F07F5545F49D
:1027E000401520462946BDE8F081C0F10B0321FACF
:1027F00003F2464542F07F552CBF002257F8082CC3
:1028000045F4401538BFDA4000F1150301FA03F32F
:1028100043EA020420462946BDE8F08102FA03F3A8
:102820001C46C8E770B5012182B016461D46FFF769
:10283000A9FB044600284CD02B46C5F30A55C3F328
:1028400013030DB143F48013002E019322D0684688
:102850000096FFF7C3FC002837D0019B0099C0F118
:10286000200203FA02F20A43C34001936261002B83
:1028700014BF02210121A3612161B5B1069BA5F21C
:10288000334505441D60079BC0F1350018602046A4
:1028900002B070BD01A8FFF7A1FC0123019A1946FF
:1028A000626120302361002DE8D104EB8102A0F2A7
:1028B00032431069069A1360FFF770FCC0EB4111B8
:1028C0002046079B196002B070BDDDE900236261FC
:1028D000CDE7024640F20A31014B024800F092F97E
:1028E000186A00082C6A00082DE9F04383B0884676
:1028F00069468146FFF72EFF04460D46404601A972
:10290000FFF728FFD9F81030D8F810200F469A1A90
:10291000DDE90063F31A03EB4213002B0CDD05EB3A
:10292000035906464D4632463B462046294601F0AD
:10293000ABFE03B0BDE8F083C3EB033301EB0351FF
:1029400006460F46EFE700BF172870B506460ADDBA
:10295000002000240749084D22462B4601F06AFD5D
:10296000013EF9D170BD054B03EBC006D6E9040169
:1029700070BD00BF0000F03F00002440B8660008B2
:1029800001F1FF3C116902F114034FEA6C1C03EBE7
:1029900081010CF1010C8B4200EB8C0C16D210B5AE
:1029A000A0F1040E53F8044B99424EF8044FF9D8A5
:1029B0008B1A153B23F0030304331844844504D9D0
:1029C000002340F8043B8445FBD810BD844505D95D
:1029D000002340F8043B8445FBD87047704700BF94
:1029E00003694A11934200F1140009DA00EB8303F2
:1029F00002E053F8042DC2B98342FAD80020704790
:102A000010DD11F01F010DD010B450F8224000EB82
:102A1000820324FA01F202FA01F18C420BD0012068
:102A200010BC704700EB8203E6E70120704753F8C3
:102A3000042D002AF3D18342F9D8002010BC70473E
:102A400038B502FB01F5294600F06EF8044618B1CE
:102A50002A460021FDF7C4FB204638BD002952D08C
:102A600038B551F8043C0C1F002BB8BFE4180546DC
:102A700000F0ACF92B4A1368002B45D0A3420CD9C7
:102A800021686018834228D0636028461460BDE83E
:102A9000384000F09DB9A3420FD81A465B68002B5E
:102AA000F9D11168501884421DD034D3636054604A
:102AB0002846BDE8384000F08BB911685018A04294
:102AC00015D028D8216860188342EFD118685B6858
:102AD0000144C4E900135460EAE718685B680144E4
:102AE000C4E90013D1E7236819441160E0E72068C6
:102AF0000144501883421160DAD1D3E90003014444
:102B0000C2E90013D4E77047284663601460BDE84B
:102B1000384000F05DB90C2328462B60BDE83840F2
:102B200000F056B9F8010020F8B5CD1C25F00305DA
:102B300008350C2D38BF0C25002D064623DBA94295
:102B400021D8264F00F042F93A6822B3144603E038
:102B500063682246FBB11C4623685B1BF8D40B2B31
:102B600015D8636894420CBF3B605360304600F058
:102B70002FF904F10B00231D20F00700C21A01D029
:102B80001B1AA350F8BD0C2300203360F8BD23604E
:102B90001C442560EAE77968D1B12946304600F047
:102BA0001FF8431C01460CD0C41C24F00304A042AF
:102BB00005D03046611A00F013F8013001D02560CD
:102BC000D4E70C233046336000F002F90020F8BD52
:102BD000304600F005F87860DFE700BFF80100201C
:102BE000002238B5064D044608462A6001F04EFA28
:102BF000431C00D038BD2B68002BFBD0236038BDB0
:102C000000020020144600B51A460A4B0D461B6808
:102C100085B0DE6803464CB107490191304607494B
:102C20000294009500F022F800F088FB04490C465D
:102C3000F3E700BF00000020606A0008706A000827
:102C40006469000808B513460022FFF7DBFF00BFE8
:102C50000CB400B583B004AB53F8042B019300F01F
:102C60001BF903B05DF804EB02B070470EB400B579
:102C7000074A82B003AB0146106853F8042B019356
:102C800000F00AF902B05DF804EB03B0704700BF32
:102C90000000002010B4034CD4F8E440A44610BC5B
:102CA000604700BF6400002082B049B15AB16BB1E7
:102CB00013780B601278101E18BF012002B0704705
:102CC00001A9002AF3D1104602B070476FF001004D
:102CD000F4E700BF88420DD98B1883420AD900EB74
:102CE000020CBAB1624613F801CD994202F801CD47
:102CF000F9D170470F2A0ED8034602F1FF3C4AB1C2
:102D00000CF1010C013B8C4411F8012B614503F8D7
:102D1000012FF9D1704740EA01039B074FD1A2F17F
:102D2000100370B501F1200C23F00F0501F1100E16
:102D300000F11004AC441B095EF8105C0EF1100E9B
:102D400044F8105C5EF81C5C103444F81C5C5EF8BF
:102D5000185C44F8185C5EF8145CE64544F8145CB2
:102D6000EAD1013312F00C0F01EB031102F00F0452
:102D700000EB031327D08E46043C24F003064FEAF1
:102D8000940C1E441C1F5EF8045B44F8045FB442BC
:102D9000F9D10CF1010402F0030203EB840301EB0F
:102DA000840102F1FF3C4AB10CF1010C013B8C445F
:102DB00011F8012B614503F8012FF9D170BD0346CD
:102DC00002F1FF3C9CE72246EBE700BF704700BFE3
:102DD000704700BFF8B51446F9B1CAB106460D46B2
:102DE00000F004FFA04202D32F463846F8BD21462A
:102DF0003046FFF799FE07460028F6D022462946BE
:102E0000FFF74AF830462946FFF728FE3846F8BD56
:102E10002746FFF723FE3846F8BD1146BDE8F840C7
:102E2000FFF782BE9368013B002B936005DAD2F86E
:102E300018C0634507DB0A2905D01368581C1060C9
:102E400008461970704700F07DB900BF9BB1F8B516
:102E5000134406460F46541E5D1E01E0AC4208D0E6
:102E60003A46304614F8011FFFF7DCFF431CF5D14A
:102E7000F8BD0020F8BD0020704700BF936810B572
:102E8000144613B91846536010BD00F065FC0023CA
:102E9000C4E9013310BD00BF2DE9F04F0E46924644
:102EA0001C4607469FB018B18369002B00F0A8802C
:102EB000954B9E4200F0AA80944B9E4200F0B58054
:102EC000934B9E4208BFFE68B389180740F1A38068
:102ED0003369002B00F09F80002320220B933023C6
:102EE0009AF80010059401258A4C8DF831208DF850
:102EF000323000297DD0D1460B4604E019F8013F5D
:102F0000002B00F09480252BF8D1B9EB0A0B40F090
:102F1000918099F80030002B6BD000234FF0FF32E6
:102F200009F10109CDE90723069309938DF85B3078
:102F30001C9304E0001B05FA00F018430690CA46F3
:102F40000522204619F8011BFEF75EFF069B0028AC
:102F5000F0D1D90644BF20228DF85B201A0748BF64
:102F60002B229AF8001048BF8DF85B202A2972D1D5
:102F7000059A1168043200290592C0F2A0800991D7
:102F80009AF801100AF1010A2E2976D0DFF888910B
:102F900003224846FEF738FF48B14022069BA0EBCB
:102FA000090002FA00F003430AF1010A06931AF835
:102FB000011B062259488DF83010FEF725FF002826
:102FC00000F08380564B002B6CD005A9009132464F
:102FD0003846544B06A9FDF71DFA0390039B0133B5
:102FE00007D00B9B039A9AF8001013440B93002907
:102FF00081D1B3895B0615D40B981FB0BDE8F08F63
:1030000000F08AFB404B9E427FF456AF7E68B38946
:1030100018073FF55DAF3146384600F00DF900283E
:103020003FF45AAF4FF0FF30E7E7BE684CE7B9EB2B
:103030000A0BDED0D046CAF1010A03E0934538D925
:1030400018F8011F32463846FFF7ECFE01300AEB54
:103050000802F3D1CDE7A1F13002092A94D8099BE7
:103060001AF8011F03EB830302EB4303A1F13002C3
:10307000092AF5D92E29099388D19AF801102A290D
:103080002DD1059B0AF102001A680433002A05932A
:10309000B8BF4FF0FF339AF8021007928246B8BFCC
:1030A000079373E7059B073323F007030833059362
:1030B00097E70B9A99F800305A440B922BE7494254
:1030C00043F00203099106935AE705A9009132469D
:1030D0003846144B06A9FDF7DDFC03907EE700237C
:1030E000A1F13002092A0AF1010A07933FF64EAF17
:1030F0001AF8011F03EB830302EB4303A1F1300233
:10310000092AF5D9079341E72469000804690008F2
:10311000E4680008B06A0008B86A0008BC6A0008E1
:10312000150400084D2E00088C4600B5864613464F
:10313000034A714610685DF804EB6246FFF7ACBEC7
:1031400000000020F8B506460D46144608B1836914
:1031500043B3254B9C422AD0244B9C4229D0244B7C
:103160009C4208BFF468A269A389A2601A0722D50D
:10317000236903B322686169D31AEDB299422F46DD
:1031800029DD0133A1680139A160511C216015704E
:1031900062699A4216D0A389DB0701D50A2D11D0A6
:1031A0003846F8BD00F0B8FA0F4B9C42D4D1746891
:1031B000D9E7B468D7E72146304600F03DF838B982
:1031C0002369D7E72146304600F044F90028E7D0CC
:1031D0004FF0FF37E4E72146304600F03BF9002886
:1031E000F6D101232268CDE72469000804690008AC
:1031F000E468000803460A46024908681946FFF7D2
:10320000A1BF00BF0000002010B4034CD4F8E04080
:10321000A44610BC604700BF64000020034649B1CB
:10322000FF2A02D801200A7070478A224FF0FF302F
:103230001A607047084670473C4B70B51D680646DB
:103240000C460DB1AB69E3B1394B9C421FD0394BF1
:103250009C424DD0384B9C4208BFEC68B4F90C300E
:1032600018079AB219D5216911B312F001002FD0B5
:1032700000256069A5604042A06100292ED0002091
:1032800070BD284600F048FA294B9C42DFD16C689B
:10329000B4F90C3018079AB2E5D4D1063ED55207DE
:1032A00028D4216943F00803A3819AB20029DCD114
:1032B00002F42070B0F5007FD7D02146304600F0F0
:1032C00007FCB4F90C3021699AB212F00100CFD199
:1032D000950758BF6069A0600029D0D1120658BF79
:1032E0000846CDD543F040034FF0FF30A38170BDB9
:1032F000AC68B3E7616B51B104F14402914204D070
:103300003046FFF7ABFBB4F90C30002262630022B9
:10331000216923F02403C4E90012C3E7092243F022
:10332000400332604FF0FF30A38170BD00000020E9
:103330002469000804690008E4680008062008B54C
:1033400000F0F4FC012000F0B7FE00BFF8B58B8957
:103350000C46190707463BD46268002A55DDE66A29
:10336000002E50D000223D683A6013F4805250D1B4
:1033700001233846216AB047421C5CD0A389E66A23
:103380005B0705D56368C01A636B0BB1236CC01A69
:103390000246216A00233846B047411C3BD13B68B6
:1033A000002B38D01D2B01D0162B4BD100232269C6
:1033B000C4E90023616B3D6029B304F144039942E1
:1033C00002D03846FFF74AFB002318466363F8BD76
:1033D0002669C6B19A0718BF0023256808BF63692C
:1033E0002660AD1BA3600CE02B463246D4F828C003
:1033F0003846216AE047B0F1000CA5EB0C056644A5
:1034000012DD002DF0DC0020F8BD226C002AA6DCC5
:10341000F9E7606DB4E70022236962602360A38945
:10342000DB04C7D56065C5E7A3894FF0FF3043F0E3
:103430004003A381F8BD3B68002B9FD01D2B06D015
:10344000162B04D0A38943F04003A381F8BD0020CC
:103450003D60F8BD38B50B69BBB10C46054608B1F7
:103460008369B3B10D4B9C4211D00D4B9C4213D0DC
:103470000C4B9C4208BFEC68B4F90C302BB12146D0
:103480002846BDE83840FFF761BF002038BD6C68B2
:10349000F2E700F041F9E5E7AC68EDE724690008E0
:1034A00004690008E468000838B540B303690446BD
:1034B000E3B1174B1D680DB1AB69CBB1154B9C4205
:1034C0000FD0154B9C4221D0144B9C4208BFEC6896
:1034D000B4F90C3053B121462846BDE83840FFF717
:1034E00035BF6C68B4F90C30002BF4D1002038BD26
:1034F000284600F011F9074B9C42E2D1F1E7084B56
:1035000008491868BDE8384000F0BEBAAC68DFE78B
:10351000000000202469000804690008E46800082D
:10352000B06600085534000800207047014900F0DB
:10353000ABBA00BF5534000800207047682270B550
:103540004D1E02FB05F50E4605F17401FFF7ECFA7E
:10355000044640B100210C30C4E9016005F1680265
:103560002160FCF73DFE204670BD00BF274B2DE9D2
:10357000F0411E680746B36953B34FF0040848365C
:10358000D6E90134013B04D51EE05A1C04F168045D
:103590001AD0B4F90C50013B002DF6D11C4B082277
:1035A0002946C4E90055C4E90253C4E904556566D7
:1035B000A56104F15C00FCF713FEC4E90D55C4E9F4
:1035C00012552046BDE8F08135682DB12E46D7E76B
:1035D000304600F01FF8D0E74FF4D6713846FFF7B9
:1035E000A3FA044668B1056029460546C0F8048080
:1035F0000C304FF4D072A060FCF7F2FD34602E4620
:10360000BEE70C2330603B60DBE700BFB06600081C
:103610000100FFFF0023334A2DE9F0471268C0E99B
:1036200012339042036508BF01232F4908BF83610D
:1036300081620546FFF79AFF034628466B60FFF755
:1036400095FFA86028460024FFF790FF04236E68CA
:10365000DFF898A0DFF89890DFF89880264FE860B0
:103660000822F3602146C6E90044C6E904447466B2
:10367000B460B46106F15C00FCF7B2FD1F4BC6E913
:10368000086AC6E90A983763AE680822F3602146E3
:10369000C6E90044C6E904447466B460B46106F146
:1036A0005C00FCF79DFD164BC6E9086AC6E90A985E
:1036B0003763EE682146F3600822C6E90044C6E994
:1036C00004447466B460B46106F15C00FCF788FDE4
:1036D0000123C6E9086AC6E90B87C6F82890AB61E2
:1036E000BDE8F087B06600082D350008993E000857
:1036F000C13E0008013F0008213F00080900010009
:1037000012000200024B0349186800F0BDB900BF67
:10371000B066000855340008836903B97AE770473A
:10372000704700BF704700BF704700BF704700BFC1
:10373000024B0349186800F087B900BF0000002061
:1037400029350008024B0349186800F07DB900BF15
:1037500000000020393500089368002B00F0B78086
:103760002DE9F04FB1F90C300C4619078046174689
:1037700083B098B225D523691BB310F002033D68CE
:103780002DD04FF0000B5E46DFF8B8A2002E00F0FF
:103790008B80564533465A4628BF53464046216AD9
:1037A000D4F828C0E047002840F38780BB688344F2
:1037B0001B1A361ABB60002BE8D1002003B0BDE80D
:1037C000F08F21464046FFF737FD002840F0368154
:1037D000B4F90C303D6898B210F00203D1D110F06A
:1037E000010976D14E46002E5AD08205D4F808B091
:1037F00040F1B580B3455A4600F2CD8010F4906F89
:1038000000F0CB8023682169A3EB010B636903EB14
:10381000430A0AEBDA7A0BF101034FEA6A0A3344EE
:103820005345524684BF9A465246430540F1EA80CA
:1038300011464046FFF778F9002800F0F9805A4613
:1038400021690190FEF728FBA289019B22F4906276
:1038500042F08002A28103EB0B0023613246AAEB07
:103860000B03B346C4F814A0A3602060B246002640
:1038700049460192FFF72EFAA3682168019AA3EB4B
:103880000B030A44A3602260B868D144A0EB0A008D
:10389000B860002891D0B4F90C0080B2002EA4D1F9
:1038A000D5E9009608359EE7D5E900B608356DE7FD
:1038B00021464046FFF7CEFD80B3B4F90C304FF0FF
:1038C000FF3043F04003A38103B0BDE8F08F002038
:1038D00070471E46AA46994618461D4656B300280C
:1038E00032D04A4620682169B24228BF3246884217
:1038F000636904D9A16803EB010B5A4574DC934258
:1039000065DC2A464046216AD4F828C0E047B0F179
:10391000000BD2DDB9EB0B09CAD00120BB685D44B6
:10392000A3EB0B03A6EB0B06BB60002B3FF445AFEC
:10393000002ED4D10AF1080353F8046C9A4653F8C8
:10394000085C0833002EF7D032460A212846FEF7DD
:103950005BFA002869D00130A0EB0509C1E72068B7
:10396000236998421BD86369B34218D86FF0004CA2
:10397000B44528BFB4469CFBF3FC4A4603FB0CF35A
:103980004046216AD4F828C0E047B0F1000A94DD2F
:10399000A6EB0A0678E7B3463246206866E7B345E9
:1039A000DA4628BFB24649465246FFF793F9A36864
:1039B0002268A3EB0A035244A3602260002BE7D1E4
:1039C00021464046FFF746FD0028E1D075E729462D
:1039D00093460192FFF77EF9A368019A9B1AA360B0
:1039E00023681A44226095E729465A46FFF772F980
:1039F000236821465B4440462360FFF72BFD0028E7
:103A000088D05AE74046FFF7E5F9034600287FF4DF
:103A100022AF40462169FFF721F80C22B4F90C309F
:103A2000C8F8002023F0800349E7721C914659E74B
:103A30000C22B4F90C30C8F8002040E74FF0FF30FA
:103A4000BCE600BF00FCFF7F2DE9F0410026884660
:103A500000F14807D7E90154013D0ED4A389013D87
:103A6000012B06D9B4F90E30013302D02046C047ED
:103A700006436B1C04F16804F0D13F68002FE9D1C4
:103A80003046BDE8F08100BF2DE9F8434FF0000952
:103A90000746884600F14806D6E90154013D10D496
:103AA000A389013D012B08D9B4F90E30013304D0AC
:103AB00021463846C04749EA00096B1C04F16804F6
:103AC000EED13668002EE7D14846BDE8F88300BF46
:103AD000F0B58B890C46990797B007D5012204F100
:103AE0004703C4E90432236017B0F0BDB4F90E10E7
:103AF000054600292DDB6A4600F03EFA002827DB48
:103B0000019E4FF4806706F47046A6F50056B6FA9B
:103B100086F6394628467609FFF706F830B3A389BA
:103B20001A4A43F08003AA62C4E90407A381206013
:103B3000002ED9D02846B4F90E1000F031FA002832
:103B4000D2D0A38923F0030343F00103A381CBE781
:103B5000A38913F0800F14BF40274FF480672846D5
:103B600039460026FEF7E0FF0028D8D1B4F90C3022
:103B70009A05B9D4012123F0030304F1470243F06D
:103B80000203C4E90421A3812260ADE72D350008BA
:103B900070B50C46B1F90E10164600291D4696B0B8
:103BA00013DB6A4600F0E8F900280EDB01994FF4B8
:103BB000806301F47041A1F50051B1FA81F1002058
:103BC00049092960336016B070BD0022B4F90C3089
:103BD0002A601B0604D540230020336016B070BD58
:103BE0004FF480630020336016B070BD51F8040CB0
:103BF0000028A0F10400BCBF0B58C018704700BFDC
:103C000038B5446C0CB1002038BD80210546FEF764
:103C10008BFF0246686430B1031F7C3243F8044FC7
:103C20009342FBD1EFE74FF0FF3038BD1F29F8B5C5
:103C3000054608D8466C0C4617464EB156F8240087
:103C400046F82470F8BD16234FF0FF302B60F8BD06
:103C50008021FEF769FF0646686440B10021031F1A
:103C600000F17C0543F8041F9D42FBD1E6E74FF0CD
:103C7000FF30F8BD1F2938B5054620D8426C0C46E8
:103C80006AB152F8213053B1012B16D0591C10D013
:103C90000025204642F824509847284638BD28463B
:103CA00000F0F8F8224601462846BDE8384000F00A
:103CB000DDB8162301202B6038BD002038BD162347
:103CC0004FF0FF302B6038BD1F292BD8426C38B520
:103CD0000C46054682B152F8243002EB84024BB107
:103CE000591C1AD0012B16D0002520461560984784
:103CF000284638BD012038BD8021FEF715FF024659
:103D0000686460B10020131F02F17C0143F8040FC6
:103D10009942FBD1DFE7032038BD022038BD4FF0C8
:103D2000FF3038BD4FF0FF30704700BF38B5144B3F
:103D30001F281D681FD86A6C044662B152F82030F3
:103D40004BB1012B15D0591C0FD0002542F8205043
:103D50009847284638BD284600F09CF82246014680
:103D60002846BDE8384000F081B8162301202B60BA
:103D700038BD002038BD16234FF0FF302B6038BD12
:103D800000000020124B1F2870B51E6808D80D4691
:103D9000716C044649B151F8240041F8245070BDBB
:103DA00016234FF0FF30336070BD80213046FEF7A0
:103DB000BBFE0146706440B10022031F00F17C0C81
:103DC00043F8042F6345FBD1E5E74FF0FF3070BDAA
:103DD0000000002038B50B4B1D686C6C0CB1002046
:103DE00038BD80212846FEF79FFE686438B1031F66
:103DF00000F17C0243F8044F9342FBD1EFE74FF010
:103E0000FF3038BD0000002038B5174B1F281D6853
:103E100027D86A6C044682B152F8243002EB84023F
:103E20004BB1591C1BD0012B17D000252046156023
:103E30009847284638BD012038BD80212846FEF726
:103E400073FE0246686460B10020131F02F17C011A
:103E500043F8040F8B42FBD1DEE7032038BD02207C
:103E600038BD4FF0FF3038BD0000002070B500268F
:103E7000074D0446084611462E6000F0EFF8431C3B
:103E800000D070BD2B68002BFBD0236070BD00BF3D
:103E90000002002000F0D2B810B50C46B1F90E10A7
:103EA00000F0A6F8002803DB636D0344636510BDD2
:103EB000A38923F48053A38110BD00BF0020704765
:103EC0002DE9F0410C46B1F90C101F46CB05054613
:103ED00016460BD421F48051A1813B463246284638
:103EE000B4F90E10BDE8F04100F01EB8B4F90E10A0
:103EF0000223002200F066F8B4F90C10EAE700BFD4
:103F000010B50C46B1F90E1000F05CF8A389421C04
:103F10000EBF23F4805343F480536065A38110BD2A
:103F2000B1F90E1000F016B838B50C461146002253
:103F30008446074D20462A601A46644600F0B4F8CD
:103F4000431C00D038BD2B68002BFBD0236038BD4C
:103F500000020020002238B5064D044608462A60BB
:103F600000F05CF8431C00D038BD2B68002BFBD060
:103F7000236038BD0002002070B50026074D0446BE
:103F8000084611462E6000F051F8431C00D070BD69
:103F90002B68002BFBD0236070BD00BF0002002007
:103FA000002238B5064D044608462A6000F04EF857
:103FB000431C00D038BD2B68002BFBD0236038BDDC
:103FC0000002002038B50C46114600228446074DF9
:103FD00020462A601A46644600F048F8431C00D088
:103FE00038BD2B68002BFBD0236038BD00020020B9
:103FF00038B50C46114600228446074D20462A60FB
:104000001A46644600F03AF8431C00D038BD2B68CD
:10401000002BFBD0236038BD000200205822024B49
:104020004FF0FF301A607047000200205822024B08
:104030004FF0FF301A607047000200205822024BF8
:104040004FF0FF301A607047000200205822024BE8
:1040500000201A60704700BF000200205822024B67
:104060004FF0FF301A607047000200205822024BC8
:104070004FF0FF301A607047000200205822024BB8
:104080004FF0FF301A60704700020020044A0549D3
:104090001368002B08BF0B46184410601846704781
:1040A00004020020500300205822024B4FF0FF3042
:1040B0001A60704700020020FEE700BF81F0004157
:1040C00002E000BF83F0004330B54FEA41044FEAFD
:1040D000430594EA050F08BF90EA020F1FBF54EA98
:1040E000000C55EA020C7FEA645C7FEA655C00F034
:1040F000E2804FEA5454D4EB5555B8BF6D420CDD05
:104100002C4480EA020281EA030382EA000083EA87
:10411000010180EA020281EA0303362D88BF30BD27
:1041200011F0004F4FEA01314FF4801C4CEA11317D
:1041300002D0404261EB410113F0004F4FEA0333DC
:104140004CEA133302D0524263EB430394EA050F67
:1041500000F0A780A4F10104D5F1200E0DDB02FAD6
:104160000EFC22FA05F2801841F1000103FA0EF26A
:10417000801843FA05F359410EE0A5F120050EF130
:10418000200E012A03FA0EFC28BF4CF0020C43FA61
:1041900005F3C01851EBE37101F0004507D54FF06E
:1041A000000EDCF1000C7EEB00006EEB0101B1F5BE
:1041B000801F1BD3B1F5001F0CD349085FEA300004
:1041C0004FEA3C0C04F101044FEA445212F5800F0F
:1041D00080F09A80BCF1004F08BF5FEA500C50F1AC
:1041E000000041EB045141EA050130BD5FEA4C0C8F
:1041F000404141EB0101013C28BFB1F5801FE9D2EC
:1042000091F0000F04BF01460020B1FA81F308BF0E
:104210002033A3F10B03B3F120020CDA0C3208DDDA
:1042200002F1140CC2F10C0201FA0CF021FA02F1B5
:104230000CE002F11402D8BFC2F1200C01FA02F125
:1042400020FA0CFCDCBF41EA0C019040E41AA2BF4A
:1042500001EB0451294330BD6FEA04041F3C1CDA12
:104260000C340EDC04F11404C4F1200220FA04F032
:1042700001FA02F340EA030021FA04F345EA0301DC
:1042800030BDC4F10C04C4F1200220FA02F001FA9E
:1042900004F340EA0300294630BD21FA04F0294620
:1042A00030BD94F0000F83F4801306BF81F48011B9
:1042B0000134013D4EE77FEA645C18BF7FEA655C2C
:1042C00029D094EA050F08BF90EA020F05D054EAFE
:1042D000000C04BF1946104630BD91EA030F1EBF03
:1042E0000021002030BD5FEA545C05D14000494107
:1042F00028BF41F0004130BD14F580043CBF01F5FA
:10430000801130BD01F0004545F0FE4141F47001DF
:104310004FF0000030BD7FEA645C1ABF19461046BA
:104320007FEA655C1CBF0B46024650EA013406BFBB
:1043300052EA033591EA030F41F4002130BD00BF7A
:1043400090F0000F04BF0021704730B54FF4806437
:1043500004F132044FF000054FF0000150E700BFB8
:1043600090F0000F04BF0021704730B54FF4806417
:1043700004F1320410F0004548BF40424FF0000104
:104380003EE700BF42004FEAE2014FEA31014FEA47
:1043900002701FBF12F07F4393F07F4F81F0605196
:1043A000704732F07F4208BF704793F07F4F04BFE1
:1043B00041F40021704730B54FF4607401F00045BE
:1043C00021F000411CE700BF50EA010208BF70471E
:1043D00030B54FF000050AE050EA010208BF70470F
:1043E00030B511F0004502D5404261EB41014FF478
:1043F000806404F132045FEA915C3FF4D8AE4FF080
:1044000003025FEADC0C18BF03325FEADC0C18BF62
:10441000033202EBDC02C2F1200300FA03FC20FAB3
:1044200002F001FA03FE40EA0E0021FA02F1144400
:10443000BDE600BF70B54FF0FF0C4CF4E06C1CEA19
:1044400011541DBF1CEA135594EA0C0F95EA0C0F8A
:1044500000F0DEF82C4481EA030621EA4C5123EAFD
:104460004C5350EA013518BF52EA033541F480112C
:1044700043F4801338D0A0FB02CE4FF00005E1FBDF
:1044800002E506F00042E0FB03E54FF00006E1FB29
:1044900003569CF0000F18BF4EF0010EA4F1FF046C
:1044A000B6F5007F64F5407404D25FEA4E0E6D41AC
:1044B00046EB060642EAC62141EA55514FEAC520BD
:1044C00040EA5E504FEACE2EB4F1FD0C88BFBCF539
:1044D000E06F1ED8BEF1004F08BF5FEA500E50F1EA
:1044E000000041EB045170BD06F0004646EA0101B0
:1044F00040EA020081EA0301B4EB5C04C2BFD4EBE2
:104500000C0541EA045170BD41F480114FF0000EDA
:10451000013C00F3AB8014F1360FDEBF002001F048
:10452000004170BDC4F10004203C35DA0C341BDCC2
:1045300004F11404C4F1200500FA05F320FA04F094
:1045400001FA05F240EA020001F0004221F00041C8
:1045500010EBD37021FA04F642EB06015EEA430E3B
:1045600008BF20EAD37070BDC4F10C04C4F120056B
:1045700000FA04F320FA05F001FA04F240EA02001E
:1045800001F0004110EBD37041F100015EEA430EEF
:1045900008BF20EAD37070BDC4F1200500FA05F20F
:1045A0004EEA020E20FA04F301FA05F243EA02038E
:1045B00021FA04F001F0004121FA04F220EA02009D
:1045C00000EBD3705EEA430E08BF20EAD37070BDE3
:1045D00094F0000F0FD101F00046400041EB0101C3
:1045E00011F4801F08BF013CF7D041EA060195F0A5
:1045F000000F18BF704703F00046520043EB03035F
:1046000013F4801F08BF013DF7D043EA060370474B
:1046100094EA0C0F0CEA135518BF95EA0C0F0CD056
:1046200050EA410618BF52EA4306D1D181EA03019C
:1046300001F000414FF0000070BD50EA410606BF96
:104640001046194652EA430619D094EA0C0F02D1DB
:1046500050EA013613D195EA0C0F05D152EA033620
:104660001CBF104619460AD181EA030101F000413E
:1046700041F0FE4141F470014FF0000070BD41F087
:10468000FE4141F4780170BD70B54FF0FF0C4CF461
:10469000E06C1CEA11541DBF1CEA135594EA0C0F80
:1046A00095EA0C0F00F0A7F8A4EB050481EA030ECD
:1046B00052EA03354FEA013100F088804FEA0333B4
:1046C0004FF0805545EA131343EA12634FEA022282
:1046D00045EA111545EA10654FEA00260EF0004143
:1046E0009D4208BF964244F1FD0404F5407402D295
:1046F0005B084FEA3202B61A65EB03055B084FEA26
:1047000032024FF480104FF4002CB6EB020E75EB22
:10471000030E22BFB61A754640EA0C005B084FEA4A
:104720003202B6EB020E75EB030E22BFB61A7546C7
:1047300040EA5C005B084FEA3202B6EB020E75EB12
:10474000030E22BFB61A754640EA9C005B084FEA8A
:104750003202B6EB020E75EB030E22BFB61A754697
:1047600040EADC0055EA060E18D04FEA051545EA86
:1047700016754FEA06164FEAC30343EA52734FEA2F
:10478000C2025FEA1C1CC0D111F4801F0BD141EAA8
:1047900000014FF000004FF0004CB6E711F4801F0D
:1047A00004BF01430020B4F1FD0C88BFBCF5E06FED
:1047B0003FF6AFAEB5EB030C04BFB6EB020C5FEAFD
:1047C000500C50F1000041EB045170BD0EF0004E52
:1047D0004EEA113114EB5C04C2BFD4EB0C0541EA84
:1047E000045170BD41F480114FF0000E013C90E681
:1047F00045EA060E8DE60CEA135594EA0C0F08BF45
:1048000095EA0C0F3FF43BAF94EA0C0F0AD150EA43
:1048100001347FF434AF95EA0C0F7FF425AF1046D6
:1048200019462CE795EA0C0F06D152EA03353FF4FE
:10483000FDAE1046194622E750EA410618BF52EA7B
:1048400043067FF4C5AE50EA41047FF40DAF52EA4F
:1048500043057FF4EBAE12E74FF0FF3C06E000BFEC
:104860004FF0010C02E000BF4FF0010C4DF804CDF9
:104870004FEA410C7FEA6C5C4FEA430C18BF7FEAB9
:104880006C5C1BD001B050EA410C0CBF52EA430CE7
:1048900091EA030F02BF90EA020F0020704710F167
:1048A000000F91EA030F58BF994208BF90422CBFF6
:1048B000D8176FEAE37040F0010070474FEA410CEF
:1048C0007FEA6C5C02D150EA013C07D14FEA430C0D
:1048D0007FEA6C5CD6D152EA033CD3D05DF8040B7E
:1048E000704700BF8446104662468C4619466346B0
:1048F00000E000BF01B5FFF7B7FF002848BF10F187
:10490000000F01BD4DF808EDFFF7F4FF0CBF0120CB
:1049100000205DF808FB00BF4DF808EDFFF7EAFF47
:1049200034BF012000205DF808FB00BF4DF808ED02
:10493000FFF7E0FF94BF012000205DF808FB00BFF7
:104940004DF808EDFFF7CEFF94BF012000205DF881
:1049500008FB00BF4DF808EDFFF7C4FF34BF01208E
:1049600000205DF808FB00BF4FEA410C7FEA6C5C59
:1049700002D150EA013C0AD14FEA430C7FEA6C5C59
:1049800002D152EA033C02D14FF0000070474FF0D1
:10499000010070474FEA410212F5001215D211D5FD
:1049A0006FF47873B3EB625212D94FEAC12343F02C
:1049B000004343EA505311F0004F23FA02F018BFAE
:1049C000404270474FF00000704750EA013005D177
:1049D00011F0004008BF6FF0004070474FF000003A
:1049E000704700BF08B5024801F02CFC08BD00BFAD
:1049F0000802002008B5024801F024FC08BD00BFF1
:104A00005002002010B594B00446282200210DEB7E
:104A10000200FBF7E5FB0023059306930793089339
:104A2000099301930293039304930A230A930123A6
:104A30000E9310220F9210930AA800F0BBFEB8B993
:104A40000F2305930021069107940891099105A869
:104A500001F0F0F878B9032301934FF40073029347
:104A60000023039301A801F0C1F938B914B010BDB7
:104A700000F032FAE4E700F02FFAECE700F02CFA4D
:104A8000F4E70000F0B589B000240494059406947E
:104A900007942F4B9A6942F010029A619A6902F0CA
:104AA00010020092009A9A6942F020029A619A6973
:104AB00002F020020192019A9A6942F004029A617E
:104AC0009A6902F004020292029A9A6942F008027C
:104AD0009A619B6903F008030393039B1D4E2246D2
:104AE00041F21001304601F01FFB1B4F224642F2FB
:104AF0000411384601F018FB41F21003049301251C
:104B0000059506940223079304A9304601F0FAF9AB
:104B100042F20413049305950694079504A93846B8
:104B200001F0F0F94FF4004304930C4B0593069504
:104B30000323079304A9304601F0E4F922462146F5
:104B4000282001F021FB282001F056FB09B0F0BD20
:104B50000010024000080140000C0140000021103C
:104B600008B54FF4004001F0EFFA08BD08B50A4857
:104B70000A4B03604FF49643436000238360C36095
:104B800003610C2242618361C36101F09BFC00B9A7
:104B900008BD00F0A1F9FBE79802002000440040A6
:104BA00010B588B000230493059306930793036818
:104BB0002C4A934204D02C4A93422BD008B010BD0B
:104BC0002A4B9A6942F480429A619A6902F48042BF
:104BD0000092009A9A6942F004029A619B6903F07C
:104BE00004030193019B4FF4007304930223059384
:104BF000032307931E4C04A9204601F083F94FF4C8
:104C00008063049300230593069304A9204601F0D2
:104C100079F9D3E7154BDA6942F40032DA61DA69DF
:104C200002F400320292029A9A6942F004029A61F6
:104C30009B6903F004030393039B0423049302235F
:104C40000593032307930A4C04A9204601F05AF95F
:104C50000823049300230593069304A9204601F03A
:104C600051F9ABE700380140004400400010024019
:104C70000008014008B50D480D4B03604FF48273E6
:104C8000436000238360C360036143614FF400729B
:104C90008261C3610362436283620A23C36200F0DC
:104CA00001FA00B908BD00F017F9FBE7DC020020AB
:104CB0000030014010B586B00023029303930493A3
:104CC000059302681A4B9A4201D006B010BD03F555
:104CD00060439A6942F480529A619A6902F4805260
:104CE0000092009A9A6942F008029A619B6903F067
:104CF00008030193019B28230293022303930323B8
:104D000005930C4C02A9204601F0FCF810230293F5
:104D100000230393049302A9204601F0F3F8064A06
:104D2000536843F0E06343F001035360CDE700BFF5
:104D300000300140000C01400000014030B583B05C
:104D40000022ADF80420D7238DF803300F4C4FF428
:104D50008071204601F0E8F90D4D4FF47A7301227D
:104D60000DF10301284600F0F8F94FF47A7302229E
:104D700001A9284600F0E9FB01224FF4807120468A
:104D800001F0D2F99DF8040003B030BD000C0140E1
:104D9000DC02002008B5FFF7D1FF00F0800008BD5D
:104DA00010B50446FFF7F6FF04E0013CA4B2012071
:104DB00000F0D6FC034B13F0FF0FF6D0002CF4D11B
:104DC00010BD00BF954D000810B50C4C00224FF4EB
:104DD0008071204601F0A8F94FF47A730422084943
:104DE000084800F0BAF901224FF48071204601F022
:104DF0009BF93220FFF7D4FF10BD00BF000C01402B
:104E0000C94D0008DC02002008B5FFF733FFFFF7AB
:104E1000DBFF08BD10B582B0AB238DF807300B4C1B
:104E200000224FF48071204601F07EF94FF47A732E
:104E300001220DF10701064800F08FF901224FF41D
:104E40008071204601F070F902B010BD000C0140E5
:104E5000DC02002008B5FFF7D7FFFFF7DBFF08BD36
:104E600008B5FFF783FE08BD10B50446FBF768FFE1
:104E70004FF4FA7382B22146014801F052FB10BD93
:104E80009802002008B5024801F0BAFB08BD00BF37
:104E9000340300207047000008B500F03DFC0020FE
:104EA000FFF7B0FDFFF7EEFDFFF7DAFFFFF7D2FFE8
:104EB0000148FFF7D9FF08BD4469000808B5FFF7AE
:104EC000EBFF0421034801F035F940F6C41000F06F
:104ED00047FCF6E7000C014072B6FEE7FEE7FEE78E
:104EE000FEE7FEE7FEE770477047704708B500F041
:104EF00025FC08BD82B00E4B9A6942F001029A610E
:104F00009A6902F001020092009ADA6942F0805236
:104F1000DA61DB6903F080530193019B054A536812
:104F200023F0E06343F00073536002B0704700BFAA
:104F300000100240000001402DE9F04782B0054614
:104F4000884617461E4600F005FC0A9B1B1A03EB19
:104F5000060900F0FFFB82462B4B1B68C3F3CB33E3
:104F600009FB03F301932B689C6838EA04030CBF28
:104F70004FF0010C4FF0000CBC4540D0B6F1FF3FA4
:104F8000F1D000F0E7FBA0EB0A0048450AD2B9F1E6
:104F9000000F07D0019A02B14A46019B013B0193E1
:104FA0009146E0E72A68536823F0E00353606B689A
:104FB000B3F5827F0BD0AB6AB3F5005F14D0012349
:104FC00085F85130002385F85030032018E0AB6895
:104FD000B3F5004F02D0B3F5806FECD12A681368A7
:104FE00023F040031360E6E72A68136823F40053B4
:104FF00013602A68136843F400531360DFE700204E
:1050000002B0BDE8F08700BFD801002010B582B023
:1050100004460B46009200228021FFF78DFF08B95D
:1050200002B010BD636D43F0200363650320F7E712
:1050300010B582B004460B464168B1F5827F10D0AE
:105040006168B1F5827F03D1A168B1F5806F15D099
:105050000092002280212046FFF76EFFE0B902B0E7
:1050600010BD8168B1F5004F02D0B1F5806FE7D176
:105070002068016821F040010160E1E70092002210
:1050800001212046FFF758FF0028E8D0636D43F068
:10509000200363650320E2E7636D43F0200363654B
:1050A0000320DCE7002856D010B50446436A33B924
:1050B0004368B3F5827F05D00023C36102E000237B
:1050C000036143610023A36294F85130002B3CD06C
:1050D000022384F851302268136823F040031360E0
:1050E000636803F48273A26802F404421343E26823
:1050F00002F400621343226902F002021343626960
:1051000002F001021343A26902F400721343E26940
:1051100002F038021343226A02F080021343A26AAB
:1051200002F40052216813430B60638B226803F082
:10513000040353602268D36923F40063D361002021
:105140006065012384F8513010BD84F8503020464A
:10515000FFF7B0FDBCE7012070472DE9F04383B0B5
:105160001D4690F85030012B00F0D180044688464F
:105170009146012380F8503000F0ECFA074694F88D
:105180005160F6B2012E40F0AF80B8F1000F00F090
:10519000AC80B9F1000F00F0A880032384F85130EF
:1051A00000236365C4F83080A4F83490A4F83690E6
:1051B000A363A387E38763642364A368B3F5004F05
:1051C0001ED023681A6812F0400F03D11A6842F00B
:1051D00040021A60E368B3F5006F1CD0636813B136
:1051E000B9F1010F52D1226B236812781A73236B25
:1051F00001332363E38E9BB2013B9BB2E38645E020
:105200002268136823F0400313602268136843F494
:1052100080431360D5E7636813B1B9F1010F16D16C
:10522000226B23681288DA60236B02332363E38ED8
:105230009BB2013B9BB2E38609E000F08BFAC01BF6
:10524000A84202D3B5F1FF3F59D1002D59D0E38ECA
:105250009BB2002B33D023689A6812F0020FECD077
:10526000226B1288DA60236B02332363E38E9BB2D6
:10527000013B9BB2E386EAE700F06CFAC01BA84250
:1052800002D3B5F1FF3F3ED1002D3ED0E38E9BB25D
:10529000ABB123689A6812F0020FEDD0226B12783E
:1052A0001A73236B01332363B4F836C01FFA8CFCE6
:1052B0000CF1FF3C1FFA8CFCA4F836C0E6E73A4636
:1052C00029462046FFF7A2FE08B120236365A368A4
:1052D00033B901932368DA6801929B680193019BBB
:1052E000636D13B9002600E00226012384F85130D3
:1052F000002384F85030304603B0BDE8F083032625
:10530000F3E70326F1E70326EFE70326EDE702269E
:10531000F1E72DE9F04383B01F460A9D90F8503025
:10532000012B00F01081044688469146012380F845
:10533000503000F00FFA064694F85130DBB2626844
:10534000012B0AD0B2F5827F40F0E380A268002AE8
:1053500040F0E980042B40F0E880B8F1000F00F045
:10536000E680B9F1000F00F0E480002F00F0E38048
:1053700094F85130DBB2042B02D0052384F851306D
:1053800000236365C4F83890E787A787C4F83080A6
:10539000E786A7862364636423681A6812F0400FC7
:1053A00003D11A6842F040021A60E368B3F5006F57
:1053B00011D063680BB1012F0BD1226B23681278D7
:1053C0001A73236B01332363E38E9BB2013B9BB2C1
:1053D000E38601276BE063680BB1012F0BD1226BD1
:1053E00023681288DA60236B02332363E38E9BB257
:1053F000013B9BB2E38601271CE023689A6812F008
:10540000010F0ED0E28F92B25AB1DA68A36B1A8004
:10541000A36B0233A363E38F9BB2013B9BB2E38791
:10542000012700F097F9801BA84203D3B5F1FF3F95
:1054300040F08380E38E9BB21BB9E38F9BB2002BBD
:1054400053D023689A6812F0020FD6D0E28E92B23F
:10545000002AD2D0002FD0D0226B1288DA60236BC2
:1054600002332363E38E9BB2013B9BB2E3860027AA
:10547000C3E723689A6812F0010F0ED0E28F92B250
:105480005AB1DA68A36B1A70A36B0133A363E38F7D
:105490009BB2013B9BB2E387012700F05BF9831BC2
:1054A000AB4202D3B5F1FF3F49D1002D49D0E38E85
:1054B0009BB213B9E38F9BB2BBB123689A6812F019
:1054C000020FD6D0E28E92B2002AD2D0002FD0D0D6
:1054D000226B12781A73236B01332363E38E9BB222
:1054E000013B9BB2E3860027C3E7324629462046AC
:1054F000FFF78CFD48B9A36863B901932368DA68A4
:1055000001929B680193019B04E0202363650120C5
:1055100000E00220012384F85130002384F8503049
:1055200003B0BDE8F0830220F4E70220F2E7012097
:10553000F0E70120EEE70120ECE70320EAE7032093
:10554000E8E70320E6E70220EAE72DE9F04383B02D
:105550000446884691461D464068B0F5827F38D0A3
:1055600094F85030012B00F0AE80012384F85030C5
:1055700000F0F0F8074694F85160F6B2012E40F0C2
:105580008F80B8F1000F00F08C80B9F1000F00F0AF
:105590008880042384F8513000236365C4F8388080
:1055A000A4F83C90A4F83E902363A386E38623648A
:1055B0006364A368B3F5004F19D023681A6812F02A
:1055C000400F03D11A6842F040021A60E3681BB32F
:1055D00041E0A368002BC3D1042384F85130009527
:1055E00013460A462046FFF794FE06465FE022680F
:1055F000136823F0400313602268136823F4804388
:105600001360DAE700F0A6F8C01BA84202D3B5F198
:10561000FF3F50D1002D50D0E38F9BB2002B33D0F1
:1056200023689A6812F0010FECD0A26B1B7B1370F9
:10563000A36B0133A363E38F9BB2013B9BB2E38770
:10564000EAE700F087F8C01BA84202D3B5F1FF3F9C
:1056500035D1002D35D0E38F9BB2ABB123689A686A
:1056600012F0010FEDD0DA68A36B1A80A36B02333E
:10567000A363B4F83EC01FFA8CFC0CF1FF3C1FFA88
:105680008CFCA4F83EC0E6E73A4629462046FFF7E0
:10569000CFFC08B120236365636D13B9002600E0D9
:1056A0000226012384F85130002384F8503030461C
:1056B00003B0BDE8F0830326F3E70326F1E70326F2
:1056C000EFE70326EDE70226F1E7000010B50446F8
:1056D0000E4B18784FF47A73B3FBF0F30C4A106852
:1056E000B0FBF3F000F096FD68B90F2C01D9012052
:1056F0000AE0002221464FF0FF3000F045FD054B47
:105700001C60002000E0012010BD00BFD00100207F
:10571000D8010020D401002008B5074A136843F0DF
:1057200010031360032000F01DFD0F20FFF7CEFFD4
:10573000FFF7E0FB002008BD00200240034A11688B
:10574000034B1B780B441360704700BF48030020D5
:10575000D0010020014B1868704700BF48030020AB
:1057600038B50446FFF7F6FF0546B4F1FF3F02D017
:10577000044B1B781C44FFF7EDFF401BA042FAD3FB
:1057800038BD00BFD001002082B0084B1B68084A1A
:10579000A2FB03235B0A00FB03F3019300BF019B01
:1057A0005A1E0192002BF9D102B07047D801002097
:1057B000D34D6210002800F0F18170B582B004462C
:1057C000036813F0010F2CD0994B5B6803F00C03B6
:1057D000042B1DD0964B5B6803F00C03082B12D0F2
:1057E0006368B3F5803F41D0002B55D103F180436E
:1057F00003F504331A6822F480321A601A6822F41E
:1058000080221A6037E08A4B5B6813F4803FE7D050
:10581000874B1B6813F4003F03D06368002B00F034
:10582000BF81236813F0020F75D0814B5B6813F0C2
:105830000C0F5FD07E4B5B6803F00C03082B54D039
:105840002369002B00F08A807A4B01221A60FFF74F
:1058500081FF0546764B1B6813F0020F75D1FFF7E9
:1058600079FF401B0228F5D903209EE1704A136896
:1058700043F480331360636843B3FFF76BFF05465F
:105880006B4B1B6813F4003FCBD1FFF763FF401B4A
:105890006428F5D9032088E1B3F5A02F09D0644B23
:1058A0001A6822F480321A601A6822F480221A6080
:1058B000E1E703F18043A3F53C331A6842F4802208
:1058C0001A601A6842F480321A60D4E7FFF742FF88
:1058D0000546574B1B6813F4003FA2D0FFF73AFF71
:1058E000401B6428F5D903205FE1514B5B6813F43A
:1058F000803FA5D14E4B1B6813F0020F03D02369E4
:10590000012B40F04F814A4A136823F0F803616984
:1059100043EAC1031360236813F0080F33D0A3696F
:10592000002B5CD0434B0122C3F88024FFF712FF09
:1059300005463F4B5B6A13F0020F21D1FFF70AFFC8
:10594000401B0228F5D903202FE1394A136823F0C0
:10595000F803616943EAC1031360DCE7354B0022B9
:105960001A60FFF7F7FE0546314B1B6813F0020F74
:10597000D1D0FFF7EFFE401B0228F5D9032014E138
:105980000120FFF701FF236813F0040F00F0968059
:10599000274BDB6913F0805F34D1254BDA6942F085
:1059A0008052DA61DB6903F080530193019B01258A
:1059B000214B1B6813F4807F26D0E368012B3DD078
:1059C000002B53D103F1804303F504331A6A22F00C
:1059D00001021A621A6A22F004021A6233E0154BBD
:1059E0000022C3F88024FFF7B5FE0546104B5B6A22
:1059F00013F0020FC7D0FFF7ADFE401B0228F5D908
:105A00000320D2E00025D3E70B4A136843F48073E8
:105A10001360FFF79FFE0646074B1B6813F4807F59
:105A2000CBD1FFF797FE801B6428F5D90320BCE09B
:105A30000010024000004242007000405F4A136ABA
:105A400043F001031362E36833B3FFF783FE0646B6
:105A50005A4B1B6A13F0020F2FD1FFF77BFE801BFE
:105A600041F288339842F3D903209EE0052B09D0F8
:105A7000524B1A6A22F001021A621A6A22F00402D8
:105A80001A62E0E74D4B1A6A42F004021A621A6A7F
:105A900042F001021A62D6E7FFF75CFE0646474B6A
:105AA0001B6A13F0020F08D0FFF754FE801B41F26F
:105AB00088339842F3D9032077E0E5B9E369002BF6
:105AC00072D03E4A526802F00C02082A56D0022BCD
:105AD00017D03B4B00221A66FFF73CFE0446374BBB
