:020000040800F2
:10000000005000207D3A0008B51F0008B71F000807
:10001000B91F0008BB1F0008BD1F0008000000003A
:10002000000000000000000000000000BF1F0008EA
:10003000C11F000800000000C31F0008C51F000802
:10004000C53A0008C53A0008C53A0008611F000813
:10005000C53A0008C53A0008C53A0008C53A000884
:10006000C53A0008C53A0008C53A0008C53A000874
:10007000C53A0008C53A0008C53A0008C53A000864
:10008000C53A0008C53A0008C53A0008C53A000854
:10009000C53A0008C53A0008C53A0008C53A000844
:1000A000C53A00080D180008C53A0008C53A00080E
:1000B000C53A00081D180008C53A0008C53A0008EE
:1000C000C53A0008C53A0008C53A0008C53A000814
:1000D000C53A0008C53A0008C53A0008C53A000804
:1000E00095190008C53A0008C53A0008000000004C
:1000F0000000000000000000000000000000000000
:0C01000000000000000000005FF808F1A3
:100110000348044B834202D0034B03B11847704796
:100120007000002070000020000000000548064913
:100130000B1AD90F01EBA301491002D0034B03B1F5
:100140001847704770000020700000200000000079
:1001500010B5064C237843B9FFF7DAFF044B13B10F
:100160000448AFF300800123237010BD700000200D
:1001700000000000C83A000808B5044B1BB1044950
:100180000448AFF30080BDE80840CFE7000000005E
:1001900074000020C83A000870B50D4E0D4D761B56
:1001A000B61006D0002455F8043B01349847A64207
:1001B000F9D1094E094D03F087FC761BB61006D025
:1001C000002455F8043B01349847A642F9D170BD8C
:1001D000A03B0008A03B0008A43B0008A03B00088F
:1001E000830730B548D0541E002A3FD00346CAB218
:1001F00001E0013C3AD303F8012B9D07F9D1032C10
:100200002DD9CDB245EA05250F2C45EA054536D94D
:10021000A4F1100222F00F0C03F1200EE6444FEA85
:10022000121C03F1100242E9045542E90255103252
:100230007245F8D10CF1010214F00C0F03EB02121D
:1002400004F00F0C13D0ACF1040323F003030433C8
:10025000134442F8045B9342FBD10CF003042CB12D
:10026000CAB21C4403F8012B9C42FBD130BD64464A
:100270001346002CF4D1F9E703461446BFE71A46AB
:10028000A446E0E70CB430B50C466FF000459DB0D5
:100290000A4A20AB059253F8042B02A9CDE9013498
:1002A00007950495069400F03BF90022029B1A7012
:1002B0001DB0BDE8304002B0704700BF0802FFFF2C
:1002C0000EB430B504466FF000459CB00B4A1FAB2E
:1002D0000B49059253F8042B086802A9CDE90134B3
:1002E00007950495069400F01BF90022029B1A70F2
:1002F0001CB0BDE8304003B0704700BF0802FFFFEC
:100300000000002020F0030110F00300C0F1000005
:1003100051F8043B00F1040C4FEACC0C6FF00002E2
:100320001CBF22FA0CF213434FF0010C4CEA0C2CC8
:100330004CEA0C4CA3EB0C0222EA030212EACC12A8
:1003400004BF51F8043B0430F4D0C2F1000102EACA
:100350000102B2FA82F2C2F11F0200EBD200704732
:100360002DE9F0478F680C469F421D46164638D847
:100370008246888910F4906F0ED13D4608682A465F
:10038000314600F091FC0020A2682368D21B2B4468
:10039000A2602360BDE8F0874B69096903EB43085D
:1003A000236808EBD878A3EB01096B1C4FEA6808B7
:1003B0004B444345424684BF98464246430513D5C5
:1003C0001146504600F052FD074608B34A462169DF
:1003D00000F0F4FBA38923F4906343F08003A3812E
:1003E00007E01F460868CAE7504600F09BFD074635
:1003F00050B107EB0900A8EB09032761C4F814808A
:100400002F46A3602060BAE75046216900F0C8FC7F
:100410000C23CAF80030A3894FF0FF3043F04003AB
:10042000A381B7E72DE9F04F9368914683B0002B85
:100430006ED0176880460C4608688D68083744E01F
:10044000B4F80CC01CF4906F2ED0D4E90413451AF4
:1004500003EB430303EBD373AA194FEA630A531C5C
:100460005345524684BF9A4652461CF4806F36D09C
:100470001146404600F0FAFC00283AD02A4621698D
:10048000019000F09BFBA289019B22F4906242F054
:100490008002A2815819AAEB0505A560C4F814A032
:1004A0003546B246236120605946524600F0FCFBB7
:1004B000D9F80830A16820684D1B50449E1BA560E8
:1004C0002060C9F808601EB3083757E902B6002E4D
:1004D000FAD0B542AA46B3D93546B246E4E740461B
:1004E00000F020FD03460028D4D14046216900F0E9
:1004F00057FC0C2300224FF0FF30C8F80030A389CE
:1005000043F04003A381C9E9012203B0BDE8F08FA5
:1005100000231846C9F8043003B0BDE8F08F00BFCF
:100520002DE9F04F1C468B890F461D0680469246EA
:100530009DB003D50B69002B00F0F38000230993D5
:10054000302320228DF82A309AF8003003940125B8
:100550007B4C8DF82920002B76D0D14603E019F88A
:10056000013F002B79D0252BF9D1B9EB0A0B77D1BC
:1005700099F80020002A67D000234FF0FF3209F1DC
:100580000109CDE90523049307938DF853301A939D
:1005900004E0001B05FA00F018430490CA46052247
:1005A000204619F8011B00F0C1FA049B0028F0D185
:1005B000D80644BF20228DF85320190748BF2B22AC
:1005C0009AF8001048BF8DF853202A2956D1039A73
:1005D00011680432002903927EDB07919AF801101A
:1005E0000AF1010A2E295BD0DFF858910322484610
:1005F00000F09CFA48B14022049BA0EB090002FAEB
:1006000000F003430AF1010A04931AF8011B0622C1
:100610004D488DF8281000F089FA002862D04B4B25
:10062000002B52D003A900913A464046484B04A9FA
:10063000AFF300800646721C06D0099B3344099331
:100640009AF80030002B88D1BB895B064CBF4FF075
:10065000FF3009981DB0BDE8F08FB9EB0A0BF3D05D
:100660005B46524639464046FFF77AFE0130EBD0F2
:10067000099B99F800205B4409937BE7A1F13002C4
:10068000092AAFD8079B1AF8011F03EB830302EB7B
:100690004303A1F13002092AF5D92E290793A3D1EA
:1006A0009AF801102A2927D1039B0AF102001A683F
:1006B0000433002A0393B8BF4FF0FF339AF80210B7
:1006C00005928246B8BF05938EE7039B073323F05C
:1006D000070308330393B0E7494243F0020307914D
:1006E00004937BE703A900913A464046184B04A9BE
:1006F00000F0C6F806469EE70023A1F13002092A61
:100700000AF1010A05933FF66FAF1AF8011F03EBD8
:10071000830302EB4303A1F13002092AF5D90593C3
:1007200062E7402100F0A2FB3860386110B140233D
:100730007B6103E70C234FF0FF30C8F8003089E7F6
:10074000643B00086C3B0008703B000800000000A0
:10075000610300082DE9F04791461E460A698B683F
:100760000C469A42B8BF1A46C9F8002091F84330A7
:100770000546DDF8208013B10132C9F80020226857
:1007800091065DD5D9F800300233C9F800302268EF
:1007900012F0060F11461ED1E168CB1A002BD8BF0C
:1007A000114618DD002704F1190A06E0D9F80030D7
:1007B000E268A2EB030CBC450CDD01235246314636
:1007C0002846C047013007F10107EFD14FF0FF3055
:1007D000BDE8F087216894F84330003B18BF01233F
:1007E0008A060AD53021E21882F8431094F84510A1
:1007F0005A1C2244023382F843103146284604F141
:100800004302C0470130E1D0236803F00603042B04
:100810001DD0A3682269934225DD00279B1A1F443F
:1008200004F11A09002401E0BC421CDA01234A4603
:1008300031462846C047013004F10104F4D1C5E730
:1008400012F0060F12D0003B18BF0123D5E7D9F8EC
:100850000030E1682269C91AA36821EAE17793426E
:10086000DCDC0029DCDC0020BDE8F087E168D9F899
:100870000030CB1A002BD8BF114693DCABE700BF8A
:100880002DE9F04317460A7E85B00C460646984689
:100890000C9D01F1430C002A33D0A2F15803D9B2C8
:1008A000202967D8202B65D8DFE813F0DD0064002D
:1008B0006400640064006400640064006400640018
:1008C0006400A3006E0064006400640064006E00B5
:1008D000640064006400640021007F00BF006400C5
:1008E0006400AE0064007F0064006400E4002368DC
:1008F0001A0640F102812B686269191D29601B6884
:100900001A600023E14623613B4621463046CDF87C
:10091000008003AAFFF71EFF013020D04A46394667
:1009200030462369C047013019D02368E0689B072F
:10093000039919D5431A002B16DD002504F1190976
:1009400004E0E0680399431AAB420DDD01234A46F7
:1009500039463046C047013005F10105F1D14FF06D
:10096000FF3005B0BDE8F0838842B8BF084605B047
:10097000BDE8F083012384F8422004F14209236199
:10098000002384F84330BFE72368190602D45A06CF
:1009900000F1BF8029680A68043129601146002AE5
:1009A0006ADB0A25DFF87CE110E02368180640F1D5
:1009B0009A802B68191D296019686F2A0CBF0825B9
:1009C0000A25DFF860E1002384F843306268002ADA
:1009D000A2607DDB236823F004032360002959D142
:1009E000002A77D1E146082D63D0ACEB09032361DF
:1009F0008AE701222B6804F14209196804332B604D
:100A000084F842102261BBE72B6800211A1D2A607E
:100A1000D3F800906268484600F088F800287FD03C
:100A2000A0EB090060602061AAE7236843F020037F
:100A300023607822DFF8F0E084F845202A68111D51
:100A40002960190642D45D0640D51188D80744BFF5
:100A500043F020032360002943D12368102523F0AD
:100A600020032360AFE75823DFF8B8E084F845306F
:100A70002368E3E72368DCE72D2284F843206268DB
:100A80004942002AA26002DB23F0040323600A2506
:100A9000DFF890E0E146B1FBF5F30A4605FB1310E1
:100AA00019461EF80030AA4209F8013DF3D2082D7C
:100AB0009BD12368D90798D5626823699A4294DC50
:100AC000302309F1FF3989F800308EE71168BDE75E
:100AD0000029DFD19EF8003004F1420984F8423049
:100AE00081E710256FE713F0400F2B6803F1040135
:100AF00029600CBF196819885FE713F0400F2B6855
:100B0000626903F1040129601B6814BF1A801A602E
:100B1000F7E62A68B2F9001004322A600A463EE776
:100B2000606880E7783B00088C3B00085FFA81FC36
:100B3000810710D00346511E2AB90AE09A071846C9
:100B40000AD0013905D3184613F8012B6245F5D1B7
:100B5000704700207047114603290CD80029F8D0AF
:100B60000346014401E08B42F3D0184613F8012BF1
:100B70006245F8D1ECE7024610B54CEA0C2444EA91
:100B800004441046036804326340A3F1013E2EEA98
:100B9000030313F0803F04D1043903291046F0D831
:100BA00051B10346014401E08B4205D0184613F8C9
:100BB000012B6245F8D110BD002010BD844641EAEA
:100BC000000313F0030349D1403A23D30B680360B9
:100BD0004B6843608B688360CB68C3600B690361BB
:100BE0004B6943618B698361CB69C3610B6A0362A3
:100BF0004B6A43628B6A8362CB6AC3620B6B03638B
:100C00004B6B43638B6B8363CB6BC363403040316F
:100C1000403ADBD230320BD30B6803604B68436041
:100C20008B688360CB68C36010301031103AF3D208
:100C30000C3205D351F8043B40F8043B043AF9D296
:100C4000043208D0D2071CBF11F8013B00F8013B69
:100C500001D30B8803806046704700BF082A13D376
:100C60008B07B1D010F00303AED0C3F10403D21A46
:100C7000DB071CBF11F8013B00F8013BA4D331F89E
:100C8000023B20F8023B9FE7043AD9D3013A11F81E
:100C9000013B00F8013BF9D20B7803704B784370AD
:100CA0008B7883706046704788420DD98B188342D9
:100CB0000AD900EB020CBAB1624613F801CD994291
:100CC00002F801CDF9D170470F2A0ED8034602F180
:100CD000FF3C4AB10CF1010C013B8C4411F8012B93
:100CE000614503F8012FF9D1704740EA01039B07E2
:100CF0004FD1A2F1100370B501F1200C23F00F05C4
:100D000001F1100E00F11004AC441B095EF8105CF8
:100D10000EF1100E44F8105C5EF81C5C103444F8C0
:100D20001C5C5EF8185C44F8185C5EF8145CE645E0
:100D300044F8145CEAD1013312F00C0F01EB0311FB
:100D400002F00F0400EB031327D08E46043C24F07E
:100D500003064FEA940C1E441C1F5EF8045B44F823
:100D6000045FB442F9D10CF1010402F0030203EB79
:100D7000840301EB840102F1FF3C4AB10CF1010C48
:100D8000013B8C4411F8012B614503F8012FF9D187
:100D900070BD034602F1FF3C9CE72246EBE700BF33
:100DA000002952D038B551F8043C0C1F002BB8BFB5
:100DB000E418054600F0F0F82B4A1368002B45D0E4
:100DC000A3420CD921686018834228D0636028466A
:100DD0001460BDE8384000F0E1B8A3420FD81A46CD
:100DE0005B68002BF9D11168501884421DD034D3B0
:100DF000636054602846BDE8384000F0CFB8116801
:100E00005018A04215D028D8216860188342EFD12D
:100E100018685B680144C4E900135460EAE7186885
:100E20005B680144C4E90013D1E7236819441160E9
:100E3000E0E720680144501883421160DAD1D3E919
:100E400000030144C2E90013D4E7704728466360F9
:100E50001460BDE8384000F0A1B80C2328462B6090
:100E6000BDE8384000F09AB88C000020F8B5CD1CE1
:100E700025F0030508350C2D38BF0C25002D06463E
:100E800023DBA94221D8264F00F086F83A6822B326
:100E9000144603E063682246FBB11C4623685B1BD3
:100EA000F8D40B2B15D8636894420CBF3B60536099
:100EB000304600F073F804F10B00231D20F007000A
:100EC000C21A01D01B1AA350F8BD0C2300203360B6
:100ED000F8BD23601C442560EAE77968D1B1294652
:100EE000304600F047F8431C01460CD0C41C24F0E7
:100EF0000304A04205D03046611A00F03BF80130EF
:100F000001D02560D4E70C233046336000F046F86A
:100F10000020F8BD304600F02DF87860DFE700BF14
:100F20008C000020F8B51446F9B1CAB106460D464A
:100F300000F036F8A04202D32F463846F8BD2146CD
:100F40003046FFF793FF07460028F6D02246294691
:100F5000FFF734FE30462946FFF722FF3846F8BD3A
:100F60002746FFF71DFF3846F8BD1146BDE8F8409B
:100F7000FFF77CBF002238B5064D044608462A60BC
:100F800000F018F8431C00D038BD2B68002BFBD0B4
:100F9000236038BD94000020704700BF704700BF39
:100FA00051F8040C0028A0F10400BCBF0B58C01875
:100FB000704700BF044A05491368002B08BF0B4661
:100FC000184410601846704798000020480200201E
:100FD00081F0004102E000BF83F0004330B54FEAEA
:100FE00041044FEA430594EA050F08BF90EA020F57
:100FF0001FBF54EA000C55EA020C7FEA645C7FEAEA
:10100000655C00F0E2804FEA5454D4EB5555B8BF0C
:101010006D420CDD2C4480EA020281EA030382EA7D
:10102000000083EA010180EA020281EA0303362D0F
:1010300088BF30BD11F0004F4FEA01314FF4801CE2
:101040004CEA113102D0404261EB410113F0004FF4
:101050004FEA03334CEA133302D0524263EB4303AB
:1010600094EA050F00F0A780A4F10104D5F1200E49
:101070000DDB02FA0EFC22FA05F2801841F10001A4
:1010800003FA0EF2801843FA05F359410EE0A5F178
:1010900020050EF1200E012A03FA0EFC28BF4CF0A9
:1010A000020C43FA05F3C01851EBE37101F000455F
:1010B00007D54FF0000EDCF1000C7EEB00006EEB6C
:1010C0000101B1F5801F1BD3B1F5001F0CD34908F6
:1010D0005FEA30004FEA3C0C04F101044FEA44524D
:1010E00012F5800F80F09A80BCF1004F08BF5FEAD4
:1010F000500C50F1000041EB045141EA050130BDB4
:101100005FEA4C0C404141EB0101013C28BFB1F5C5
:10111000801FE9D291F0000F04BF01460020B1FA10
:1011200081F308BF2033A3F10B03B3F120020CDAE3
:101130000C3208DD02F1140CC2F10C0201FA0CF0C1
:1011400021FA02F10CE002F11402D8BFC2F1200C26
:1011500001FA02F120FA0CFCDCBF41EA0C019040DC
:10116000E41AA2BF01EB0451294330BD6FEA040425
:101170001F3C1CDA0C340EDC04F11404C4F1200210
:1011800020FA04F001FA02F340EA030021FA04F322
:1011900045EA030130BDC4F10C04C4F1200220FA79
:1011A00002F001FA04F340EA0300294630BD21FAB7
:1011B00004F0294630BD94F0000F83F4801306BF7D
:1011C00081F480110134013D4EE77FEA645C18BF71
:1011D0007FEA655C29D094EA050F08BF90EA020F08
:1011E00005D054EA000C04BF1946104630BD91EA00
:1011F000030F1EBF0021002030BD5FEA545C05D103
:101200004000494128BF41F0004130BD14F5800441
:101210003CBF01F5801130BD01F0004545F0FE41B5
:1012200041F470014FF0000030BD7FEA645C1ABFEA
:10123000194610467FEA655C1CBF0B46024650EA21
:10124000013406BF52EA033591EA030F41F400214D
:1012500030BD00BF90F0000F04BF0021704730B5D3
:101260004FF4806404F132044FF000054FF00001A8
:1012700050E700BF90F0000F04BF0021704730B569
:101280004FF4806404F1320410F0004548BF40423E
:101290004FF000013EE700BF42004FEAE2014FEA93
:1012A00031014FEA02701FBF12F07F4393F07F4F6E
:1012B00081F06051704732F07F4208BF704793F071
:1012C0007F4F04BF41F40021704730B54FF4607484
:1012D00001F0004521F000411CE700BF50EA010287
:1012E00008BF704730B54FF000050AE050EA010230
:1012F00008BF704730B511F0004502D5404261EBA0
:1013000041014FF4806404F132045FEA915C3FF4E0
:10131000D8AE4FF003025FEADC0C18BF03325FEA7D
:10132000DC0C18BF033202EBDC02C2F1200300FA2E
:1013300003FC20FA02F001FA03FE40EA0E0021FA53
:1013400002F11444BDE600BF70B54FF0FF0C4CF441
:10135000E06C1CEA11541DBF1CEA135594EA0C0FF3
:1013600095EA0C0F00F0DEF82C4481EA030621EA2E
:101370004C5123EA4C5350EA013518BF52EA033569
:1013800041F4801143F4801338D0A0FB02CE4FF01B
:101390000005E1FB02E506F00042E0FB03E54FF04B
:1013A0000006E1FB03569CF0000F18BF4EF0010E43
:1013B000A4F1FF04B6F5007F64F5407404D25FEA3F
:1013C0004E0E6D4146EB060642EAC62141EA5551F2
:1013D0004FEAC52040EA5E504FEACE2EB4F1FD0C34
:1013E00088BFBCF5E06F1ED8BEF1004F08BF5FEAB2
:1013F000500E50F1000041EB045170BD06F0004664
:1014000046EA010140EA020081EA0301B4EB5C0410
:10141000C2BFD4EB0C0541EA045170BD41F4801108
:101420004FF0000E013C00F3AB8014F1360FDEBF2D
:10143000002001F0004170BDC4F10004203C35DA09
:101440000C341BDC04F11404C4F1200500FA05F38C
:1014500020FA04F001FA05F240EA020001F000422D
:1014600021F0004110EBD37021FA04F642EB0601A3
:101470005EEA430E08BF20EAD37070BDC4F10C04CD
:10148000C4F1200500FA04F320FA05F001FA04F291
:1014900040EA020001F0004110EBD37041F100017D
:1014A0005EEA430E08BF20EAD37070BDC4F1200588
:1014B00000FA05F24EEA020E20FA04F301FA05F2F0
:1014C00043EA020321FA04F001F0004121FA04F298
:1014D00020EA020000EBD3705EEA430E08BF20EA68
:1014E000D37070BD94F0000F0FD101F000464000A2
:1014F00041EB010111F4801F08BF013CF7D041EA24
:10150000060195F0000F18BF704703F00046520027
:1015100043EB030313F4801F08BF013DF7D043EAF8
:101520000603704794EA0C0F0CEA135518BF95EAAE
:101530000C0F0CD050EA410618BF52EA4306D1D135
:1015400081EA030101F000414FF0000070BD50EA54
:10155000410606BF1046194652EA430619D094EADE
:101560000C0F02D150EA013613D195EA0C0F05D1C8
:1015700052EA03361CBF104619460AD181EA03011C
:1015800001F0004141F0FE4141F470014FF00000D4
:1015900070BD41F0FE4141F4780170BD70B54FF06F
:1015A000FF0C4CF4E06C1CEA11541DBF1CEA1355EF
:1015B00094EA0C0F95EA0C0F00F0A7F8A4EB0504D1
:1015C00081EA030E52EA03354FEA013100F08880C8
:1015D0004FEA03334FF0805545EA131343EA126391
:1015E0004FEA022245EA111545EA10654FEA002646
:1015F0000EF000419D4208BF964244F1FD0404F5FF
:10160000407402D25B084FEA3202B61A65EB03055A
:101610005B084FEA32024FF480104FF4002CB6EB17
:10162000020E75EB030E22BFB61A754640EA0C0097
:101630005B084FEA3202B6EB020E75EB030E22BFD7
:10164000B61A754640EA5C005B084FEA3202B6EB18
:10165000020E75EB030E22BFB61A754640EA9C00D7
:101660005B084FEA3202B6EB020E75EB030E22BFA7
:10167000B61A754640EADC0055EA060E18D04FEA65
:10168000051545EA16754FEA06164FEAC30343EA05
:1016900052734FEAC2025FEA1C1CC0D111F4801FD2
:1016A0000BD141EA00014FF000004FF0004CB6E7CB
:1016B00011F4801F04BF01430020B4F1FD0C88BF6A
:1016C000BCF5E06F3FF6AFAEB5EB030C04BFB6EB75
:1016D000020C5FEA500C50F1000041EB045170BD68
:1016E0000EF0004E4EEA113114EB5C04C2BFD4EB95
:1016F0000C0541EA045170BD41F480114FF0000E19
:10170000013C90E645EA060E8DE60CEA135594EA94
:101710000C0F08BF95EA0C0F3FF43BAF94EA0C0F97
:101720000AD150EA01347FF434AF95EA0C0F7FF40C
:1017300025AF104619462CE795EA0C0F06D152EA60
:1017400003353FF4FDAE1046194622E750EA410644
:1017500018BF52EA43067FF4C5AE50EA41047FF455
:101760000DAF52EA43057FF4EBAE12E74FEA4102B8
:10177000B2F1E04324BFB3F5001CDCF1FE5C0DD9EF
:1017800001F0004C4FEAC0024CEA5070B2F1004F39
:1017900040EB830008BF20F00100704711F0804F3C
:1017A00021D113F13872BCBF01F00040704741F401
:1017B00080114FEA5252C2F11802C2F1200C10FA05
:1017C0000CF320FA02F018BF40F001004FEAC123E9
:1017D0004FEAD32303FA0CFC40EA0C0023FA02F38D
:1017E0004FEA4303CCE77FEA625307D150EA013363
:1017F0001EBF4FF0FE4040F44000704701F0004033
:1018000040F0FE4040F40000704700BF08B50248B9
:1018100001F0B3F908BD00BF9C00002008B50248E4
:1018200001F0ABF908BD00BFE400002010B594B092
:101830000446282200210DEB0200FEF7D1FC002314
:1018400005930693079308930993019302930393D7
:1018500004930A230A9301230E9310220F921093EC
:101860000AA800F049FCB8B90F230593002106919E
:1018700007940891099105A800F07EFE78B903232A
:1018800001934FF4007302930023039301A800F027
:101890004FFF38B914B010BD00F08AFBE4E700F048
:1018A00087FBECE700F084FBF4E700002DE9F04152
:1018B00088B000240494059406940794314B9A69E7
:1018C00042F010029A619A6902F010020092009AA6
:1018D0009A6942F020029A619A6902F0200201920C
:1018E000019A9A6942F004029A619A6902F004022C
:1018F0000292029A9A6942F008029A619B6903F087
:1019000008030393039B204D224641F21001284611
:1019100001F0ACF81D4F224642F20411384601F0A6
:10192000A5F841F2100304930126059606944FF0A2
:101930000208CDF81C8004A9284600F085FF42F279
:101940000413049305960694CDF81C8004A9384628
:1019500000F07AFF4FF4004304930D4B0593069675
:101960000323079304A9284600F06EFF2246214670
:10197000282001F0A3F8282001F0D8F808B0BDE82D
:10198000F08100BF0010024000080140000C01403F
:101990000000211008B54FF4004001F06FF808BDB9
:1019A00008B50B480B4B03604CF2503343600023E7
:1019B0008360C3604FF48042026143618361C3610D
:1019C000036201F001FD00B908BD00F0F1FAFBE788
:1019D0002C0100200058004010B586B0002302936F
:1019E0000393049305930268114B9A4201D006B009
:1019F00010BD104CA36943F00803A361A36903F071
:101A000008030093009B4FF4406302931223039357
:101A10000323059302A9084800F016FFE36943F485
:101A20008003E361E36903F480030193019BDEE734
:101A30000058004000100240000C014008B50A4860
:101A40000A4B03604FF49643436000238360C360F6
:101A500003610C2242618361C36101F0CDF900B9D9
:101A600008BD00F0A5FAFBE780010020004400401B
:101A700010B588B000230493059306930793036879
:101A80002C4A934204D02C4A93422BD008B010BD6C
:101A90002A4B9A6942F480429A619A6902F4804220
:101AA0000092009A9A6942F004029A619B6903F0DD
:101AB00004030193019B4FF40073049302230593E5
:101AC000032307931E4C04A9204600F0BDFE4FF4EB
:101AD0008063049300230593069304A9204600F035
:101AE000B3FED3E7154BDA6942F40032DA61DA6902
:101AF00002F400320292029A9A6942F004029A6158
:101B00009B6903F004030393039B042304930223C0
:101B10000593032307930A4C04A9204600F094FE82
:101B20000823049300230593069304A9204600F09C
:101B30008BFEABE70038014000440040001002403B
:101B40000008014070B586B006460D4614460023D5
:101B50000493ADF814304FF4FA7302930623019303
:101B600004AB009301233B22D021164801F0BCFDB9
:101B70009DF810209DF8113043EA02231BB23380F8
:101B80009BB2114A1288134433809DF812209DF8AD
:101B9000133043EA02231BB22B809BB20B4A1288FC
:101BA00013442B809DF814209DF8153043EA02233E
:101BB0001BB223809BB2064A12881344238006B0CE
:101BC00070BD00BF2C010020C4010020C601002010
:101BD000C8010020F0B583B007460E461546002424
:101BE00011E022490988013909B229E0204A128806
:101BF000013A12B22DE01F4B1B88013B1BB21D4A5C
:101C00001380013424B2B4F57A7F2DDA0DF102028B
:101C100001A90DF10600FFF795FFBDF80610791A2E
:101C200009B2BDF80420B21A12B2BDF80230EB1AA4
:101C30001BB239B10029D4DD0C490988013109B240
:101C40000A4801803AB1002AD0DD094A12880132DF
:101C500012B207490A80002BD3D0002BCBDD054BF5
:101C60001B8801331BB2CAE703B0F0BDC4010020DA
:101C7000C6010020C801002008B54FF40052002121
:101C80000846FFF7A7FF08BD00B587B000238DF811
:101C9000173008238DF817304FF4FA73029301239D
:101CA00001930DF1170200921C22D021024801F08D
:101CB00069FC07B05DF804FB2C01002000B587B07B
:101CC00000238DF817304FF4FA7302930123019328
:101CD0000DF1170200927522D021064801F004FD93
:101CE0009DF81700682814BF0020012007B05DF898
:101CF00004FB00BF2C01002010B586B00446002371
:101D0000ADF814304FF4FA7302930223019305AB3C
:101D1000009301234122D021064801F0E5FC9DF803
:101D200014301B021BB29DF815201343238006B00C
:101D300010BD00BF2C010020F0B587B000238DF846
:101D40001730144E4FF4FA770297012501950DF1E3
:101D5000170400942B466B22D021304601F0C4FCBE
:101D60009DF8173003F0F7038DF8173003F0D70311
:101D70008DF8173023F040038DF817300297019546
:101D800000942B466B22D021304601F0FBFB07B0BC
:101D9000F0BD00BF2C010020F0B587B000238DF806
:101DA0001730124E4FF4FA770297012501950DF185
:101DB000170400942B466B22D021304601F094FC8E
:101DC0009DF8173003F0DF038DF8173043F0400320
:101DD0008DF817300297019500942B466B22D02185
:101DE000304601F0CFFB07B0F0BD00BF2C01002052
:101DF0002DE9F04389B00446FFF79EFF0023ADF8BC
:101E00001E300DF11E00FFF777FFBDF91E00FFF732
:101E100031FA00222A4BFFF7C1FB27A3D3E90023A5
:101E2000FFF7DCF8FFF7A2FC064606AA0DF11A013F
:101E300007A8FFF787FEBDF91C00FFF71BFA002279
:101E4000204BFFF781FAFFF791FC0546BDF91A0018
:101E5000FFF710FA00221B4BFFF776FAFFF786FC1C
:101E60008046BDF91800FFF705FA0022154BFFF771
:101E70006BFAFFF77BFC81463046FFF70DFA06460A
:101E80000F464846FFF708FACDE904014046FFF740
:101E900003FACDE902012846FFF7FEF9CDE900017A
:101EA00032463B4608492046FEF70AFAFFF774FF20
:101EB00009B0BDE8F08300BFA4703D0AD74342409B
:101EC000004075400000203FE03A000808B5FFF7E9
:101ED000D3FE08BD00B587B0FFF762FD00238DF883
:101EE00017304FF4FA730293012301930DF1170297
:101EF00000926B22D0210E4801F044FB06E00D4811
:101F000000F020F84FF4FA7000F0CCF8FFF7D6FE9E
:101F10000028F4D0084800F015F8FFF70DFFFFF790
:101F2000B3FEFFF7D3FFFFF737FF07B05DF804FB01
:101F30002C010020FC3A0008143B000808B5FFF70C
:101F40007DFD08BD10B50446FEF7DCF94FF4FA73C9
:101F500082B22146014800F07EFF10BD80010020C2
:101F600008B5024801F066FD08BD00BFCC010020A5
:101F700008B500F073F80020FFF758FCFFF796FC57
:101F8000FFF7DCFF0848FFF7DDFFFFF7A3FF074C73
:101F900064212046FFF72CFF2046FFF7D3FF41F2D4
:101FA000883000F07FF8F2E7283B0008E0010020CD
:101FB00072B6FEE7FEE7FEE7FEE7FEE7FEE77047E4
:101FC0007047704708B500F05BF808BD82B00E4B53
:101FD0009A6942F001029A619A6902F00102009244
:101FE000009ADA6942F08052DA61DB6903F08053CB
:101FF0000193019B054A536823F0E06343F00073AB
:10200000536002B0704700BF001002400000014062
:1020100010B504460E4B18784FF47A73B3FBF0F307
:102020000C4A1068B0FBF3F000F08EFD68B90F2C7D
:1020300001D901200AE0002221464FF0FF3000F0D4
:102040003DFD054B1C60002000E0012010BD00BFDD
:10205000640000206C0000206800002008B5074ADA
:10206000136843F010031360032000F015FD0F20E8
:10207000FFF7CEFFFFF7AAFF002008BD00200240B7
:10208000034A1168034B1B780B441360704700BF71
:102090004402002064000020014B1868704700BF14
:1020A0004402002038B50446FFF7F6FF0546B4F1B8
:1020B000FF3F02D0044B1B781C44FFF7EDFF401B91
:1020C000A042FAD338BD00BF6400002082B0084BA4
:1020D0001B68084AA2FB03235B0A00FB03F301937E
:1020E00000BF019B5A1E0192002BF9D102B070472C
:1020F0006C000020D34D6210002800F0F18170B513
:1021000082B00446036813F0010F2CD0994B5B6832
:1021100003F00C03042B1DD0964B5B6803F00C03FB
:10212000082B12D06368B3F5803F41D0002B55D106
:1021300003F1804303F504331A6822F480321A60F5
:102140001A6822F480221A6037E08A4B5B6813F425
:10215000803FE7D0874B1B6813F4003F03D06368D0
:10216000002B00F0BF81236813F0020F75D0814B64
:102170005B6813F00C0F5FD07E4B5B6803F00C03C1
:10218000082B54D02369002B00F08A807A4B01225F
:102190001A60FFF781FF0546764B1B6813F0020FAC
:1021A00075D1FFF779FF401B0228F5D903209EE186
:1021B000704A136843F480331360636843B3FFF7D6
:1021C0006BFF05466B4B1B6813F4003FCBD1FFF749
:1021D00063FF401B6428F5D9032088E1B3F5A02FE5
:1021E00009D0644B1A6822F480321A601A6822F40B
:1021F00080221A60E1E703F18043A3F53C331A68BB
:1022000042F480221A601A6842F480321A60D4E7DD
:10221000FFF742FF0546574B1B6813F4003FA2D05F
:10222000FFF73AFF401B6428F5D903205FE1514BCB
:102230005B6813F4803FA5D14E4B1B6813F0020F6F
:1022400003D02369012B40F04F814A4A136823F0E1
:10225000F803616943EAC1031360236813F0080FB0
:1022600033D0A369002B5CD0434B0122C3F88024F8
:10227000FFF712FF05463F4B5B6A13F0020F21D1B7
:10228000FFF70AFF401B0228F5D903202FE1394A46
:10229000136823F0F803616943EAC1031360DCE7C4
:1022A000354B00221A60FFF7F7FE0546314B1B68DD
:1022B00013F0020FD1D0FFF7EFFE401B0228F5D933
:1022C000032014E10120FFF701FF236813F0040F3E
:1022D00000F09680274BDB6913F0805F34D1254BEB
:1022E000DA6942F08052DA61DB6903F080530193CE
:1022F000019B0125214B1B6813F4807F26D0E368E6
:10230000012B3DD0002B53D103F1804303F504335F
:102310001A6A22F001021A621A6A22F004021A6290
:1023200033E0154B0022C3F88024FFF7B5FE0546C5
:10233000104B5B6A13F0020FC7D0FFF7ADFE401BD6
:102340000228F5D90320D2E00025D3E70B4A136811
:1023500043F480731360FFF79FFE0646074B1B682C
:1023600013F4807FCBD1FFF797FE801B6428F5D94B
:102370000320BCE000100240000042420070004018
:102380005F4A136A43F001031362E36833B3FFF754
:1023900083FE06465A4B1B6A13F0020F2FD1FFF73C
:1023A0007BFE801B41F288339842F3D903209EE0E4
:1023B000052B09D0524B1A6A22F001021A621A6ADE
:1023C00022F004021A62E0E74D4B1A6A42F004025E
:1023D0001A621A6A42F001021A62D6E7FFF75CFE3F
:1023E0000646474B1B6A13F0020F08D0FFF754FE56
:1023F000801B41F288339842F3D9032077E0E5B996
:10240000E369002B72D03E4A526802F00C02082A9F
:1024100056D0022B17D03B4B00221A66FFF73CFE2A
:102420000446374B1B6813F0007F47D0FFF734FE9C
:10243000001B0228F5D9032059E0314AD36923F063
:102440008053D361DCE72F4B00221A66FFF724FE8E
:1024500005462B4B1B6813F0007F06D0FFF71CFED0
:10246000401B0228F5D9032041E0236AB3F5803FE1
:102470001AD023494B6823F47413226A606A02431A
:1024800013434B601F4B01221A66FFF705FE0446FB
:102490001B4B1B6813F0007F0ED1FFF7FDFD001BE7
:1024A0000228F5D9032022E0154A536823F40033AB
:1024B000A1680B435360DCE7002018E0002016E021
:1024C000012B16D00E4B5B6803F48031226A9142D7
:1024D00011D103F47013626A93420ED1002006E01A
:1024E00001207047012002E0012000E0002002B03E
:1024F00070BD0120FBE70120F9E70120F7E700BFED
:10250000001002400000424286B0174B0FCB0DF185
:10251000180C0CE90F0040F20123ADF80430134B06
:102520005B6803F00C02082A02D0114806B070471D
:10253000C3F3834218326A4412F8100C13F4803F3C
:102540000DD00A4B5B68C3F3404318336B4413F858
:10255000143C074A02FB00F0B0FBF3F0E6E7054B42
:1025600003FB00F0E2E700BF383B00080010024028
:1025700000127A0000093D00002800F0A08070B52C
:102580000D460446524B1B6803F007038B420BD2E7
:102590004F4A136823F007030B431360136803F0DB
:1025A00007038B4240F08D80236813F0020F17D091
:1025B00013F0040F04D0474A536843F4E0635360B8
:1025C000236813F0080F04D0424A536843F4605361
:1025D0005360404A536823F0F003A1680B435360F3
:1025E000236813F0010F31D06368012B20D0022B38
:1025F00025D0384A126812F0020F64D035494A6873
:1026000022F0030213434B60FFF746FD0646314BB1
:102610005B6803F00C036268B3EB820F16D0FFF720
:102620003BFD801B41F288339842F0D9032045E0FE
:10263000284A126812F4003FE0D101203EE0254A0A
:10264000126812F0007FD9D1012037E0204B1B68BF
:1026500003F00703AB420AD91D4A136823F00703AE
:102660002B431360136803F00703AB422DD123689B
:1026700013F0040F06D0174A536823F4E063E168AF
:102680000B435360236813F0080F07D0114A5368B7
:1026900023F46053216943EAC1035360FFF734FF19
:1026A0000C4B5B68C3F303130B4AD35CD8400B4B52
:1026B00018600B4B1868FFF7ABFC002070BD0120C1
:1026C00070470120FAE70120F8E70120F6E700BF94
:1026D00000200240001002404C3B00086C0000202B
:1026E00068000020014B1868704700BF6C00002094
:1026F00008B5FFF7F7FF044B5B68C3F30223034AF7
:10270000D35CD84008BD00BF001002405C3B00080D
:1027100008B5FFF7E7FF044B5B68C3F3C223034A26
:10272000D35CD84008BD00BF001002405C3B0008ED
:1027300070B582B00446036813F0010F36D03F4BEA
:10274000DB6913F0805F49D13C4BDA6942F080527B
:10275000DA61DB6903F080530193019B0125384B5B
:102760001B6813F4807F3BD0344B1B6A13F4407317
:1027700013D0626802F440729A420ED02F4A136A54
:1027800023F440702F490126C1F840640026C1F8A7
:102790004064106213F0010F36D1284A136A23F403
:1027A000407361680B431362002D3ED1236813F020
:1027B000020F06D0214A536823F44043A1680B431B
:1027C0005360236813F0100F34D01C4A536823F46D
:1027D0008003E1680B43536000202CE00025BEE736
:1027E000174A136843F480731360FFF755FC0646DD
:1027F000134B1B6813F4807FB6D1FFF74DFC801B91
:102800006428F5D9032016E0FFF746FC06460B4B7B
:102810001B6A13F0020FC0D1FFF73EFC801B41F290
:1028200088339842F3D9032005E0D36923F080531D
:10283000D361BBE7002002B070BD00BF00100240B2
:10284000007000400000424270B582B00024A446EF
:10285000A6E0804DAA4210D007D97F4DAA420CD0E5
:1028600005F58035AA4208D013E0A5F58015AA42E7
:1028700003D005F57025AA4207D18A68002A58D0EE
:10288000012A51D04361082403E0A5F58015AA422E
:10289000F3D0BEF1FF0F4ED80646BEF1FF0F4CD865
:1028A0004FEA8C0233680F25954023EA050304FAAA
:1028B00002F2134333604B6813F0805F6ED0674BB6
:1028C0009A6942F001029A619B6903F00103019346
:1028D000019B4FEA9C02951C614B53F825600CF05C
:1028E00003039D000F23AB4026EA03065D4B98428D
:1028F00029D003F58063984200F08E8003F5806351
:10290000984200F08B8003F58063984219D004232D
:102910001AE0CC68BDE7CC680434BAE7CC68083468
:10292000B7E7CC680C34B4E703610824B1E70024AE
:10293000AFE70424ADE7061DAFE7ACF10802920053
:10294000B0E7032300E00023AB4033430232444DA1
:1029500045F822304B6813F4803F61D0424A136837
:1029600043EA0E0313604B6813F4003F5ED03E4A07
:10297000536843EA0E0353604B6813F4801F5BD027
:10298000394A936843EA0E0393604B6813F4001FBF
:1029900058D0354AD36843EA0E03D3600CF1010CDA
:1029A0000A6832FA0CF353D0012303FA0CF302EA5B
:1029B000030E33EA0202F1D14A68122A3FF649AF08
:1029C000122A3FF666AF01A555F822F07B280008D1
:1029D000132900081D2900082F2900089328000842
:1029E00093280008932800089328000893280008DB
:1029F00093280008932800089328000893280008CB
:102A000093280008932800089328000893280008BA
:102A10001729000823290008012395E7022393E7DB
:102A2000114A136823EA0E0313609CE70E4A5368A9
:102A300023EA0E0353609FE70B4A936823EA0E03D1
:102A40009360A2E7084AD36823EA0E03D360A5E7A0
:102A500002B070BD000022100000311000100240D2
:102A60000000014000080140000401400AB101617A
:102A700070470904016170477047000008B5054BB5
:102A80005B69034200D108BD024B5861FFF7F4FFB8
:102A9000F9E700BF00040140074AD36823F4E0636C
:102AA0001B041B0C000200F4E060034343F0BF630F
:102AB00043F40033D360704700ED00E000B5194BDC
:102AC000DB68C3F30223C3F1070CBCF1040F28BF7A
:102AD0004FF0040C03F1040EBEF1060F18D9033BAE
:102AE0004FF0FF3E0EFA0CFC21EA0C0199400EFA61
:102AF00003F322EA0303194300280BDB0901C9B2DF
:102B000000F1604000F5614080F800135DF804FBBF
:102B10000023E5E700F00F000901C9B2024B195488
:102B2000F4E700BF00ED00E014ED00E0002807DB53
:102B300000F01F02400901239340024A42F820306E
:102B4000704700BF00E100E00138B0F1807F0BD298
:102B50004FF0E0235861054AF02182F8231000204D
:102B6000986107221A6170470120704700ED00E06C
:102B70007047704770477047704710B50446036848
:102B80001A6912F0020F11D0DA6812F0020F0DD09C
:102B90006FF002021A610123037703689B6913F047
:102BA000030F70D0FFF7E6FF0023237723681A692D
:102BB00012F0040F12D0DA6812F0040F0ED06FF08A
:102BC00004021A610223237723689B6913F4407F70
:102BD0005FD02046FFF7CEFF0023237723681A69D2
:102BE00012F0080F12D0DA6812F0080F0ED06FF052
:102BF00008021A61042323772368DB6913F0030FAB
:102C00004ED02046FFF7B6FF0023237723681A69CA
:102C100012F0100F12D0DA6812F0100F0ED06FF011
:102C200010021A61082323772368DB6913F4407FBD
:102C30003DD02046FFF79EFF0023237723681A69C3
:102C400012F0010F03D0DA6812F0010F36D12368B9
:102C50001A6912F0800F03D0DA6812F0800F34D1B5
:102C600023681A6912F0400F03D0DA6812F0400F9F
:102C700032D123681A6912F0200F03D0DA6812F0FB
:102C8000200F30D110BDFFF774FF2046FFF773FF10
:102C90008AE72046FFF76DFF2046FFF76CFF9BE7B2
:102CA0002046FFF766FF2046FFF765FFACE72046AA
:102CB000FFF75FFF2046FFF75EFFBDE76FF0010201
:102CC0001A612046FFF754FFC1E76FF080021A61D6
:102CD000204600F010F8C3E76FF040021A6120466A
:102CE000FFF74AFFC5E76FF020021A61204600F0A7
:102CF00001F8C7E77047704710B5044602681369CA
:102D000023F44053C1680B43136183680269134382
:102D100042691A430168CB6823F4B05323F00C03D3
:102D20001343CB600268536923F4407381690B43FA
:102D300053610268134B9A4220D0FFF7D9FC024638
:102D400002EB820202EB820263689B00B2FBF3F2A9
:102D50000D48A0FB02314909642303FB11231B0129
:102D60003233A0FB03235B0903F0F00202EB0112F4
:102D700003F00F03216813448B6010BDFFF7C8FCFC
:102D80000246DDE7003801401F85EB512DE9F8438D
:102D900005460F4616469946DDF820802C682468C3
:102DA00037EA04030CBF4FF0010C4FF0000CB445A0
:102DB0001FD1B8F1FF3FF1D0B8F1000F05D0FFF7F8
:102DC0006BF9A0EB09004045E8D92A68D36823F4E1
:102DD000D073D3602A68536923F001035361202321
:102DE00085F83D3085F83E30002385F83C300320DF
:102DF00000E00020BDE8F88358B310B5044690F811
:102E00003D300BB3242384F83D302268D36823F48B
:102E10000053D3602046FFF76FFF2268136923F445
:102E2000904313612268536923F02A035361226897
:102E3000D36843F40053D36000202064202384F837
:102E40003D3084F83E3010BD80F83C30FEF710FE77
:102E5000D8E7012070472DE9F04182B01E4690F876
:102E60003D30DBB2202B54D104460D46904600295C
:102E700053D0002A53D090F83C30012B51D001237D
:102E800080F83C3000230364212380F83D30FFF7B5
:102E900003F90746A4F82480A4F82680A368B3F5B4
:102EA000805F05D04FF00008002384F83C3012E02A
:102EB000236913B14FF00008F6E7A8460025F3E7B1
:102EC00038F8023B2268C3F308035360E28C92B2E5
:102ED000013A92B2E284E38C9BB273B100963B4616
:102EE000002280212046FFF751FFE0B9002DE7D0F6
:102EF00015F8012B23685A60E8E700963B4600224C
:102F000040212046FFF742FF78B9202384F83D3066
:102F100000E0022002B0BDE8F0810120FAE70120C4
:102F2000F8E70220F6E70320F4E70320F2E7704712
:102F300003685A6912F4806F01D1002070476FF462
:102F400080625A6100230363202280F83D2080F8CC
:102F50003E30026C42F00402026480F83C300120F2
:102F600070472DE9F04107460D4690461E4624E085
:102F7000FFF792F8069BC01AB04200D8EEB90023C2
:102F80003B63202287F83D2087F83E303A6C42F0C0
:102F900020023A6487F83C3001201EE03B689C69BF
:102FA00025EA040C1FFA8CFCBCFA8CFC4FEA5C1C72
:102FB000E04511D1B6F1FF3FDAD1C5F30743012B4C
:102FC000ECD13B685B6925EA030C1FFA8CFCBCFA68
:102FD0008CFC4FEA5C1CEBE70020BDE8F0812DE99A
:102FE000F04105460E46174698463DE01A6842F401
:102FF00000721A602B686FF480625A6100232B63A1
:10300000202285F83D2085F83E302A6C42F00402EB
:103010002A6485F83C30012034E0FFF73DF8A0EB4E
:103020000800B84200D8FFB900232B63202285F89E
:103030003D2085F83E302A6C42F020022A6485F853
:103040003C3001201EE02B689C6926EA0404A4B2EF
:10305000003C18BF0124A4B12B685A6912F4806F98
:10306000C4D1B7F1FF3FD8D1C6F30743012BEAD152
:103070002B685C6926EA0404A4B2003C18BF012452
:10308000E9E70020BDE8F08170B504460D4616461C
:1030900023685B6913F0800F1CD12046FFF748FFBF
:1030A000D0B9B5F1FF3FF3D0FEF7F6FF801BA84281
:1030B00001D8002DECD100232363202284F83D2089
:1030C00084F83E30226C42F02002226484F83C30C6
:1030D000012000E0002070BD0120FCE72DE9F04355
:1030E00085B004460D4691461F46DDF830800D9EA2
:1030F0000368196841F48071196000964346002204
:103100004FF00111FFF72DFF60B9236805F0FE05B0
:103110001D613346424626492046FFF760FF68B1ED
:10312000012008E023681B6813F4807F02D04FF46D
:1031300000732364032005B0BDE8F08300230393EC
:1031400023685A6903929B690393039B3246414665
:103150002046FFF799FF30B9012F0FD123685FFA9E
:1031600089F61E61E7E7236C042B01D00120E2E71A
:103170002268136843F400731360F7E723684FEA8B
:1031800019221A61324641462046FFF77DFF20B9D9
:1031900023685FFA89F61E61CDE7236C042B01D00A
:1031A0000120C8E72268136843F400731360F7E74F
:1031B000020001002DE9F04784B004460D46164692
:1031C00099460C9FDDF834800268136843F48063ED
:1031D00013600368196841F480711960CDF80080AC
:1031E0003B4600224FF00111FFF7BBFE70B95FFABA
:1031F00085FA236805F0FE051D6143463A464149BC
:103200002046FFF7ECFE68B1012008E023681B6848
:1032100013F4807F02D04FF400732364032004B0C2
:10322000BDE8F0870023039323685A6903929B69E2
:103230000393039B424639462046FFF725FF80B99A
:10324000B9F1010F18D12368F6B21E614246394622
:103250002046FFF719FF68B3236C042B24D001200C
:10326000DDE7236C042B01D00120D8E72268136826
:1032700043F400731360F7E72368320A1A61424689
:1032800039462046FFF700FF18B92368F6B21E61E1
:10329000DCE7236C042B01D00120C0E7226813680F
:1032A00043F400731360F7E72268136843F4007374
:1032B0001360D4E72268136843F480731360CDF879
:1032C00000803B4600224FF001112046FFF749FEE7
:1032D00068B922684AF00103136143463A46094936
:1032E0002046FFF77CFE002899D0012097E723684D
:1032F0001B6813F4807F02D04FF400732364032013
:103300008DE700BF0200010070B504460D46164669
:1033100023685B6913F0040F1CD12046FFF708FEF9
:10332000D0B9B5F1FF3FF3D0FEF7B6FE801BA8423F
:1033300001D8002DECD100232363202284F83D2006
:1033400084F83E30226C42F02002226484F83C3043
:10335000012000E0002070BD0120FCE770B50546AB
:103360000C4616462B68596911F0400F29D159694E
:1033700011F0100F15D1FEF78FFE801BA04201D86F
:10338000002CEFD100232B63202285F83D2085F807
:103390003E302A6C42F020022A6485F83C3001203D
:1033A00070BD6FF010025A6100232B63202285F854
:1033B0003D2085F83E302A6C2A6485F83C30012097
:1033C000EEE70020ECE70000002800F0CC8070B5AC
:1033D000044690F83D30002B77D0242384F83D300C
:1033E0002268136823F0010313602268136843F412
:1033F000004313602268136823F400431360FFF74F
:1034000077F962685A4B9A4264D85A4B98428CBFFB
:1034100000230123002B40F0A8805749A1FB003175
:103420008B0C25686A6822F03F0242EA91426A608A
:1034300021680A6A22F03F0266684D4DAE424FD8BD
:10344000013313430B622168CA6922F44F4222F010
:10345000FF026668464B9E424CD8431E7600B3FB83
:10346000F6F3013340F6FC70034278D0C3F30B034C
:103470001343CB6121680B6823F0C003E269206A23
:10348000024313430B6021688B6823F4034323F04A
:10349000FF032269E068024313438B602168CB6815
:1034A00023F0FF036269A06902431343CB602268E3
:1034B000136843F00103136000202064202384F884
:1034C0003D30206384F83E0070BD80F83C30FEF74C
:1034D00083FA82E7294B98428CBF0023012399E7A6
:1034E0004FF4967505FB03F3254DA5FB03539B098C
:1034F0000133A6E7A368BBB9451E06EB460CB5FB36
:10350000FCF50135C5F30B05B5FA85F56D0945BB2D
:10351000C3B9013806EB4603B0FBF3F30133C3F341
:103520000B0343F40043A3E7451E06EB860C0CEBAC
:103530008C0CB5FBFCF50135C5F30B05B5FA85F52B
:103540006D09E4E7013806EB860303EB8303B0FB68
:10355000F3F30133C3F30B0343F4404388E704233D
:1035600086E7012384E7012070470120ACE700BF14
:10357000A08601007F841E0083DE1B43FF083D0000
:10358000D34D62102DE9F04383B004460F469046B8
:1035900099460C9EFEF780FD054694F83D00C0B2AA
:1035A000202803D0022003B0BDE8F0830095192342
:1035B00001224B492046FFF7D4FC002840F08980C7
:1035C00094F83C30012B00F08680012384F83C30D5
:1035D00023681A6812F0010F03D11A6842F0010241
:1035E0001A602268136823F400631360212384F8AF
:1035F0003D30402384F83E30002323640A9B6362FD
:10360000BDF82C306385638D2385364BE3620195CD
:1036100000964B46424639462046FFF75FFD00289C
:103620005BD1238D002B35D02A4631462046FFF74B
:103630002BFD20BB626A236812781A61626A531CF0
:103640006362218D013989B22185638D9BB2013B73
:103650009BB263852368586910F0040FE1D00029FC
:10366000DFD052781A61636A01336362238D013BB4
:103670002385638D9BB2013B9BB26385D1E7236CAD
:10368000042B01D001208EE72268136843F40073F5
:103690001360F7E72A4631462046FFF735FE50B162
:1036A000236C042B01D001207DE72268136843F4CA
:1036B00000731360F7E72268136843F40073136024
:1036C000202384F83D30002384F83E3084F83C30D9
:1036D00069E7022067E7022065E7012063E700BF92
:1036E000020010000000FFFF2DE9F04389B00446FE
:1036F0000F4690469946129E00230793FEF7CCFC96
:10370000054694F83D00C0B2202804D00227384670
:1037100009B0BDE8F08300951923012281492046B4
:10372000FFF71FFC002840F0728194F83C30012B19
:1037300000F06F81012384F83C3023681A6812F08E
:10374000010F03D11A6842F001021A60226813685F
:1037500023F400631360222384F83D30402384F86F
:103760003E3000232364109B6362BDF844306385C0
:10377000638D23856C4BE362019500964B46424670
:1037800039462046FFF716FD0746002840F04381E2
:10379000238D5BB9039323685A6903929A69039254
:1037A000039A1A6842F400721A60EDE0012B0FD000
:1037B000022B21D02268136843F480631360002336
:1037C000069323685A6906929B690693069BDBE081
:1037D0002268136823F48063136072B60023049395
:1037E00023685A6904929A690492049A1A6842F406
:1037F00000721A6062B6C7E02268136843F400637F
:10380000136072B60023059323685A6905929A697A
:103810000592059A1A6822F480621A6062B6B3E0D3
:103820002A4631462046FFF799FD002840F0F580F2
:1038300023681A69636A1A70636A01336362238DAD
:10384000013B2385638D9BB2013B9BB263859BE06B
:1038500000953346002235492046FFF782FB0028B9
:1038600040F0DF802268136823F48063136072B62F
:1038700023681A69636A1A70636A01336362238D6D
:10388000013B2385638D9BB2013B9BB26385284B33
:103890001B68DB08274AA2FB03231B0A03EB8303F5
:1038A000C3EBC3030793079B013B0793079B002BC5
:1038B00028D023685A6912F0040FF4D01A6842F431
:1038C00000721A6023681A69636A1A70636A0133A6
:1038D0006362238D013B2385638D9BB2013B9BB2C9
:1038E000638562B623681A69636A1A70636A013372
:1038F0006362238D013B2385638D9BB2013B9BB2A9
:10390000638541E02363202284F83D2084F83E3023
:10391000226C42F02002226462B684F83C30012717
:10392000F5E600BF020010000000FFFF04000100E8
:103930006C00002089B5F8142A4631462046FFF76E
:103940000DFD00286FD123681A69636A1A70626AD4
:10395000531C6362238D013B2385638D9BB2013B26
:103960009BB263852368596911F0040F0CD01B6961
:103970005370636A01336362238D013B2385638D3A
:103980009BB2013B9BB26385238D002B36D0032B6A
:10399000D2D8012B3FF444AF022B7FF459AF0095EE
:1039A0003346002221492046FFF7DBFA002836D1B2
:1039B00072B62268136843F40073136023681A69AF
:1039C000636A1A70636A01336362238D013B238546
:1039D000638D9BB2013B9BB2638562B623681A6913
:1039E000636A1A70636A01336362238D013B238526
:1039F000638D9BB2013B9BB26385C5E7202384F8AE
:103A00003D30002384F83E3084F83C307FE60227C6
:103A10007DE602277BE6012779E6012777E6012785
:103A200075E6012773E6012771E600BF0400010077
:103A30007047704703681A6812F0010F1CD010B568
:103A400004465A6812F0010F10D05B6813F0040F9F
:103A50000DD0FFF7EEFF23686FF004025A600423D5
:103A600063742268536823F00103536010BDFFF7AD
:103A7000DFFF01236374F4E7704700000C480D4931
:103A80000D4A002302E0D458C4500433C4188C42B9
:103A9000F9D30A4A0A4C002301E013600432A2421F
:103AA000FBD3FFF744FAFCF777FBFEF761FA7047A8
:103AB0000000002070000020A83B000870000020DB
:103AC00048020020FEE70000F8B500BFF8BC08BCC3
:103AD0009E467047F8B500BFF8BC08BC9E467047CC
:103AE000743A252E3266783A252E32662C793A259C
:103AF0002E32662C7A3A252E32660A006D707536A3
:103B00003035206973206E6F74207265616479208E
:103B10000D0A00006D7075363035206973207265AE
:103B2000616479200D0A0000746573742073656EFA
:103B3000736F72200D0A00000203040506070809CE
:103B40000A0B0C0D0E0F101000000000000000000A
:103B5000000000000102030406070809000000003D
:103B600001020304232D302B20000000686C4C0060
:103B700065666745464700003031323334353637A5
:103B80003839414243444546000000003031323369
:103B90003435363738396162636465660000000089
:043BA000790100089F
:043BA40051010008C3
:103BA80004000020000000000000000000000000E9
:103BB80000000000000000000000000000000000FD
:103BC80000000000000000000000000000000000ED
:103BD80000000000000000000000000000000000DD
:103BE80000000000000000000000000000000000CD
:103BF80000000000000000000000000000000000BD
:103C08000000000001000000100000000024F40083
:0400000508003A7D38
:00000001FF
