:020000040800F2
:100000000050002091200008790600087B060008B7
:100010007D0600087F060008810600080000000039
:10002000000000000000000000000000830600083F
:100030008506000800000000870600088906000801
:10004000D9200008D9200008D9200008D9200008AC
:10005000D9200008D9200008D9200008D92000089C
:10006000D9200008D9200008D9200008D92000088C
:10007000D9200008D9200008D9200008D92000087C
:10008000D9200008D9200008D9200008D92000086C
:10009000D9200008D9200008D9200008D92000085C
:1000A000D920000891060008D9200008D9200008AE
:1000B000D9200008A1060008D9200008D92000088E
:1000C000D9200008D9200008D9200008D92000082C
:1000D000D9200008D9200008D9200008D92000081C
:1000E000B1060008D9200008D9200008000000004F
:1000F0000000000000000000000000000000000000
:0C01000000000000000000005FF808F1A3
:10010C000348044B834202D0034B03B1184770479A
:10011C000C0000200C0000200000000005480649DF
:10012C000B1AD90F01EBA301491002D0034B03B1F9
:10013C00184770470C0000200C0000200000000045
:10014C0010B5064C237843B9FFF7DAFF044B13B113
:10015C000448AFF300800123237010BD0C00002075
:10016C0000000000DC20000808B5044B1BB104495A
:10017C000448AFF30080BDE80840CFE70000000062
:10018C0010000020DC20000870B50D4E0D4D761BC4
:10019C00B61006D0002455F8043B01349847A6420B
:1001AC00F9D1094E094D01F093FF761BB61006D01C
:1001BC00002455F8043B01349847A642F9D170BD90
:1001CC0038210008382100083C210008382100089B
:1001DC00830730B548D0541E002A3FD00346CAB21C
:1001EC0001E0013C3AD303F8012B9D07F9D1032C14
:1001FC002DD9CDB245EA05250F2C45EA054536D952
:10020C00A4F1100222F00F0C03F1200EE6444FEA89
:10021C00121C03F1100242E9045542E90255103256
:10022C007245F8D10CF1010214F00C0F03EB021221
:10023C0004F00F0C13D0ACF1040323F003030433CC
:10024C00134442F8045B9342FBD10CF003042CB131
:10025C00CAB21C4403F8012B9C42FBD130BD64464E
:10026C001346002CF4D1F9E703461446BFE71A46AF
:10027C00A446E0E720F0030110F00300C0F10000F9
:10028C0051F8043B00F1040C4FEACC0C6FF0000267
:10029C001CBF22FA0CF213434FF0010C4CEA0C2C4D
:1002AC004CEA0C4CA3EB0C0222EA030212EACC122D
:1002BC0004BF51F8043B0430F4D0C2F1000102EA4F
:1002CC000102B2FA82F2C2F11F0200EBD2007047B7
:1002DC0008B50A480A4B03604FF496434360002369
:1002EC008360C36003610C2242618361C36101F0CE
:1002FC00D1FB00B908BD00F075F8FBE72800002021
:10030C000044004008B5FFF7E3FF08BD10B50446F4
:10031C00FFF7B0FF4FF4FA7382B22146014801F0A7
:10032C00E8FB10BD280000202DE9F04186B0002428
:10033C000294039404940594264B9A6942F00402A7
:10034C009A619A6902F004020092009A9A6942F04A
:10035C0008029A619B6903F008030193019B1E4DEF
:10036C00224641F21001284601F082F81B4E22462B
:10037C000421304601F07CF841F2100302934FF057
:10038C000108CDF80C8004940227059702A9284691
:10039C0000F05CFF04230293CDF80C8004940597C5
:1003AC0002A9304600F052FF4FF4004302930C4B6D
:1003BC000393049402A9284600F048FF22462146E4
:1003CC00282001F085F8282001F0BAF806B0BDE825
:1003DC00F08100BF0010024000080140000C0140F9
:1003EC000000111072B6FEE708B50D480D4B036006
:1003FC004FF48273436000238360C36003614361E5
:10040C004FF4007282610822C2610362436283620C
:10041C000A23C36200F0A2FA00B908BDFFF7E2FF9D
:10042C00FC0000200030014000B587B0002302938F
:10043C00039304930593009301931348134A0260AA
:10044C004FF47A7242608360C260036143618361DE
:10045C0001F0C2F990B94FF48053029302A90A48F3
:10046C0001F0F2F960B90023009301936946064844
:10047C0001F058FA30B907B05DF804FBFFF7B2FF92
:10048C00FFF7B0FFFFF7AEFF54010020002C014036
:10049C0000B585B000230193029303930F48104AD3
:1004AC0002608360037303754FF46022C261436082
:1004BC000123036101F058FC60B900230193012270
:1004CC000292039301A9054801F080FB20B905B005
:1004DC005DF804FBFFF786FFFFF784FF6C0000203C
:1004EC000024014008B50B480B4B03604CF2503311
:1004FC00436000238360C3604FF480420261436118
:10050C008361C361036201F0B3FC00B908BDFFF75E
:10051C0069FF00BF9C0000200058004008B5074848
:10052C00074B03600023436040F6FF73836001F0C8
:10053C007DFD00B908BDFFF755FF00BFF00000209E
:10054C000030004000B587B000230293039304935E
:10055C000593009301931348134A02604FF47A7287
:10056C0042608360C2600361836101F035F990B928
:10057C004FF48053029302A90A4801F065F960B95F
:10058C000023009301936946064801F0CBF930B97A
:10059C0007B05DF804FBFFF725FFFFF723FFFFF71C
:1005AC0021FF00BF9C0100200004004000B595B065
:1005BC00282200210DEB0200FFF70AFE0023059311
:1005CC00069307930893099301930293039304935F
:1005DC000A230A9301230E9310220F9210930AA858
:1005EC0000F08CFAB0B90F230593002106919023EB
:1005FC0007930891099105A800F0C0FC60B902238B
:10060C0001930023039301A800F094FD30B915B0B9
:10061C005DF804FBFFF7E6FEFFF7E4FEFFF7E2FEF2
:10062C0008B500F01DFAFFF7C1FFFFF77DFEFFF7DD
:10063C00DBFEFFF7F9FEFFF765FEFFF729FFFFF77B
:10064C0051FFFFF76BFFFFF77DFF0421054800F01A
:10065C0015FF0548FFF75AFE4FF4FA7000F024FA24
:10066C00F7E700BF000C0140F4200008FEE7FEE7AE
:10067C00FEE7FEE7FEE770477047704708B500F0ED
:10068C0001FA08BD08B5024800F0AEFF08BD00BF76
:10069C005401002008B5024800F0A6FF08BD00BFB9
:1006AC009C01002008B54FF4004000F0F1FE08BD9D
:1006BC0082B00A4B9A6942F001029A619A6902F07F
:1006CC0001020092009ADA6942F08052DA61DB6929
:1006DC0003F080530193019B02B07047001002405D
:1006EC0000B587B00023029303930493059302682B
:1006FC00114B9A4202D007B05DF804FB03F56C4332
:10070C009A6942F400729A619A6902F4007200923A
:10071C00009A9A6942F004029A619B6903F00403FF
:10072C000193019B012302930323039302A9034822
:10073C0000F08CFDDFE700BF002401400008014001
:10074C0010B586B0002302930393049305930268BB
:10075C00114B9A4201D006B010BD104CA36943F066
:10076C000803A361A36903F008030093009B4FF4F3
:10077C0040630293122303930323059302A90848B1
:10078C0000F064FDE36943F48003E361E36903F47F
:10079C0080030193019BDEE70058004000100240EB
:1007AC00000C014010B586B0002302930393049310
:1007BC0005930268164B9A4201D006B010BD03F5A2
:1007CC0060439A6942F480529A619A6902F48052A9
:1007DC000092009A9A6942F004029A619B6903F0B4
:1007EC0004030193019BA02302930223039303238D
:1007FC000593084C02A9204600F028FD40230293E3
:10080C0000230393049302A9204600F01FFDD4E7B4
:10081C00003001400008014000B583B00368174A5E
:10082C00934205D0164A934215D003B05DF804FBF1
:10083C00144B9A6942F400629A619B6903F4006359
:10084C000093009B00221146192000F041FE192054
:10085C0000F076FEE9E70B4BDA6942F00202DA614E
:10086C00DB6903F002030193019B002211461D205A
:10087C0000F02EFE1D2000F063FED6E7002C014098
:10088C00000400400010024010B588B0002304930F
:10089C0005930693079303682C4A934204D02C4A81
:1008AC0093422BD008B010BD2A4B9A6942F4804277
:1008BC009A619A6902F480420092009A9A6942F015
:1008CC0004029A619B6903F004030193019B4FF4AA
:1008DC000073049302230593032307931E4C04A96E
:1008EC00204600F0B3FC4FF480630493002305937F
:1008FC00069304A9204600F0A9FCD3E7154BDA694E
:10090C0042F40032DA61DA6902F400320292029A9D
:10091C009A6942F004029A619B6903F00403039301
:10092C00039B0423049302230593032307930A4C8C
:10093C0004A9204600F08AFC0823049300230593A5
:10094C00069304A9204600F081FCABE70038014077
:10095C00004400400010024000080140002856D01E
:10096C0010B50446436A33B94368B3F5827F05D0AA
:10097C000023C36102E00023036143610023A362EF
:10098C0094F85130002B3CD0022384F8513022686B
:10099C00136823F040031360636803F48273A26846
:1009AC0002F404421343E26802F400621343226926
:1009BC0002F002021343626902F001021343A269BE
:1009CC0002F400721343E26902F038021343226A04
:1009DC0002F080021343A26A02F40052216813430E
:1009EC000B60638B226803F0040353602268D369A5
:1009FC0023F40063D36100206065012384F8513037
:100A0C0010BD84F850302046FFF7CCFEBCE7012027
:100A1C007047000010B504460E4B18784FF47A73EB
:100A2C00B3FBF0F30C4A1068B0FBF3F000F096FD4A
:100A3C0068B90F2C01D901200AE0002221464FF0A1
:100A4C00FF3000F045FD054B1C60002000E001204C
:100A5C0010BD00BF00000020080000200400002092
:100A6C0008B5074A136843F010031360032000F025
:100A7C001DFD0F20FFF7CEFFFFF71AFE002008BD6B
:100A8C0000200240034A1168034B1B780B4413608F
:100A9C00704700BFE401002000000020014B1868E3
:100AAC00704700BFE401002038B50446FFF7F6FF9D
:100ABC000546B4F1FF3F02D0044B1B781C44FFF7F2
:100ACC00EDFF401BA042FAD338BD00BF0000002050
:100ADC0082B0084B1B68084AA2FB03235B0A00FB8D
:100AEC0003F3019300BF019B5A1E0192002BF9D115
:100AFC0002B0704708000020D34D6210002800F0AF
:100B0C00F18170B582B00446036813F0010F2CD04C
:100B1C00994B5B6803F00C03042B1DD0964B5B6860
:100B2C0003F00C03082B12D06368B3F5803F41D05F
:100B3C00002B55D103F1804303F504331A6822F4DA
:100B4C0080321A601A6822F480221A6037E08A4BCD
:100B5C005B6813F4803FE7D0874B1B6813F4003FAE
:100B6C0003D06368002B00F0BF81236813F0020FE1
:100B7C0075D0814B5B6813F00C0F5FD07E4B5B68BC
:100B8C0003F00C03082B54D02369002B00F08A804F
:100B9C007A4B01221A60FFF781FF0546764B1B68E2
:100BAC0013F0020F75D1FFF779FF401B0228F5D91E
:100BBC0003209EE1704A136843F48033136063682A
:100BCC0043B3FFF76BFF05466B4B1B6813F4003FF9
:100BDC00CBD1FFF763FF401B6428F5D9032088E1D4
:100BEC00B3F5A02F09D0644B1A6822F480321A6036
:100BFC001A6822F480221A60E1E703F18043A3F51E
:100C0C003C331A6842F480221A601A6842F480322B
:100C1C001A60D4E7FFF742FF0546574B1B6813F4E5
:100C2C00003FA2D0FFF73AFF401B6428F5D9032000
:100C3C005FE1514B5B6813F4803FA5D14E4B1B68B1
:100C4C0013F0020F03D02369012B40F04F814A4A65
:100C5C00136823F0F803616943EAC1031360236846
:100C6C0013F0080F33D0A369002B5CD0434B012247
:100C7C00C3F88024FFF712FF05463F4B5B6A13F065
:100C8C00020F21D1FFF70AFF401B0228F5D90320E0
:100C9C002FE1394A136823F0F803616943EAC10371
:100CAC001360DCE7354B00221A60FFF7F7FE0546B0
:100CBC00314B1B6813F0020FD1D0FFF7EFFE401B36
:100CCC000228F5D9032014E10120FFF701FF236866
:100CDC0013F0040F00F09680274BDB6913F0805F54
:100CEC0034D1254BDA6942F08052DA61DB6903F0CA
:100CFC0080530193019B0125214B1B6813F4807FCA
:100D0C0026D0E368012B3DD0002B53D103F1804357
:100D1C0003F504331A6A22F001021A621A6A22F0ED
:100D2C0004021A6233E0154B0022C3F88024FFF74B
:100D3C00B5FE0546104B5B6A13F0020FC7D0FFF7E8
:100D4C00ADFE401B0228F5D90320D2E00025D3E7E5
:100D5C000B4A136843F480731360FFF79FFE06463B
:100D6C00074B1B6813F4807FCBD1FFF797FE801BDA
:100D7C006428F5D90320BCE0001002400000424278
:100D8C00007000405F4A136A43F001031362E3688A
:100D9C0033B3FFF783FE06465A4B1B6A13F0020F60
:100DAC002FD1FFF77BFE801B41F288339842F3D999
:100DBC0003209EE0052B09D0524B1A6A22F0010247
:100DCC001A621A6A22F004021A62E0E74D4B1A6AA0
:100DDC0042F004021A621A6A42F001021A62D6E761
:100DEC00FFF75CFE0646474B1B6A13F0020F08D058
:100DFC00FFF754FE801B41F288339842F3D903204D
:100E0C0077E0E5B9E369002B72D03E4A526802F0F4
:100E1C000C02082A56D0022B17D03B4B00221A6624
:100E2C00FFF73CFE0446374B1B6813F0007F47D09E
:100E3C00FFF734FE001B0228F5D9032059E0314A94
:100E4C00D36923F08053D361DCE72F4B00221A6661
:100E5C00FFF724FE05462B4B1B6813F0007F06D0D2
:100E6C00FFF71CFE401B0228F5D9032041E0236A42
:100E7C00B3F5803F1AD023494B6823F47413226ACC
:100E8C00606A024313434B601F4B01221A66FFF743
:100E9C0005FE04461B4B1B6813F0007F0ED1FFF7B9
:100EAC00FDFD001B0228F5D9032022E0154A5368EA
:100EBC0023F40033A1680B435360DCE7002018E0F7
:100ECC00002016E0012B16D00E4B5B6803F480312A
:100EDC00226A914211D103F47013626A93420ED1CB
:100EEC00002006E001207047012002E0012000E014
:100EFC00002002B070BD0120FBE70120F9E70120C2
:100F0C00F7E700BF001002400000424286B0174BCA
:100F1C000FCB0DF1180C0CE90F0040F20123ADF8CA
:100F2C000430134B5B6803F00C02082A02D0114802
:100F3C0006B07047C3F3834218326A4412F8100C9F
:100F4C0013F4803F0DD00A4B5B68C3F34043183356
:100F5C006B4413F8143C074A02FB00F0B0FBF3F0AF
:100F6C00E6E7054B03FB00F0E2E700BF0C210008AD
:100F7C000010024000127A0000093D00002800F029
:100F8C00A08070B50D460446524B1B6803F0070356
:100F9C008B420BD24F4A136823F007030B431360A9
:100FAC00136803F007038B4240F08D80236813F025
:100FBC00020F17D013F0040F04D0474A536843F4C0
:100FCC00E0635360236813F0080F04D0424A53685F
:100FDC0043F460535360404A536823F0F003A16814
:100FEC000B435360236813F0010F31D06368012B5E
:100FFC0020D0022B25D0384A126812F0020F64D090
:10100C0035494A6822F0030213434B60FFF746FD53
:10101C000646314B5B6803F00C036268B3EB820F3E
:10102C0016D0FFF73BFD801B41F288339842F0D974
:10103C00032045E0284A126812F4003FE0D1012059
:10104C003EE0254A126812F0007FD9D1012037E02A
:10105C00204B1B6803F00703AB420AD91D4A1368E7
:10106C0023F007032B431360136803F00703AB4211
:10107C002DD1236813F0040F06D0174A536823F4BC
:10108C00E063E1680B435360236813F0080F07D04B
:10109C00114A536823F46053216943EAC103536036
:1010AC00FFF734FF0C4B5B68C3F303130B4AD35CA1
:1010BC00D8400B4B18600B4B1868FFF7ABFC0020AB
:1010CC0070BD012070470120FAE70120F8E70120EC
:1010DC00F6E700BF0020024000100240202100086B
:1010EC000800002004000020014B1868704700BF66
:1010FC000800002008B5FFF7F7FF044B5B68C3F34B
:10110C000223034AD35CD84008BD00BF0010024044
:10111C003021000808B5FFF7E7FF044B5B68C3F309
:10112C00C223034AD35CD84008BD00BF0010024064
:10113C003021000870B582B00446036813F0010F2B
:10114C0036D03F4BDB6913F0805F49D13C4BDA69F9
:10115C0042F08052DA61DB6903F080530193019B0A
:10116C000125384B1B6813F4807F3BD0344B1B6A32
:10117C0013F4407313D0626802F440729A420ED09A
:10118C002F4A136A23F440702F490126C1F840649A
:10119C000026C1F84064106213F0010F36D1284AC2
:1011AC00136A23F4407361680B431362002D3ED124
:1011BC00236813F0020F06D0214A536823F44043EE
:1011CC00A1680B435360236813F0100F34D01C4AF2
:1011DC00536823F48003E1680B43536000202CE038
:1011EC000025BEE7174A136843F480731360FFF7BA
:1011FC0055FC0646134B1B6813F4807FB6D1FFF7E2
:10120C004DFC801B6428F5D9032016E0FFF746FC43
:10121C0006460B4B1B6A13F0020FC0D1FFF73EFCC6
:10122C00801B41F288339842F3D9032005E0D3693F
:10123C0023F08053D361BBE7002002B070BD00BF28
:10124C0000100240007000400000424270B582B0B5
:10125C000024A446A6E0804DAA4210D007D97F4DA9
:10126C00AA420CD005F58035AA4208D013E0A5F5AA
:10127C008015AA4203D005F57025AA4207D18A68C9
:10128C00002A58D0012A51D04361082403E0A5F567
:10129C008015AA42F3D0BEF1FF0F4ED80646BEF120
:1012AC00FF0F4CD84FEA8C0233680F25954023EA88
:1012BC00050304FA02F2134333604B6813F0805FAA
:1012CC006ED0674B9A6942F001029A619B6903F0F8
:1012DC0001030193019B4FEA9C02951C614B53F84F
:1012EC0025600CF003039D000F23AB4026EA030698
:1012FC005D4B984229D003F58063984200F08E80B4
:10130C0003F58063984200F08B8003F5806398426C
:10131C0019D004231AE0CC68BDE7CC680434BAE7D2
:10132C00CC680834B7E7CC680C34B4E70361082404
:10133C00B1E70024AFE70424ADE7061DAFE7ACF13D
:10134C0008029200B0E7032300E00023AB403343D4
:10135C000232444D45F822304B6813F4803F61D083
:10136C00424A136843EA0E0313604B6813F4003FC0
:10137C005ED03E4A536843EA0E0353604B6813F445
:10138C00801F5BD0394A936843EA0E0393604B6825
:10139C0013F4001F58D0354AD36843EA0E03D360C8
:1013AC000CF1010C0A6832FA0CF353D0012303FA46
:1013BC000CF302EA030E33EA0202F1D14A68122A54
:1013CC003FF649AF122A3FF666AF01A555F822F059
:1013DC008B120008231300082D1300083F1300087C
:1013EC00A3120008A3120008A3120008A3120008FD
:1013FC00A3120008A3120008A3120008A3120008ED
:10140C00A3120008A3120008A3120008A3120008DC
:10141C00A31200082713000833130008012395E7D3
:10142C00022393E7114A136823EA0E0313609CE727
:10143C000E4A536823EA0E0353609FE70B4A9368E6
:10144C0023EA0E039360A2E7084AD36823EA0E034B
:10145C00D360A5E702B070BD00002210000031106F
:10146C00001002400000014000080140000401404F
:10147C000AB101617047090401617047C36801EA50
:10148C00030221EA030141EA0241016170477047FE
:10149C0008B5054B5B69034200D108BD024B58618E
:1014AC00FFF7F5FFF9E700BF00040140074AD368D6
:1014BC0023F4E0631B041B0C000200F4E060034304
:1014CC0043F0BF6343F40033D360704700ED00E09A
:1014DC0000B5194BDB68C3F30223C3F1070CBCF155
:1014EC00040F28BF4FF0040C03F1040EBEF1060FDD
:1014FC0018D9033B4FF0FF3E0EFA0CFC21EA0C010D
:10150C0099400EFA03F322EA0303194300280BDB7C
:10151C000901C9B200F1604000F5614080F8001388
:10152C005DF804FB0023E5E700F00F000901C9B2E8
:10153C00024B1954F4E700BF00ED00E014ED00E09D
:10154C00002807DB00F01F02400901239340024AE8
:10155C0042F82030704700BF00E100E00138B0F1E4
:10156C00807F0BD24FF0E0235861054AF02182F8BE
:10157C0023100020986107221A61704701207047E0
:10158C0000ED00E010B4036A046A24F00104046264
:10159C00846924F0F00C4CEA021223F00A030B438A
:1015AC008261036210BC704710B4046A24F010040A
:1015BC0004628469036A24F4704C4CEA023223F00E
:1015CC00A00343EA01138261036210BC7047836875
:1015DC0023F070030B4343F007038360704770479D
:1015EC00704770477047704710B5044603681A6916
:1015FC0012F0020F11D0DA6812F0020F0DD06FF05A
:10160C0002021A610123037703689B6913F0030F2D
:10161C0070D0FFF7E6FF0023237723681A6912F0D6
:10162C00040F12D0DA6812F0040F0ED06FF004021F
:10163C001A610223237723689B6913F4407F5FD0E0
:10164C002046FFF7CEFF0023237723681A6912F098
:10165C00080F12D0DA6812F0080F0ED06FF00802E3
:10166C001A61042323772368DB6913F0030F4ED030
:10167C002046FFF7B6FF0023237723681A6912F080
:10168C00100F12D0DA6812F0100F0ED06FF010029B
:10169C001A61082323772368DB6913F4407F3DD05C
:1016AC002046FFF79EFF0023237723681A6912F068
:1016BC00010F03D0DA6812F0010F36D123681A69D2
:1016CC0012F0800F03D0DA6812F0800F34D1236847
:1016DC001A6912F0400F03D0DA6812F0400F32D1C1
:1016EC0023681A6912F0200F03D0DA6812F0200F69
:1016FC0030D110BDFFF774FF2046FFF773FF8AE768
:10170C002046FFF76DFF2046FFF76CFF9BE7204656
:10171C00FFF766FF2046FFF765FFACE72046FFF7B3
:10172C005FFF2046FFF75EFFBDE76FF001021A6115
:10173C002046FFF754FFC1E76FF080021A61204684
:10174C0000F027F9C3E76FF040021A612046FFF75B
:10175C004AFFC5E76FF020021A61204600F018F925
:10176C00C7E7000003681B4A90420AD0B0F1804FD3
:10177C0007D0A2F59432904203D002F580629042D9
:10178C0003D123F070034A681343124A90420AD0E3
:10179C00B0F1804F07D0A2F59432904203D002F5FD
:1017AC008062904203D123F44073CA68134323F040
:1017BC0080034A69134303608B68C3620B688362BE
:1017CC00044B984202D00123436170470B690363B9
:1017DC00F9E700BF002C014040B310B5044690F867
:1017EC003D30F3B1022384F83D30214651F8040B0F
:1017FC00FFF7B8FF012384F8463084F83E3084F8B4
:10180C003F3084F8403084F8413084F8423084F81A
:10181C00433084F8443084F8453084F83D3000205F
:10182C0010BD80F83C30FEF7F7FFDBE70120704776
:10183C0010B4846824F47F4C42EA03220A4342EA3F
:10184C000C02826010BC704790F83C30012B66D0C3
:10185C0010B50446012380F83C30022380F83D305B
:10186C000268936823F47F4323F0770393600B683B
:10187C00602B40D022D8402B47D00BD9502B0ED107
:10188C00CA6849680068FFF77DFE50212068FFF7A1
:10189C009EFE04E0202B0CD008D9302B09D001235C
:1018AC0084F83D30002084F83C0010BD0BB1102BA7
:1018BC00F5D119462068FFF78AFEF0E7702B0ED0A1
:1018CC00B3F5005FEBD1CB684A6889680068FFF715
:1018DC00AFFF2268936843F480439360DFE7CB68E3
:1018EC004A6889680068FFF7A3FF2268936843F091
:1018FC0077039360D3E7CA6849680068FFF754FE22
:10190C0060212068FFF763FEC9E7CA684968006870
:10191C00FFF738FE40212068FFF759FEBFE7022091
:10192C007047000090F83C30012B2CD010B40123F0
:10193C0080F83C30022380F83D3003685A689C687C
:10194C0022F0700C0A6842EA0C025A6003680F4AD3
:10195C0093420AD0B3F1804F07D0A2F59432934250
:10196C0003D002F58062934204D124F080044A68CB
:10197C0014439C60012380F83D30002380F83C30F8
:10198C00184610BC70470220704700BF002C014065
:10199C007047704710B504460268136923F440532E
:1019AC00C1680B43136183680269134342691A438C
:1019BC000168CB6823F4B05323F00C031343CB60C2
:1019CC000268536923F4407381690B4353610268C5
:1019DC00134B9A4220D0FFF78DFB024602EB82029A
:1019EC0002EB820263689B00B2FBF3F20D48A0FB92
:1019FC0002314909642303FB11231B013233A0FB81
:101A0C0003235B0903F0F00202EB011203F00F0356
:101A1C00216813448B6010BDFFF77CFB0246DDE7A9
:101A2C00003801401F85EB512DE9F84305460F4660
:101A3C0016469946DDF820802C68246837EA0403A2
:101A4C000CBF4FF0010C4FF0000CB4451FD1B8F196
:101A5C00FF3FF1D0B8F1000F05D0FFF71FF8A0EB56
:101A6C0009004045E8D92A68D36823F4D073D360C1
:101A7C002A68536923F001035361202385F83D3014
:101A8C0085F83E30002385F83C30032000E0002030
:101A9C00BDE8F88358B310B5044690F83D300BB34D
:101AAC00242384F83D302268D36823F40053D36098
:101ABC002046FFF76FFF2268136923F490431361EC
:101ACC002268536923F02A0353612268D36843F4D4
:101ADC000053D36000202064202384F83D3084F828
:101AEC003E3010BD80F83C30FEF7CEFED8E701202A
:101AFC0070472DE9F04182B01E4690F83D30DBB2C4
:101B0C00202B54D104460D469046002953D0002A70
:101B1C0053D090F83C30012B51D0012380F83C304D
:101B2C0000230364212380F83D30FEF7B7FF0746FE
:101B3C00A4F82480A4F82680A368B3F5805F05D0B0
:101B4C004FF00008002384F83C3012E0236913B1F5
:101B5C004FF00008F6E7A8460025F3E738F8023BFB
:101B6C002268C3F308035360E28C92B2013A92B23A
:101B7C00E284E38C9BB273B100963B460022802139
:101B8C002046FFF751FFE0B9002DE7D015F8012BE7
:101B9C0023685A60E8E700963B4600224021204625
:101BAC00FFF742FF78B9202384F83D3000E0022093
:101BBC0002B0BDE8F0810120FAE70120F8E702202D
:101BCC00F6E70320F4E70320F2E7704730B482B065
:101BDC000022019290F82420012A00F09180034603
:101BEC00012280F824204A68062A2DD80468606BEC
:101BFC0002EB8202053A4FF01F0C0CFA02FC20EAB1
:101C0C000C000D6805FA02F2024362630A68092AA5
:101C1C003AD91C68E06802EB42021E3A4FF0070CFE
:101C2C000CFA02FC20EA0C008D6805FA02F2024361
:101C3C00E2600A68103A012A36D90020002283F8A3
:101C4C00242002B030BC70470C2A0ED80568286BD3
:101C5C0002EB8202233A1F24944020EA04000C6811
:101C6C0004FA02F202432A63D0E70568E86A02EB41
:101C7C008202413A1F24944020EA04000C6804FAC2
:101C8C0002F20243EA62C1E71C68206902EB4202DD
:101C9C004FF0070C0CFA02FC20EA0C008D6805FAD8
:101CAC0002F202432261C4E71A681648824205D048
:101CBC009A6A42F020029A620120BFE7906810F401
:101CCC00000F1BD1906840F4000090600A68102A45
:101CDC0001D00020B2E70C4A12680C49A1FB021299
:101CEC00920C02EB82025200019202E0019A013A3C
:101CFC000192019A002AF9D100209FE700209DE76C
:101D0C0002209EE7002401400800002083DE1B43D4
:101D1C0038B503689A6812F0010F01D1002038BD64
:101D2C0004469A6822F001029A60FEF7B7FE054657
:101D3C0023689B6813F0010F13D0FEF7AFFE431B13
:101D4C00022BF5D923689B6813F0010FF0D0A36A1E
:101D5C0043F01003A362E36A43F00103E362012042
:101D6C00DDE70020DBE7000000287BD070B50446DF
:101D7C00836A002B4DD02046FFF7CAFFA36A13F0ED
:101D8C00100369D1002867D1A26A22F4885222F08C
:101D9C00020242F00202A2626268E1690A43217BFC
:101DAC0042EA4102A568B5F5807F02D0012D36D0FC
:101DBC001D46267D012E35D02668716821F46941B7
:101DCC00294371602568AE68274931401143A960E9
:101DDC00A168B1F5807F01D0012902D12369013BB3
:101DEC001B052568E96A21F470010B43EB6223683B
:101DFC0099681E4B0B409A4225D0A36A23F012031C
:101E0C0043F01003A362E36A43F00103E362012091
:101E1C0027E0C36280F82430FEF762FCABE74FF496
:101E2C008075C6E731B9A169013945EA413141F400
:101E3C000065C1E7A16A41F02001A162E16A41F0AD
:101E4C000101E162B8E70023E362A36A23F0030314
:101E5C0043F00103A36204E0A36A43F01003A362FE
:101E6C00012070BD01207047FDF7E1FFFE0E1FFF42
:101E7C00002800F0CC8070B5044690F83D30002B63
:101E8C0077D0242384F83D302268136823F00103B3
:101E9C0013602268136843F40043136022681368CC
:101EAC0023F400431360FFF725F962685A4B9A42FA
:101EBC0064D85A4B98428CBF00230123002B40F06E
:101ECC00A8805749A1FB00318B0C25686A6822F069
:101EDC003F0242EA91426A6021680A6A22F03F029C
:101EEC0066684D4DAE424FD8013313430B622168E7
:101EFC00CA6922F44F4222F0FF026668464B9E42AA
:101F0C004CD8431E7600B3FBF6F3013340F6FC705D
:101F1C00034278D0C3F30B031343CB6121680B68E6
:101F2C0023F0C003E269206A024313430B6021686B
:101F3C008B6823F4034323F0FF032269E068024318
:101F4C0013438B602168CB6823F0FF036269A0699F
:101F5C0002431343CB602268136843F00103136000
:101F6C0000202064202384F83D30206384F83E0058
:101F7C0070BD80F83C30FEF7E3FB82E7294B9842BA
:101F8C008CBF0023012399E74FF4967505FB03F3EF
:101F9C00254DA5FB03539B090133A6E7A368BBB9E9
:101FAC00451E06EB460CB5FBFCF50135C5F30B05E0
:101FBC00B5FA85F56D0945BBC3B9013806EB460387
:101FCC00B0FBF3F30133C3F30B0343F40043A3E778
:101FDC00451E06EB860C0CEB8C0CB5FBFCF50135A9
:101FEC00C5F30B05B5FA85F56D09E4E7013806EB89
:101FFC00860303EB8303B0FBF3F30133C3F30B034F
:10200C0043F4404388E7042386E7012384E7012057
:10201C0070470120ACE700BFA08601007F841E0042
:10202C0083DE1B43FF083D00D34D621040B338B52F
:10203C00044603684CF6CC421A60036845F25552CC
:10204C001A60036842685A60036882689A60FEF7F7
:10205C0025FD05462368DA6812F0030F0BD0FEF756
:10206C001DFD401B2728F5D92368DB6813F0030FEF
:10207C00F0D0032003E04AF6AA221A60002038BDF3
:10208C00012070470C480D490D4A002302E0D4583A
:10209C00C4500433C4188C42F9D30A4A0A4C0023A6
:1020AC0001E013600432A242FBD3FFF78EFDFEF772
:1020BC006BF8FEF7B5FA7047000000200C0000200A
:1020CC00402100080C000020E8010020FEE7000081
:1020DC00F8B500BFF8BC08BC9E467047F8B500BF09
:0820EC00F8BC08BC9E467047D9
:1020F40074657374206D6F64756C6F2064656275AC
:1021040067200D0A00000000020304050607080901
:102114000A0B0C0D0E0F1010000000000000000050
:102124000000000001020304060708090000000083
:04213400010203049D
:042138007501000825
:04213C004D01000849
:0C21400001000000100000000024F4006A
:04000005080020913E
:00000001FF
