:020000040800F2
:100000000050002065160008CD040008CF04000849
:10001000D1040008D3040008D50400080000000043
:10002000000000000000000000000000D7040008ED
:10003000D904000800000000DB040008DD0400080B
:10004000AD160008AD160008AD160008AD16000884
:10005000AD160008AD160008AD160008AD16000874
:10006000AD160008AD160008AD160008AD16000864
:10007000AD160008AD160008AD160008AD16000854
:10008000AD160008AD160008AD160008AD16000844
:10009000AD160008AD160008AD160008AD16000834
:1000A000AD160008AD160008AD160008AD16000824
:1000B000E5040008AD160008AD160008AD160008EE
:1000C000AD160008AD160008AD160008AD16000804
:1000D000AD160008AD160008AD160008AD160008F4
:1000E000AD160008AD160008AD16000800000000AF
:1000F0000000000000000000000000000000000000
:0C01000000000000000000005FF808F1A3
:10010C000348044B834202D0034B03B1184770479A
:10011C000C0000200C0000200000000005480649DF
:10012C000B1AD90F01EBA301491002D0034B03B1F9
:10013C00184770470C0000200C0000200000000045
:10014C0010B5064C237843B9FFF7DAFF044B13B113
:10015C000448AFF300800123237010BD0C00002075
:10016C0000000000B016000808B5044B1BB1044990
:10017C000448AFF30080BDE80840CFE70000000062
:10018C0010000020B016000870B50D4E0D4D761BFA
:10019C00B61006D0002455F8043B01349847A6420B
:1001AC00F9D1094E094D01F07DFA761BB61006D037
:1001BC00002455F8043B01349847A642F9D170BD90
:1001CC00F4160008F4160008F8160008F4160008D7
:1001DC00830730B548D0541E002A3FD00346CAB21C
:1001EC0001E0013C3AD303F8012B9D07F9D1032C14
:1001FC002DD9CDB245EA05250F2C45EA054536D952
:10020C00A4F1100222F00F0C03F1200EE6444FEA89
:10021C00121C03F1100242E9045542E90255103256
:10022C007245F8D10CF1010214F00C0F03EB021221
:10023C0004F00F0C13D0ACF1040323F003030433CC
:10024C00134442F8045B9342FBD10CF003042CB131
:10025C00CAB21C4403F8012B9C42FBD130BD64464E
:10026C001346002CF4D1F9E703461446BFE71A46AF
:10027C00A446E0E730B587B00024029403940494BC
:10028C000594184B9A6942F004029A619A6902F03B
:10029C0004020092009A9A6942F008029A619B69E2
:1002AC0003F008030193019B0F4D224604212846BD
:1002BC0000F0D4FE0423029301230393049402233D
:1002CC00059302A9284600F0B7FD4FF400430293B2
:1002DC00064B0393049402A9054800F0ADFD07B04A
:1002EC0030BD00BF00100240000C01400000111096
:1002FC000008014072B6FEE708B50D480D4B0360CF
:10030C004FF48273436000238360C36003614361D5
:10031C004FF4007282611022C261036243628362F5
:10032C000A23C36200F09CF900B908BDFFF7E2FF95
:10033C00280000200030014000B587B00023029354
:10034C00039304930593009301931348134A02609B
:10035C004FF47A7242608360C260036143618361CF
:10036C0001F022F890B94FF48053029302A90A4885
:10037C0001F052F860B900230093019369460648D6
:10038C0001F0B8F830B907B05DF804FBFFF7B2FF25
:10039C00FFF7B0FFFFF7AEFF80000020002C0140FC
:1003AC0000B587B000230293039304930593009345
:1003BC00019313484FF0804202604FF47A7242600E
:1003CC008360C2600361836100F0EEFF90B94FF46B
:1003DC008053029302A90A4801F01EF860B9002369
:1003EC00009301936946064801F084F830B907B0D0
:1003FC005DF804FBFFF77EFFFFF77CFFFFF77AFF4A
:10040C00C800002008B50A480A4B036048F2F07394
:10041C00436000238360C36003610C2242618361EB
:10042C00C36101F0E9F800B908BDFFF763FF00BF35
:10043C00100100200044004000B591B0282200219A
:10044C0006A8FFF7C5FE00230193029303930493C0
:10045C0005930223069301230A9310230B9306A8FA
:10046C0000F0CEF970B90F23019300210291A02363
:10047C0003930491059101A800F002FC20B911B07E
:10048C005DF804FBFFF736FFFFF734FF08B500F00B
:10049C0069F9FFF7D1FFFFF7EDFEFFF72DFFFFF72F
:1004AC004BFFFFF77DFFFFF7ADFF0421034800F082
:1004BC00DBFD4FF4FA6000F079F9F6E7000C01402F
:1004CC00FEE7FEE7FEE7FEE7FEE770477047704782
:1004DC0008B500F059F908BD08B5024800F06CFEEB
:1004EC0008BD00BFC800002082B00A4B9A6942F0D8
:1004FC0001029A619A6902F001020092009ADA698B
:10050C0042F08052DA61DB6903F080530193019B66
:10051C0002B070470010024010B586B00023029361
:10052C000393049305930268164B9A4201D006B0CC
:10053C0010BD03F560439A6942F480529A619A693E
:10054C0002F480520092009A9A6942F004029A6175
:10055C009B6903F004030193019BA02302930223E4
:10056C00039303230593084C02A9204600F064FC76
:10057C004023029300230393049302A9204600F026
:10058C005BFCD4E7003001400008014000B583B0AB
:10059C000368144A934205D0B3F1804F0DD003B0D9
:1005AC005DF804FB104B9A6942F400629A619B69F6
:1005BC0003F400630093009BF1E703F50433DA695D
:1005CC0042F00102DA61DB6903F001030193019B44
:1005DC00002211461C2000F063FD1C2000F098FD49
:1005EC00DDE700BF002C01400010024010B586B0C2
:1005FC00002302930393049305930268164B9A42CB
:10060C0001D006B010BD03F5E633DA6942F40032CE
:10061C00DA61DA6902F400320092009A9A6942F0C7
:10062C0004029A619B6903F004030193019B042368
:10063C0002930223039303230593084C02A920463B
:10064C0000F0FAFB0823029300230393049302A9FE
:10065C00204600F0F1FBD4E70044004000080140C4
:10066C00002856D010B50446436A33B94368B3F535
:10067C00827F05D00023C36102E000230361436144
:10068C000023A36294F85130002B3CD0022384F851
:10069C0051302268136823F040031360636803F43D
:1006AC008273A26802F404421343E26802F400620B
:1006BC001343226902F002021343626902F0010241
:1006CC001343A26902F400721343E26902F0380288
:1006DC001343226A02F080021343A26A02F400520E
:1006EC00216813430B60638B226803F0040353608F
:1006FC002268D36923F40063D36100206065012371
:10070C0084F8513010BD84F850302046FFF704FFB8
:10071C00BCE701207047000010B504460E4B18785A
:10072C004FF47A73B3FBF0F30C4A1068B0FBF3F0A0
:10073C0000F0FCFC68B90F2C01D901200AE0002262
:10074C0021464FF0FF3000F0ABFC054B1C60002045
:10075C0000E0012010BD00BF0000002008000020B8
:10076C000400002008B5074A136843F01003136017
:10077C00032000F083FC0F20FFF7CEFFFFF7B4FE41
:10078C00002008BD00200240034A1168034B1B786F
:10079C000B441360704700BF540100200000002080
:1007AC00014B1868704700BF5401002038B504464F
:1007BC00FFF7F6FF0546B4F1FF3F02D0044B1B7860
:1007CC001C44FFF7EDFF401BA042FAD338BD00BF1D
:1007DC000000002082B0084B1B68084AA2FB0323D0
:1007EC005B0A00FB03F3019300BF019B5A1E0192AD
:1007FC00002BF9D102B0704708000020D34D6210D5
:10080C00002800F0F18170B582B00446036813F043
:10081C00010F2CD0994B5B6803F00C03042B1DD0FB
:10082C00964B5B6803F00C03082B12D06368B3F58E
:10083C00803F41D0002B55D103F1804303F50433A5
:10084C001A6822F480321A601A6822F480221A6024
:10085C0037E08A4B5B6813F4803FE7D0874B1B680B
:10086C0013F4003F03D06368002B00F0BF812368B2
:10087C0013F0020F75D0814B5B6813F00C0F5FD037
:10088C007E4B5B6803F00C03082B54D02369002BC0
:10089C0000F08A807A4B01221A60FFF781FF05462F
:1008AC00764B1B6813F0020F75D1FFF779FF401BD5
:1008BC000228F5D903209EE1704A136843F4803373
:1008CC001360636843B3FFF76BFF05466B4B1B6804
:1008DC0013F4003FCBD1FFF763FF401B6428F5D91D
:1008EC00032088E1B3F5A02F09D0644B1A6822F4D9
:1008FC0080321A601A6822F480221A60E1E703F150
:10090C008043A3F53C331A6842F480221A601A68BB
:10091C0042F480321A60D4E7FFF742FF0546574B8A
:10092C001B6813F4003FA2D0FFF73AFF401B64286A
:10093C00F5D903205FE1514B5B6813F4803FA5D1DF
:10094C004E4B1B6813F0020F03D02369012B40F0B0
:10095C004F814A4A136823F0F803616943EAC103E3
:10096C001360236813F0080F33D0A369002B5CD0FD
:10097C00434B0122C3F88024FFF712FF05463F4B7F
:10098C005B6A13F0020F21D1FFF70AFF401B02280C
:10099C00F5D903202FE1394A136823F0F803616974
:1009AC0043EAC1031360DCE7354B00221A60FFF702
:1009BC00F7FE0546314B1B6813F0020FD1D0FFF741
:1009CC00EFFE401B0228F5D9032014E10120FFF7AC
:1009DC0001FF236813F0040F00F09680274BDB69AE
:1009EC0013F0805F34D1254BDA6942F08052DA6122
:1009FC00DB6903F080530193019B0125214B1B689C
:100A0C0013F4807F26D0E368012B3DD0002B53D10B
:100A1C0003F1804303F504331A6A22F001021A62CF
:100A2C001A6A22F004021A6233E0154B0022C3F852
:100A3C008024FFF7B5FE0546104B5B6A13F0020FDE
:100A4C00C7D0FFF7ADFE401B0228F5D90320D2E03A
:100A5C000025D3E70B4A136843F480731360FFF748
:100A6C009FFE0646074B1B6813F4807FCBD1FFF724
:100A7C0097FE801B6428F5D90320BCE000100240CF
:100A8C0000004242007000405F4A136A43F00103C9
:100A9C001362E36833B3FFF783FE06465A4B1B6AB7
:100AAC0013F0020F2FD1FFF77BFE801B41F288332E
:100ABC009842F3D903209EE0052B09D0524B1A6AB9
:100ACC0022F001021A621A6A22F004021A62E0E7AA
:100ADC004D4B1A6A42F004021A621A6A42F0010281
:100AEC001A62D6E7FFF75CFE0646474B1B6A13F00B
:100AFC00020F08D0FFF754FE801B41F28833984256
:100B0C00F3D9032077E0E5B9E369002B72D03E4AB4
:100B1C00526802F00C02082A56D0022B17D03B4B1D
:100B2C0000221A66FFF73CFE0446374B1B6813F095
:100B3C00007F47D0FFF734FE001B0228F5D90320B5
:100B4C0059E0314AD36923F08053D361DCE72F4B52
:100B5C0000221A66FFF724FE05462B4B1B6813F088
:100B6C00007F06D0FFF71CFE401B0228F5D903209E
:100B7C0041E0236AB3F5803F1AD023494B6823F434
:100B8C007413226A606A024313434B601F4B0122A9
:100B9C001A66FFF705FE04461B4B1B6813F0007F1B
:100BAC000ED1FFF7FDFD001B0228F5D9032022E032
:100BBC00154A536823F40033A1680B435360DCE7F8
:100BCC00002018E0002016E0012B16D00E4B5B68BD
:100BDC0003F48031226A914211D103F47013626ADA
:100BEC0093420ED1002006E001207047012002E064
:100BFC00012000E0002002B070BD0120FBE70120C5
:100C0C00F9E70120F7E700BF001002400000424264
:100C1C0086B0174B0FCB0DF1180C0CE90F0040F2FE
:100C2C000123ADF80430134B5B6803F00C02082A67
:100C3C0002D0114806B07047C3F3834218326A449D
:100C4C0012F8100C13F4803F0DD00A4B5B68C3F301
:100C5C00404318336B4413F8143C074A02FB00F072
:100C6C00B0FBF3F0E6E7054B03FB00F0E2E700BF57
:100C7C00C81600080010024000127A0000093D005E
:100C8C00002800F0A08070B50D460446524B1B683E
:100C9C0003F007038B420BD24F4A136823F0070370
:100CAC000B431360136803F007038B4240F08D80F5
:100CBC00236813F0020F17D013F0040F04D0474A27
:100CCC00536843F4E0635360236813F0080F04D0B7
:100CDC00424A536843F460535360404A536823F0CC
:100CEC00F003A1680B435360236813F0010F31D05C
:100CFC006368012B20D0022B25D0384A126812F0E1
:100D0C00020F64D035494A6822F0030213434B604A
:100D1C00FFF746FD0646314B5B6803F00C03626837
:100D2C00B3EB820F16D0FFF73BFD801B41F28833EB
:100D3C009842F0D9032045E0284A126812F4003F8B
:100D4C00E0D101203EE0254A126812F0007FD9D193
:100D5C00012037E0204B1B6803F00703AB420AD994
:100D6C001D4A136823F007032B431360136803F029
:100D7C000703AB422DD1236813F0040F06D0174A9A
:100D8C00536823F4E063E1680B435360236813F06A
:100D9C00080F07D0114A536823F46053216943EAC2
:100DAC00C1035360FFF734FF0C4B5B68C3F30313B1
:100DBC000B4AD35CD8400B4B18600B4B1868FFF7F1
:100DCC00ABFC002070BD012070470120FAE7012028
:100DDC00F8E70120F6E700BF0020024000100240B7
:100DEC00DC1600080800002004000020014B1868E5
:100DFC00704700BF0800002008B5FFF7F7FF044B51
:100E0C005B68C3F30223034AD35CD84008BD00BF20
:100E1C0000100240EC16000808B5FFF7E7FF044B82
:100E2C005B68C3F3C223034AD35CD84008BD00BF40
:100E3C0000100240EC16000870B582B00024A446E5
:100E4C00A6E0804DAA4210D007D97F4DAA420CD003
:100E5C0005F58035AA4208D013E0A5F58015AA4205
:100E6C0003D005F57025AA4207D18A68002A58D00C
:100E7C00012A51D04361082403E0A5F58015AA424C
:100E8C00F3D0BEF1FF0F4ED80646BEF1FF0F4CD883
:100E9C004FEA8C0233680F25954023EA050304FAC8
:100EAC0002F2134333604B6813F0805F6ED0674BD4
:100EBC009A6942F001029A619B6903F00103019364
:100ECC00019B4FEA9C02951C614B53F825600CF07A
:100EDC0003039D000F23AB4026EA03065D4B9842AB
:100EEC0029D003F58063984200F08E8003F580636F
:100EFC00984200F08B8003F58063984219D004234C
:100F0C001AE0CC68BDE7CC680434BAE7CC68083486
:100F1C00B7E7CC680C34B4E703610824B1E70024CC
:100F2C00AFE70424ADE7061DAFE7ACF10802920071
:100F3C00B0E7032300E00023AB4033430232444DBF
:100F4C0045F822304B6813F4803F61D0424A136855
:100F5C0043EA0E0313604B6813F4003F5ED03E4A25
:100F6C00536843EA0E0353604B6813F4801F5BD045
:100F7C00394A936843EA0E0393604B6813F4001FDD
:100F8C0058D0354AD36843EA0E03D3600CF1010CF8
:100F9C000A6832FA0CF353D0012303FA0CF302EA79
:100FAC00030E33EA0202F1D14A68122A3FF649AF26
:100FBC00122A3FF666AF01A555F822F0770E00080D
:100FCC000F0F0008190F00082B0F00088F0E0008D8
:100FDC008F0E00088F0E00088F0E00088F0E000871
:100FEC008F0E00088F0E00088F0E00088F0E000861
:100FFC008F0E00088F0E00088F0E00088F0E000851
:10100C00130F00081F0F0008012395E7022393E735
:10101C00114A136823EA0E0313609CE70E4A5368C7
:10102C0023EA0E0353609FE70B4A936823EA0E03EF
:10103C009360A2E7084AD36823EA0E03D360A5E7BE
:10104C0002B070BD000022100000311000100240F0
:10105C000000014000080140000401400AB1016198
:10106C007047090401617047C36801EA030221EA71
:10107C00030141EA0241016170470000074AD3684D
:10108C0023F4E0631B041B0C000200F4E060034338
:10109C0043F0BF6343F40033D360704700ED00E0CE
:1010AC0000B5194BDB68C3F30223C3F1070CBCF189
:1010BC00040F28BF4FF0040C03F1040EBEF1060F11
:1010CC0018D9033B4FF0FF3E0EFA0CFC21EA0C0141
:1010DC0099400EFA03F322EA0303194300280BDBB1
:1010EC000901C9B200F1604000F5614080F80013BD
:1010FC005DF804FB0023E5E700F00F000901C9B21D
:10110C00024B1954F4E700BF00ED00E014ED00E0D1
:10111C00002807DB00F01F02400901239340024A1C
:10112C0042F82030704700BF00E100E00138B0F118
:10113C00807F0BD24FF0E0235861054AF02182F8F2
:10114C0023100020986107221A6170470120704714
:10115C0000ED00E010B4036A046A24F00104046298
:10116C00846924F0F00C4CEA021223F00A030B43BE
:10117C008261036210BC704710B4046A24F010043E
:10118C0004628469036A24F4704C4CEA023223F042
:10119C00A00343EA01138261036210BC70478368A9
:1011AC0023F070030B4343F00703836070477047D1
:1011BC00704770477047704710B5044603681A694A
:1011CC0012F0020F11D0DA6812F0020F0DD06FF08E
:1011DC0002021A610123037703689B6913F0030F62
:1011EC0070D0FFF7E6FF0023237723681A6912F00B
:1011FC00040F12D0DA6812F0040F0ED06FF0040254
:10120C001A610223237723689B6913F4407F5FD014
:10121C002046FFF7CEFF0023237723681A6912F0CC
:10122C00080F12D0DA6812F0080F0ED06FF0080217
:10123C001A61042323772368DB6913F0030F4ED064
:10124C002046FFF7B6FF0023237723681A6912F0B4
:10125C00100F12D0DA6812F0100F0ED06FF01002CF
:10126C001A61082323772368DB6913F4407F3DD090
:10127C002046FFF79EFF0023237723681A6912F09C
:10128C00010F03D0DA6812F0010F36D123681A6906
:10129C0012F0800F03D0DA6812F0800F34D123687B
:1012AC001A6912F0400F03D0DA6812F0400F32D1F5
:1012BC0023681A6912F0200F03D0DA6812F0200F9D
:1012CC0030D110BDFFF774FF2046FFF773FF8AE79C
:1012DC002046FFF76DFF2046FFF76CFF9BE720468B
:1012EC00FFF766FF2046FFF765FFACE72046FFF7E8
:1012FC005FFF2046FFF75EFFBDE76FF001021A614A
:10130C002046FFF754FFC1E76FF080021A612046B8
:10131C0000F027F9C3E76FF040021A612046FFF78F
:10132C004AFFC5E76FF020021A61204600F018F959
:10133C00C7E7000003681B4A90420AD0B0F1804F07
:10134C0007D0A2F59432904203D002F5806290420D
:10135C0003D123F070034A681343124A90420AD017
:10136C00B0F1804F07D0A2F59432904203D002F531
:10137C008062904203D123F44073CA68134323F074
:10138C0080034A69134303608B68C3620B688362F2
:10139C00044B984202D00123436170470B690363ED
:1013AC00F9E700BF002C014040B310B5044690F89B
:1013BC003D30F3B1022384F83D30214651F8040B43
:1013CC00FFF7B8FF012384F8463084F83E3084F8E8
:1013DC003F3084F8403084F8413084F8423084F84F
:1013EC00433084F8443084F8453084F83D30002094
:1013FC0010BD80F83C30FFF7C9F8DBE701207047DF
:10140C0010B4846824F47F4C42EA03220A4342EA73
:10141C000C02826010BC704790F83C30012B66D0F7
:10142C0010B50446012380F83C30022380F83D308F
:10143C000268936823F47F4323F0770393600B686F
:10144C00602B40D022D8402B47D00BD9502B0ED13B
:10145C00CA6849680068FFF77DFE50212068FFF7D5
:10146C009EFE04E0202B0CD008D9302B09D0012390
:10147C0084F83D30002084F83C0010BD0BB1102BDB
:10148C00F5D119462068FFF78AFEF0E7702B0ED0D5
:10149C00B3F5005FEBD1CB684A6889680068FFF749
:1014AC00AFFF2268936843F480439360DFE7CB6817
:1014BC004A6889680068FFF7A3FF2268936843F0C5
:1014CC0077039360D3E7CA6849680068FFF754FE56
:1014DC0060212068FFF763FEC9E7CA6849680068A5
:1014EC00FFF738FE40212068FFF759FEBFE70220C6
:1014FC007047000090F83C30012B2CD010B4012325
:10150C0080F83C30022380F83D3003685A689C68B0
:10151C0022F0700C0A6842EA0C025A6003680F4A07
:10152C0093420AD0B3F1804F07D0A2F59432934284
:10153C0003D002F58062934204D124F080044A68FF
:10154C0014439C60012380F83D30002380F83C302C
:10155C00184610BC70470220704700BF002C014099
:10156C007047704710B504460268136923F4405362
:10157C00C1680B43136183680269134342691A43C0
:10158C000168CB6823F4B05323F00C031343CB60F6
:10159C000268536923F4407381690B4353610268F9
:1015AC00134B9A4220D0FFF727FC024602EB820233
:1015BC0002EB820263689B00B2FBF3F20D48A0FBC6
:1015CC0002314909642303FB11231B013233A0FBB5
:1015DC0003235B0903F0F00202EB011203F00F038B
:1015EC00216813448B6010BDFFF716FC0246DDE743
:1015FC00003801401F85EB5158B310B5044690F8E4
:10160C003D300BB3242384F83D302268D36823F497
:10161C000053D3602046FFF7A5FF2268136923F41B
:10162C00904313612268536923F02A0353612268A3
:10163C00D36843F40053D36000202064202384F843
:10164C003D3084F83E3010BD80F83C30FEF7CEFFC4
:10165C00D8E70120704770470C480D490D4A00230C
:10166C0002E0D458C4500433C4188C42F9D30A4A4B
:10167C000A4C002301E013600432A242FBD3FFF7B3
:10168C00EAFFFEF781FDFEF701FF70470000002026
:10169C000C000020FC1600080C0000205801002053
:1016AC00FEE70000F8B500BFF8BC08BC9E467047CA
:0C16BC00F8B500BFF8BC08BC9E467047A3
:1016C80002030405060708090A0B0C0D0E0F10107B
:1016D80000000000000000000000000001020304F8
:0C16E800060708090000000001020304CE
:0416F4007501000874
:0416F8004D01000898
:0C16FC0001000000100000000024F400B9
:040000050800166574
:00000001FF
