:020000040800F2
:100000000050002051190008A5080008A7080008A2
:10001000A9080008AB080008AD08000800000000AF
:10002000000000000000000000000000AF08000811
:10003000B108000800000000B3080008B508000877
:100040009919000899190008991900080108000871
:1000500099190008991900089919000899190008B8
:1000600099190008991900089919000899190008A8
:100070009919000899190008991900089919000898
:100080009919000899190008991900089919000888
:100090009919000899190008991900089919000878
:1000A00099190008590300089919000899190008BE
:1000B000991900086903000899190008991900089E
:1000C0009919000899190008991900089919000848
:1000D0009919000899190008991900089919000838
:1000E000E1040008991900089919000800000000AF
:1000F0000000000000000000000000000000000000
:0C01000000000000000000005FF808F1A3
:10010C000348044B834202D0034B03B1184770479A
:10011C000C0000200C0000200000000005480649DF
:10012C000B1AD90F01EBA301491002D0034B03B1F9
:10013C00184770470C0000200C0000200000000045
:10014C0010B5064C237843B9FFF7DAFF044B13B113
:10015C000448AFF300800123237010BD0C00002075
:10016C00000000009C19000808B5044B1BB10449A1
:10017C000448AFF30080BDE80840CFE70000000062
:10018C00100000209C19000870B50D4E0D4D761B0B
:10019C00B61006D0002455F8043B01349847A6420B
:1001AC00F9D1094E094D01F0F3FB761BB61006D0C0
:1001BC00002455F8043B01349847A642F9D170BD90
:1001CC00981A0008981A00089C1A0008981A000837
:1001DC00830730B548D0541E002A3FD00346CAB21C
:1001EC0001E0013C3AD303F8012B9D07F9D1032C14
:1001FC002DD9CDB245EA05250F2C45EA054536D952
:10020C00A4F1100222F00F0C03F1200EE6444FEA89
:10021C00121C03F1100242E9045542E90255103256
:10022C007245F8D10CF1010214F00C0F03EB021221
:10023C0004F00F0C13D0ACF1040323F003030433CC
:10024C00134442F8045B9342FBD10CF003042CB131
:10025C00CAB21C4403F8012B9C42FBD130BD64464E
:10026C001346002CF4D1F9E703461446BFE71A46AF
:10027C00A446E0E720F0030110F00300C0F10000F9
:10028C0051F8043B00F1040C4FEACC0C6FF0000267
:10029C001CBF22FA0CF213434FF0010C4CEA0C2C4D
:1002AC004CEA0C4CA3EB0C0222EA030212EACC122D
:1002BC0004BF51F8043B0430F4D0C2F1000102EA4F
:1002CC000102B2FA82F2C2F11F0200EBD2007047B7
:1002DC00A2B330B540EA0104A40786460B462AD0E7
:1002EC0004780B78A3422FD1012A0CD0844654B148
:1002FC001CF8014F11F8013F9C4225D16FEA0C0309
:10030C001344C318F3D1002030BD1946DEF8004069
:10031C007046A4F1013323EA040C0B4653F8045B3A
:10032C000EF1040EAC420BD1043AECD01CF0803F21
:10033C00E9D170461946032AE7D8D1E71046704731
:10034C0004780B789C42D1D0E01A30BD08B5024835
:10035C0001F085F808BD00BF2800002008B5024850
:10036C0001F07DF808BD00BF7000002010B594B0FE
:10037C000446282200210DEB0200FFF729FF002381
:10038C0005930693079308930993019302930393A0
:10039C0004930A230A9301230E9310220F921093B5
:1003AC000AA800F01BFBB8B90F2305930021069196
:1003BC0007940891099105A800F050FD78B9032322
:1003CC0001934FF4007302930023039301A800F0F0
:1003DC0021FE38B914B010BD00F05CFAE4E700F06F
:1003EC0059FAECE700F056FAF4E700002DE9F04179
:1003FC0088B000240494059406940794314B9A69B0
:10040C0042F010029A619A6902F010020092009A6E
:10041C009A6942F020029A619A6902F020020192D4
:10042C00019A9A6942F004029A619A6902F00402F4
:10043C000292029A9A6942F008029A619B6903F04F
:10044C0008030393039B204D224641F210012846DA
:10045C0000F07EFF1D4F224642F20411384600F098
:10046C0077FF41F2100304930126059606944FF092
:10047C000208CDF81C8004A9284600F057FE42F271
:10048C000413049305960694CDF81C8004A93846F1
:10049C0000F04CFE4FF4004304930D4B059306966D
:1004AC000323079304A9284600F040FE2246214668
:1004BC00282000F075FF282000F0AAFF08B0BDE846
:1004CC00F08100BF0010024000080140000C014008
:1004DC000000211008B54FF4004000F041FF08BDAA
:1004EC0008B50A480A4B03604FF4E133436000231C
:1004FC008360C36003610C2242618361C36101F0BC
:10050C00EDF800B908BD00F0C5F9FBE7B800002014
:10051C000038014008B50A480A4B03604FF4964373
:10052C00436000238360C36003610C2242618361DA
:10053C00C36101F0D3F800B908BD00F0ABF9FBE7DB
:10054C00FC0000200044004010B588B00023049348
:10055C0005930693079303682C4A934204D02C4AC4
:10056C0093422BD008B010BD2A4B9A6942F48042BA
:10057C009A619A6902F480420092009A9A6942F058
:10058C0004029A619B6903F004030193019B4FF4ED
:10059C000073049302230593032307931E4C04A9B1
:1005AC00204600F0C3FD4FF48063049300230593B1
:1005BC00069304A9204600F0B9FDD3E7154BDA6980
:1005CC0042F40032DA61DA6902F400320292029AE1
:1005DC009A6942F004029A619B6903F00403039345
:1005EC00039B0423049302230593032307930A4CD0
:1005FC0004A9204600F09AFD0823049300230593D8
:10060C00069304A9204600F091FDABE700380140A9
:10061C0000440040001002400008014070B5B2B028
:10062C00C8B10546FFF726FE04460C4E3046FFF7D0
:10063C0021FE001B224629463044FFF749FEB0FA42
:10064C0080F4640900210091C42201A8FFF7C0FDC9
:10065C00204632B070BD0024FAE700BF40010020F4
:10066C0010B5074C01221021204600F071FE01222A
:10067C004FF48051204600F06BFEFFF731FF10BDA8
:10068C000008014010B5064C00221021204600F055
:10069C005FFE00224FF48051204600F059FE10BD41
:1006AC00000801402DE9F84304460E4615461F4646
:1006BC0003BB1FBB2046FFF7DDFDDFF858802B4640
:1006CC0082B22146404601F038F8134C4FF0FF0936
:1006DC004A4600212046FFF77BFD2B464A46214621
:1006EC00404601F096F86FB987B93046FFF796FF90
:1006FC00BDE8F883094800F06FF8DAE7204600F00F
:10070C006BF8D7E7204600F067F8EDE7044800F0F7
:10071C0063F8EAE7B800002040010020B419000893
:10072C00B819000808B503E040F6C41000F02CF925
:10073C0000234FF47A7203490348FFF7B3FF0028F4
:10074C00F2D008BDBC190008C419000808B503E0B4
:10075C0040F6C41000F018F900234FF47A720349E4
:10076C000348FFF79FFF0028F2D008BDBC19000812
:10077C00CC19000808B501234FF47A7202490348DA
:10078C00FFF790FF08BD00BFBC190008D419000882
:10079C0008B501234FF47A7202490348FFF782FF30
:1007AC0008BD00BFBC190008E419000808B50123F6
:1007BC004FF47A7202490348FFF774FF08BD00BF7B
:1007CC00BC190008F41900080048704740010020CB
:1007DC0008B5FFF79FFE08BD10B50446FFF74AFDAC
:1007EC004FF4FA7382B22146014800F0A6FF10BD07
:1007FC00FC00002008B5024801F080F808BD00BFDD
:10080C004002002008B500F09BF80020FFF7AEFD79
:10081C00FFF7ECFDFFF7DCFFFFF722FF1848FFF7AF
:10082C00DBFF44F6206000F0AFF8FFF78FFFFFF717
:10083C0079FF1448FFF7D0FFFFF79CFFFFF7A8FFE5
:10084C004CF2503000F0A0F864210F48FFF7AEFFD7
:10085C00FFF7BAFFFFF7C0FF0C48FFF7BDFFFFF72C
:10086C0011FF46F2A81000F08FF8FFF7F9FE0848C8
:10087C00FFF7B2FFFFF76AFFFFF754FFD9E700BF9E
:10088C00041A0008181A000854020020301A000834
:10089C004C1A000872B6FEE7FEE7FEE7FEE7FEE73D
:1008AC00FEE770477047704708B500F05BF808BD6D
:1008BC0082B00E4B9A6942F001029A619A6902F079
:1008CC0001020092009ADA6942F08052DA61DB6927
:1008DC0003F080530193019B054A536823F0E063B6
:1008EC0043F00073536002B0704700BF0010024029
:1008FC000000014010B504460E4B18784FF47A7383
:10090C00B3FBF0F30C4A1068B0FBF3F000F08EFD73
:10091C0068B90F2C01D901200AE0002221464FF0C2
:10092C00FF3000F03DFD054B1C60002000E0012075
:10093C0010BD00BF000000200800002004000020B3
:10094C0008B5074A136843F010031360032000F046
:10095C0015FD0F20FFF7CEFFFFF7AAFF002008BD03
:10096C0000200240034A1168034B1B780B441360B0
:10097C00704700BFB802002000000020014B18682F
:10098C00704700BFB802002038B50446FFF7F6FFE9
:10099C000546B4F1FF3F02D0044B1B781C44FFF713
:1009AC00EDFF401BA042FAD338BD00BF0000002071
:1009BC0082B0084B1B68084AA2FB03235B0A00FBAE
:1009CC0003F3019300BF019B5A1E0192002BF9D136
:1009DC0002B0704708000020D34D6210002800F0D0
:1009EC00F18170B582B00446036813F0010F2CD06E
:1009FC00994B5B6803F00C03042B1DD0964B5B6882
:100A0C0003F00C03082B12D06368B3F5803F41D080
:100A1C00002B55D103F1804303F504331A6822F4FB
:100A2C0080321A601A6822F480221A6037E08A4BEE
:100A3C005B6813F4803FE7D0874B1B6813F4003FCF
:100A4C0003D06368002B00F0BF81236813F0020F02
:100A5C0075D0814B5B6813F00C0F5FD07E4B5B68DD
:100A6C0003F00C03082B54D02369002B00F08A8070
:100A7C007A4B01221A60FFF781FF0546764B1B6803
:100A8C0013F0020F75D1FFF779FF401B0228F5D93F
:100A9C0003209EE1704A136843F48033136063684B
:100AAC0043B3FFF76BFF05466B4B1B6813F4003F1A
:100ABC00CBD1FFF763FF401B6428F5D9032088E1F5
:100ACC00B3F5A02F09D0644B1A6822F480321A6057
:100ADC001A6822F480221A60E1E703F18043A3F53F
:100AEC003C331A6842F480221A601A6842F480324D
:100AFC001A60D4E7FFF742FF0546574B1B6813F407
:100B0C00003FA2D0FFF73AFF401B6428F5D9032021
:100B1C005FE1514B5B6813F4803FA5D14E4B1B68D2
:100B2C0013F0020F03D02369012B40F04F814A4A86
:100B3C00136823F0F803616943EAC1031360236867
:100B4C0013F0080F33D0A369002B5CD0434B012268
:100B5C00C3F88024FFF712FF05463F4B5B6A13F086
:100B6C00020F21D1FFF70AFF401B0228F5D9032001
:100B7C002FE1394A136823F0F803616943EAC10392
:100B8C001360DCE7354B00221A60FFF7F7FE0546D1
:100B9C00314B1B6813F0020FD1D0FFF7EFFE401B57
:100BAC000228F5D9032014E10120FFF701FF236887
:100BBC0013F0040F00F09680274BDB6913F0805F75
:100BCC0034D1254BDA6942F08052DA61DB6903F0EB
:100BDC0080530193019B0125214B1B6813F4807FEB
:100BEC0026D0E368012B3DD0002B53D103F1804379
:100BFC0003F504331A6A22F001021A621A6A22F00F
:100C0C0004021A6233E0154B0022C3F88024FFF76C
:100C1C00B5FE0546104B5B6A13F0020FC7D0FFF709
:100C2C00ADFE401B0228F5D90320D2E00025D3E706
:100C3C000B4A136843F480731360FFF79FFE06465C
:100C4C00074B1B6813F4807FCBD1FFF797FE801BFB
:100C5C006428F5D90320BCE0001002400000424299
:100C6C00007000405F4A136A43F001031362E368AB
:100C7C0033B3FFF783FE06465A4B1B6A13F0020F81
:100C8C002FD1FFF77BFE801B41F288339842F3D9BA
:100C9C0003209EE0052B09D0524B1A6A22F0010268
:100CAC001A621A6A22F004021A62E0E74D4B1A6AC1
:100CBC0042F004021A621A6A42F001021A62D6E782
:100CCC00FFF75CFE0646474B1B6A13F0020F08D079
:100CDC00FFF754FE801B41F288339842F3D903206E
:100CEC0077E0E5B9E369002B72D03E4A526802F016
:100CFC000C02082A56D0022B17D03B4B00221A6646
:100D0C00FFF73CFE0446374B1B6813F0007F47D0BF
:100D1C00FFF734FE001B0228F5D9032059E0314AB5
:100D2C00D36923F08053D361DCE72F4B00221A6682
:100D3C00FFF724FE05462B4B1B6813F0007F06D0F3
:100D4C00FFF71CFE401B0228F5D9032041E0236A63
:100D5C00B3F5803F1AD023494B6823F47413226AED
:100D6C00606A024313434B601F4B01221A66FFF764
:100D7C0005FE04461B4B1B6813F0007F0ED1FFF7DA
:100D8C00FDFD001B0228F5D9032022E0154A53680B
:100D9C0023F40033A1680B435360DCE7002018E018
:100DAC00002016E0012B16D00E4B5B6803F480314B
:100DBC00226A914211D103F47013626A93420ED1EC
:100DCC00002006E001207047012002E0012000E035
:100DDC00002002B070BD0120FBE70120F9E70120E3
:100DEC00F7E700BF001002400000424286B0174BEC
:100DFC000FCB0DF1180C0CE90F0040F20123ADF8EC
:100E0C000430134B5B6803F00C02082A02D0114823
:100E1C0006B07047C3F3834218326A4412F8100CC0
:100E2C0013F4803F0DD00A4B5B68C3F34043183377
:100E3C006B4413F8143C074A02FB00F0B0FBF3F0D0
:100E4C00E6E7054B03FB00F0E2E700BF6C1A000875
:100E5C000010024000127A0000093D00002800F04A
:100E6C00A08070B50D460446524B1B6803F0070377
:100E7C008B420BD24F4A136823F007030B431360CA
:100E8C00136803F007038B4240F08D80236813F046
:100E9C00020F17D013F0040F04D0474A536843F4E1
:100EAC00E0635360236813F0080F04D0424A536880
:100EBC0043F460535360404A536823F0F003A16835
:100ECC000B435360236813F0010F31D06368012B7F
:100EDC0020D0022B25D0384A126812F0020F64D0B1
:100EEC0035494A6822F0030213434B60FFF746FD75
:100EFC000646314B5B6803F00C036268B3EB820F60
:100F0C0016D0FFF73BFD801B41F288339842F0D995
:100F1C00032045E0284A126812F4003FE0D101207A
:100F2C003EE0254A126812F0007FD9D1012037E04B
:100F3C00204B1B6803F00703AB420AD91D4A136808
:100F4C0023F007032B431360136803F00703AB4232
:100F5C002DD1236813F0040F06D0174A536823F4DD
:100F6C00E063E1680B435360236813F0080F07D06C
:100F7C00114A536823F46053216943EAC103536057
:100F8C00FFF734FF0C4B5B68C3F303130B4AD35CC2
:100F9C00D8400B4B18600B4B1868FFF7ABFC0020CC
:100FAC0070BD012070470120FAE70120F8E701200D
:100FBC00F6E700BF0020024000100240801A000833
:100FCC000800002004000020014B1868704700BF87
:100FDC000800002008B5FFF7F7FF044B5B68C3F36C
:100FEC000223034AD35CD84008BD00BF0010024066
:100FFC00901A000808B5FFF7E7FF044B5B68C3F3D2
:10100C00C223034AD35CD84008BD00BF0010024085
:10101C00901A000870B582B00446036813F0010FF3
:10102C0036D03F4BDB6913F0805F49D13C4BDA691A
:10103C0042F08052DA61DB6903F080530193019B2B
:10104C000125384B1B6813F4807F3BD0344B1B6A53
:10105C0013F4407313D0626802F440729A420ED0BB
:10106C002F4A136A23F440702F490126C1F84064BB
:10107C000026C1F84064106213F0010F36D1284AE3
:10108C00136A23F4407361680B431362002D3ED145
:10109C00236813F0020F06D0214A536823F440430F
:1010AC00A1680B435360236813F0100F34D01C4A13
:1010BC00536823F48003E1680B43536000202CE059
:1010CC000025BEE7174A136843F480731360FFF7DB
:1010DC0055FC0646134B1B6813F4807FB6D1FFF703
:1010EC004DFC801B6428F5D9032016E0FFF746FC65
:1010FC0006460B4B1B6A13F0020FC0D1FFF73EFCE8
:10110C00801B41F288339842F3D9032005E0D36960
:10111C0023F08053D361BBE7002002B070BD00BF49
:10112C0000100240007000400000424270B582B0D6
:10113C000024A446A6E0804DAA4210D007D97F4DCA
:10114C00AA420CD005F58035AA4208D013E0A5F5CB
:10115C008015AA4203D005F57025AA4207D18A68EA
:10116C00002A58D0012A51D04361082403E0A5F588
:10117C008015AA42F3D0BEF1FF0F4ED80646BEF141
:10118C00FF0F4CD84FEA8C0233680F25954023EAA9
:10119C00050304FA02F2134333604B6813F0805FCB
:1011AC006ED0674B9A6942F001029A619B6903F019
:1011BC0001030193019B4FEA9C02951C614B53F870
:1011CC0025600CF003039D000F23AB4026EA0306B9
:1011DC005D4B984229D003F58063984200F08E80D5
:1011EC0003F58063984200F08B8003F5806398428E
:1011FC0019D004231AE0CC68BDE7CC680434BAE7F4
:10120C00CC680834B7E7CC680C34B4E70361082425
:10121C00B1E70024AFE70424ADE7061DAFE7ACF15E
:10122C0008029200B0E7032300E00023AB403343F5
:10123C000232444D45F822304B6813F4803F61D0A4
:10124C00424A136843EA0E0313604B6813F4003FE1
:10125C005ED03E4A536843EA0E0353604B6813F466
:10126C00801F5BD0394A936843EA0E0393604B6846
:10127C0013F4001F58D0354AD36843EA0E03D360E9
:10128C000CF1010C0A6832FA0CF353D0012303FA67
:10129C000CF302EA030E33EA0202F1D14A68122A75
:1012AC003FF649AF122A3FF666AF01A555F822F07A
:1012BC006B110008031200080D1200081F12000821
:1012CC0083110008831100088311000883110008A2
:1012DC008311000883110008831100088311000892
:1012EC008311000883110008831100088311000882
:1012FC00831100080712000813120008012395E758
:10130C00022393E7114A136823EA0E0313609CE748
:10131C000E4A536823EA0E0353609FE70B4A936807
:10132C0023EA0E039360A2E7084AD36823EA0E036C
:10133C00D360A5E702B070BD000022100000311090
:10134C000010024000000140000801400004014070
:10135C000AB10161704709040161704770470000D0
:10136C0008B5054B5B69034200D108BD024B5861BF
:10137C00FFF7F4FFF9E700BF00040140074AD36808
:10138C0023F4E0631B041B0C000200F4E060034335
:10139C0043F0BF6343F40033D360704700ED00E0CB
:1013AC0000B5194BDB68C3F30223C3F1070CBCF186
:1013BC00040F28BF4FF0040C03F1040EBEF1060F0E
:1013CC0018D9033B4FF0FF3E0EFA0CFC21EA0C013E
:1013DC0099400EFA03F322EA0303194300280BDBAE
:1013EC000901C9B200F1604000F5614080F80013BA
:1013FC005DF804FB0023E5E700F00F000901C9B21A
:10140C00024B1954F4E700BF00ED00E014ED00E0CE
:10141C00002807DB00F01F02400901239340024A19
:10142C0042F82030704700BF00E100E00138B0F115
:10143C00807F0BD24FF0E0235861054AF02182F8EF
:10144C0023100020986107221A6170470120704711
:10145C0000ED00E07047704770477047704710B55B
:10146C00044603681A6912F0020F11D0DA6812F000
:10147C00020F0DD06FF002021A610123037703688B
:10148C009B6913F0030F70D0FFF7E6FF002323775F
:10149C0023681A6912F0040F12D0DA6812F0040FE4
:1014AC000ED06FF004021A610223237723689B6924
:1014BC0013F4407F5FD02046FFF7CEFF0023237745
:1014CC0023681A6912F0080F12D0DA6812F0080FAC
:1014DC000ED06FF008021A61042323772368DB69AE
:1014EC0013F0030F4ED02046FFF7B6FF00232377EF
:1014FC0023681A6912F0100F12D0DA6812F0100F6C
:10150C000ED06FF010021A61082323772368DB6971
:10151C0013F4407F3DD02046FFF79EFF0023237736
:10152C0023681A6912F0010F03D0DA6812F0010F68
:10153C0036D123681A6912F0800F03D0DA6812F0E2
:10154C00800F34D123681A6912F0400F03D0DA6887
:10155C0012F0400F32D123681A6912F0200F03D019
:10156C00DA6812F0200F30D110BDFFF774FF20465F
:10157C00FFF773FF8AE72046FFF76DFF2046FFF762
:10158C006CFF9BE72046FFF766FF2046FFF765FFE1
:10159C00ACE72046FFF75FFF2046FFF75EFFBDE795
:1015AC006FF001021A612046FFF754FFC1E76FF09C
:1015BC0080021A61204600F010F8C3E76FF0400279
:1015CC001A612046FFF74AFFC5E76FF020021A6147
:1015DC00204600F001F8C7E77047704710B5044685
:1015EC000268136923F44053C1680B431361836889
:1015FC000269134342691A430168CB6823F4B05360
:10160C0023F00C031343CB600268536923F440733B
:10161C0081690B4353610268134B9A4220D0FFF748
:10162C00D9FC024602EB820202EB820263689B0049
:10163C00B2FBF3F20D48A0FB02314909642303FB12
:10164C0011231B013233A0FB03235B0903F0F002CF
:10165C0002EB011203F00F03216813448B6010BDE1
:10166C00FFF7C8FC0246DDE7003801401F85EB514F
:10167C002DE9F84305460F4616469946DDF82080BD
:10168C002C68246837EA04030CBF4FF0010C4FF0B0
:10169C00000CB4451FD1B8F1FF3FF1D0B8F1000FE9
:1016AC0005D0FFF76BF9A0EB09004045E8D92A6893
:1016BC00D36823F4D073D3602A68536923F00103F1
:1016CC005361202385F83D3085F83E30002385F8A2
:1016DC003C30032000E00020BDE8F88358B310B57F
:1016EC00044690F83D300BB3242384F83D30226837
:1016FC00D36823F40053D3602046FFF76FFF2268B2
:10170C00136923F4904313612268536923F02A036D
:10171C0053612268D36843F40053D36000202064E3
:10172C00202384F83D3084F83E3010BD80F83C30E6
:10173C00FEF70AFFD8E7012070472DE9F04182B08F
:10174C001E4690F83D30DBB2202B54D104460D469A
:10175C009046002953D0002A53D090F83C30012BEE
:10176C0051D0012380F83C3000230364212380F8FE
:10177C003D30FFF703F90746A4F82480A4F826802F
:10178C00A368B3F5805F05D04FF00008002384F800
:10179C003C3012E0236913B14FF00008F6E7A8467D
:1017AC000025F3E738F8023B2268C3F308035360C3
:1017BC00E28C92B2013A92B2E284E38C9BB273B1A6
:1017CC0000963B46002280212046FFF751FFE0B9EE
:1017DC00002DE7D015F8012B23685A60E8E7009636
:1017EC003B46002240212046FFF742FF78B92023D8
:1017FC0084F83D3000E0022002B0BDE8F081012009
:10180C00FAE70120F8E70220F6E70320F4E70320CB
:10181C00F2E72DE9F04182B01E4690F83E30DBB283
:10182C00202B5CD104460D46904600295BD0002A43
:10183C005BD090F83C30012B59D0012380F83C3020
:10184C0000230364222280F83E200363FFF796F8FE
:10185C000746A4F82C80A4F82E80A368B3F5805F0B
:10186C0005D04FF00008002384F83C3017E02369C2
:10187C0013B14FF00008F6E7A8460025F3E72368FC
:10188C005B68C3F3080328F8023B03E023685B683A
:10189C002B700135E28D92B2013A92B2E285E38D62
:1018AC009BB2BBB100963B46002220212046FFF79D
:1018BC00DFFEF0B9002DE2D0A368B3F5805FE5D070
:1018CC0013B92369002BE1D023685B6803F07F0315
:1018DC002B70DEE7202384F83E30002000E002204D
:1018EC0002B0BDE8F0810120FAE70120F8E7022000
:1018FC00F6E70320F4E770477047704703681A68EF
:10190C0012F0010F1CD010B504465A6812F0010FEA
:10191C0010D05B6813F0040F0DD0FFF7EEFF2368B7
:10192C006FF004025A60042363742268536823F036
:10193C000103536010BDFFF7DFFF01236374F4E76D
:10194C00704700000C480D490D4A002302E0D458A2
:10195C00C4500433C4188C42F9D30A4A0A4C0023ED
:10196C0001E013600432A242FBD3FFF7C4FFFEF781
:10197C000BFCFEF747FF7047000000200C00002016
:10198C00A01A00080C000020BC020020FEE700009A
:10199C00F8B500BFF8BC08BC9E467047F8B500BF50
:0819AC00F8BC08BC9E46704720
:1019B4003D3E00003C3D0A004F4B0D0A0000000074
:1019C4004154490D0A000000415445300D0A0000FD
:1019D40041542B4350534D533D30200D0A00000019
:1019E40041542B43474E535057523D310D0A00008A
:1019F40041542B43474E53494E460D0A0000000004
:101A0400496E6963696F2070726F6772616D720AE3
:101A140000000000656E63656E6469656E646F2026
:101A24004750532E2E2E0D0A00000000617061678E
:101A3400616E646F20204750532079206D6F647568
:101A44006C6F2E2E2E0D0A00496E6963696F206D2E
:101A54006F64756C6F2073696D206E756576616D4A
:101A6400656E74650D0A0000020304050607080983
:101A74000A0B0C0D0E0F10100000000000000000F7
:101A8400000000000102030406070809000000002A
:041A94000102030444
:041A980075010008CC
:041A9C004D010008F0
:0C1AA00001000000100000000024F40011
:040000050800195185
:00000001FF
