:020000040800F2
:100000000050002039190008850500088705000800
:10001000890500088B0500088D0500080000000018
:100020000000000000000000000000008F05000834
:1000300091050008000000009305000895050008E0
:100040008119000881190008811900088119000828
:100050008119000881190008811900088119000818
:100060008119000881190008811900088119000808
:1000700081190008811900088119000881190008F8
:1000800081190008811900088119000881190008E8
:1000900081190008811900088119000881190008D8
:1000A00081190008811900088119000881190008C8
:1000B0009D050008811900088119000881190008B0
:1000C00081190008811900088119000881190008A8
:1000D0008119000881190008811900088119000898
:1000E000811900088119000881190008000000002A
:1000F0000000000000000000000000000000000000
:0C01000000000000000000005FF808F1A3
:10010C000348044B834202D0034B03B1184770479A
:10011C000C0000200C0000200000000005480649DF
:10012C000B1AD90F01EBA301491002D0034B03B1F9
:10013C00184770470C0000200C0000200000000045
:10014C0010B5064C237843B9FFF7DAFF044B13B113
:10015C000448AFF300800123237010BD0C00002075
:10016C00000000008419000808B5044B1BB10449B9
:10017C000448AFF30080BDE80840CFE70000000062
:10018C00100000208419000870B50D4E0D4D761B23
:10019C00B61006D0002455F8043B01349847A6420B
:1001AC00F9D1094E094D01F0E7FB761BB61006D0CC
:1001BC00002455F8043B01349847A642F9D170BD90
:1001CC00FC190008FC190008001A0008FC190008AA
:1001DC00830730B548D0541E002A3FD00346CAB21C
:1001EC0001E0013C3AD303F8012B9D07F9D1032C14
:1001FC002DD9CDB245EA05250F2C45EA054536D952
:10020C00A4F1100222F00F0C03F1200EE6444FEA89
:10021C00121C03F1100242E9045542E90255103256
:10022C007245F8D10CF1010214F00C0F03EB021221
:10023C0004F00F0C13D0ACF1040323F003030433CC
:10024C00134442F8045B9342FBD10CF003042CB131
:10025C00CAB21C4403F8012B9C42FBD130BD64464E
:10026C001346002CF4D1F9E703461446BFE71A46AF
:10027C00A446E0E720F0030110F00300C0F10000F9
:10028C0051F8043B00F1040C4FEACC0C6FF0000267
:10029C001CBF22FA0CF213434FF0010C4CEA0C2C4D
:1002AC004CEA0C4CA3EB0C0222EA030212EACC122D
:1002BC0004BF51F8043B0430F4D0C2F1000102EA4F
:1002CC000102B2FA82F2C2F11F0200EBD2007047B7
:1002DC0030B587B000240294039404940594184B11
:1002EC009A6942F004029A619A6902F0040200923F
:1002FC00009A9A6942F008029A619B6903F008031C
:10030C000193019B0F4D22460421284600F010FF5B
:10031C00042302930123039304940223059302A95B
:10032C00284600F073FD4FF400430293064B0393F1
:10033C00049402A9054800F069FD07B030BD00BF68
:10034C0000100240000C0140000011100008014098
:10035C0008B50421014800F0F1FE08BD000C014075
:10036C0072B6FEE700B587B00023029303930493A3
:10037C000593009301931448144A02604FF47A7267
:10038C004260836041F28832C260036143618361E1
:10039C0001F0B8F890B94FF48053029302A90A48BF
:1003AC0001F0E8F860B90023009301936946064810
:1003BC0001F04EF930B907B05DF804FBFFF7D0FF40
:1003CC00FFF7CEFFFFF7CCFF28000020002C0140E8
:1003DC0000B587B000230293039304930593009315
:1003EC00019314484FF0804202604FF47A724260DD
:1003FC0083604CF25032C2600361836101F082F879
:10040C0090B94FF48053029302A90A4801F0B2F854
:10041C0060B90023009301936946064801F018F96E
:10042C0030B907B05DF804FBFFF79AFFFFF798FFB0
:10043C00FFF796FF7000002008B50A480A4B0360CE
:10044C004FF4E133436000238360C36003610C22EB
:10045C0042618361C36101F0B3F900B908BDFFF7D4
:10046C007FFF00BFB80000200044004000B591B0F1
:10047C002822002106A8FFF7ABFE0023019302936C
:10048C000393049305930223069301230A931023E9
:10049C000B9306A800F09EF970B90F23019300216D
:1004AC000291802303930491059101A800F0D2FBE3
:1004BC0020B911B05DF804FBFFF752FFFFF750FFB6
:1004CC0010B584B000F02AF9FFF7D0FFFFF700FF5A
:1004DC00FFF748FFFFF77CFFFFF7AEFF204B6C46A2
:1004EC000FCB07C424F8023B1B0C237004211D48BE
:1004FC0000F024FE002401E00134E4B24FF4FA6071
:10050C0000F030F96846FFF7B5FE4FF47A7382B20B
:10051C006946154801F09CF9052CEDD1124C4FF4AD
:10052C007A7310221149204601F092F9204601F00D
:10053C0076F900F02BF90E4800F0B4FE01210020F2
:10054C0000F072FE00F029F9204601F039F94FF461
:10055C007A730F220749204601F07AF90024CBE781
:10056C00C0190008000C0140B80000209C190008BC
:10057C0070000020B0190008FEE7FEE7FEE7FEE77A
:10058C00FEE770477047704708B500F0D9F808BD12
:10059C0008B5024800F0BEFE08BD00BF7000002088
:1005AC0082B00A4B9A6942F001029A619A6902F090
:1005BC0001020092009ADA6942F08052DA61DB693A
:1005CC0003F080530193019B02B07047001002406E
:1005DC0000B583B00368144A934205D0B3F1804F41
:1005EC000DD003B05DF804FB104B9A6942F4006225
:1005FC009A619B6903F400630093009BF1E703F598
:10060C000433DA6942F00102DA61DB6903F00103B9
:10061C000193019B002211461C2000F0ABFD1C2015
:10062C0000F0E0FDDDE700BF002C014000100240AF
:10063C0010B586B0002302930393049305930268CC
:10064C00164B9A4201D006B010BD03F5E633DA69B9
:10065C0042F40032DA61DA6902F400320092009A54
:10066C009A6942F004029A619B6903F004030193B6
:10067C00019B042302930223039303230593084C49
:10068C0002A9204600F0C2FB082302930023039327
:10069C00049302A9204600F0B9FBD4E700440040C3
:1006AC000008014008B50268064B9A4200D008BD0C
:1006BC00054AD36923F40033D3610C21034800F0BD
:1006CC00B7FCF4E700440040001002400008014071
:1006DC0010B504460E4B18784FF47A73B3FBF0F355
:1006EC000C4A1068B0FBF3F000F08AFD68B90F2CCF
:1006FC0001D901200AE0002221464FF0FF3000F022
:10070C0039FD054B1C60002000E0012010BD00BF2E
:10071C0000000020080000200400002008B5074A53
:10072C00136843F010031360032000F011FD0F2039
:10073C00FFF7CEFFFFF734FF002008BD002002407A
:10074C00034A1168034B1B780B441360704700BFBE
:10075C00FC00002000000020014B1868704700BF0F
:10076C00FC00002038B50446FFF7F6FF0546B4F14F
:10077C00FF3F02D0044B1B781C44FFF7EDFF401BDE
:10078C00A042FAD338BD00BF000000204FF0E02299
:10079C00136923F00203136170474FF0E0221369D1
:1007AC0043F002031361704782B0084B1B68084A80
:1007BC00A2FB03235B0A00FB03F3019300BF019B25
:1007CC005A1E0192002BF9D102B07047080000208C
:1007DC00D34D6210002800F0F18170B582B0044650
:1007EC00036813F0010F2CD0994B5B6803F00C03DA
:1007FC00042B1DD0964B5B6803F00C03082B12D016
:10080C006368B3F5803F41D0002B55D103F1804391
:10081C0003F504331A6822F480321A601A6822F441
:10082C0080221A6037E08A4B5B6813F4803FE7D074
:10083C00874B1B6813F4003F03D06368002B00F058
:10084C00BF81236813F0020F75D0814B5B6813F0E6
:10085C000C0F5FD07E4B5B6803F00C03082B54D05D
:10086C002369002B00F08A807A4B01221A60FFF773
:10087C0073FF0546764B1B6813F0020F75D1FFF71B
:10088C006BFF401B0228F5D903209EE1704A1368C8
:10089C0043F480331360636843B3FFF75DFF054691
:1008AC006B4B1B6813F4003FCBD1FFF755FF401B7C
:1008BC006428F5D9032088E1B3F5A02F09D0644B47
:1008CC001A6822F480321A601A6822F480221A60A4
:1008DC00E1E703F18043A3F53C331A6842F480222C
:1008EC001A601A6842F480321A60D4E7FFF734FFBA
:1008FC000546574B1B6813F4003FA2D0FFF72CFFA3
:10090C00401B6428F5D903205FE1514B5B6813F45D
:10091C00803FA5D14E4B1B6813F0020F03D0236907
:10092C00012B40F04F814A4A136823F0F8036169A8
:10093C0043EAC1031360236813F0080F33D0A36993
:10094C00002B5CD0434B0122C3F88024FFF704FF3B
:10095C0005463F4B5B6A13F0020F21D1FFF7FCFEFB
:10096C00401B0228F5D903202FE1394A136823F0E4
:10097C00F803616943EAC1031360DCE7354B0022DD
:10098C001A60FFF7E9FE0546314B1B6813F0020FA6
:10099C00D1D0FFF7E1FE401B0228F5D9032014E16A
:1009AC000120FFF701FF236813F0040F00F096807D
:1009BC00274BDB6913F0805F34D1254BDA6942F0A9
:1009CC008052DA61DB6903F080530193019B0125AE
:1009DC00214B1B6813F4807F26D0E368012B3DD09C
:1009EC00002B53D103F1804303F504331A6A22F030
:1009FC0001021A621A6A22F004021A6233E0154BE1
:100A0C000022C3F88024FFF7A7FE0546104B5B6A53
:100A1C0013F0020FC7D0FFF79FFE401B0228F5D939
:100A2C000320D2E00025D3E70B4A136843F480730C
:100A3C001360FFF791FE0646074B1B6813F4807F8B
:100A4C00CBD1FFF789FE801B6428F5D90320BCE0CD
:100A5C000010024000004242007000405F4A136ADE
:100A6C0043F001031362E36833B3FFF775FE0646E8
:100A7C005A4B1B6A13F0020F2FD1FFF76DFE801B30
:100A8C0041F288339842F3D903209EE0052B09D01C
:100A9C00524B1A6A22F001021A621A6A22F00402FC
:100AAC001A62E0E74D4B1A6A42F004021A621A6AA3
:100ABC0042F001021A62D6E7FFF74EFE0646474B9C
:100ACC001B6A13F0020F08D0FFF746FE801B41F2A1
:100ADC0088339842F3D9032077E0E5B9E369002B1A
:100AEC0072D03E4A526802F00C02082A56D0022BF1
:100AFC0017D03B4B00221A66FFF72EFE0446374BED
:100B0C001B6813F0007F47D0FFF726FE001B02285E
:100B1C00F5D9032059E0314AD36923F08053D361CE
:100B2C00DCE72F4B00221A66FFF716FE05462B4B0F
:100B3C001B6813F0007F06D0FFF70EFE401B022847
:100B4C00F5D9032041E0236AB3F5803F1AD023493D
:100B5C004B6823F47413226A606A024313434B609C
:100B6C001F4B01221A66FFF7F7FD04461B4B1B684F
:100B7C0013F0007F0ED1FFF7EFFD001B0228F5D913
:100B8C00032022E0154A536823F40033A1680B4379
:100B9C005360DCE7002018E0002016E0012B16D093
:100BAC000E4B5B6803F48031226A914211D103F43D
:100BBC007013626A93420ED1002006E00120704748
:100BCC00012002E0012000E0002002B070BD0120F5
:100BDC00FBE70120F9E70120F7E700BF0010024016
:100BEC000000424286B0174B0FCB0DF1180C0CE9EC
:100BFC000F0040F20123ADF80430134B5B6803F097
:100C0C000C02082A02D0114806B07047C3F3834285
:100C1C0018326A4412F8100C13F4803F0DD00A4BB2
:100C2C005B68C3F3404318336B4413F8143C074A16
:100C3C0002FB00F0B0FBF3F0E6E7054B03FB00F022
:100C4C00E2E700BFD01900080010024000127A0041
:100C5C0000093D00002800F0A08070B50D46044648
:100C6C00524B1B6803F007038B420BD24F4A13689D
:100C7C0023F007030B431360136803F007038B4245
:100C8C0040F08D80236813F0020F17D013F0040F7F
:100C9C0004D0474A536843F4E0635360236813F06D
:100CAC00080F04D0424A536843F460535360404ADF
:100CBC00536823F0F003A1680B435360236813F0CF
:100CCC00010F31D06368012B20D0022B25D0384A7C
:100CDC00126812F0020F64D035494A6822F0030200
:100CEC0013434B60FFF738FD0646314B5B6803F04E
:100CFC000C036268B3EB820F16D0FFF72DFD801B3F
:100D0C0041F288339842F0D9032045E0284A126812
:100D1C0012F4003FE0D101203EE0254A126812F0A7
:100D2C00007FD9D1012037E0204B1B6803F007036B
:100D3C00AB420AD91D4A136823F007032B431360F7
:100D4C00136803F00703AB422DD1236813F0040F93
:100D5C0006D0174A536823F4E063E1680B435360F1
:100D6C00236813F0080F07D0114A536823F460531B
:100D7C00216943EAC1035360FFF734FF0C4B5B68F6
:100D8C00C3F303130B4AD35CD8400B4B18600B4BCB
:100D9C001868FFF79DFC002070BD012070470120F2
:100DAC00FAE70120F8E70120F6E700BF0020024037
:100DBC0000100240E4190008080000200400002084
:100DCC00014B1868704700BF0800002008B5FFF7FA
:100DDC00F7FF044B5B68C3F30223034AD35CD84090
:100DEC0008BD00BF00100240F419000808B5FFF759
:100DFC00E7FF044B5B68C3F3C223034AD35CD840C0
:100E0C0008BD00BF00100240F419000870B582B094
:100E1C000024A446A6E0804DAA4210D007D97F4DED
:100E2C00AA420CD005F58035AA4208D013E0A5F5EE
:100E3C008015AA4203D005F57025AA4207D18A680D
:100E4C00002A58D0012A51D04361082403E0A5F5AB
:100E5C008015AA42F3D0BEF1FF0F4ED80646BEF164
:100E6C00FF0F4CD84FEA8C0233680F25954023EACC
:100E7C00050304FA02F2134333604B6813F0805FEE
:100E8C006ED0674B9A6942F001029A619B6903F03C
:100E9C0001030193019B4FEA9C02951C614B53F893
:100EAC0025600CF003039D000F23AB4026EA0306DC
:100EBC005D4B984229D003F58063984200F08E80F8
:100ECC0003F58063984200F08B8003F580639842B1
:100EDC0019D004231AE0CC68BDE7CC680434BAE717
:100EEC00CC680834B7E7CC680C34B4E70361082449
:100EFC00B1E70024AFE70424ADE7061DAFE7ACF182
:100F0C0008029200B0E7032300E00023AB40334318
:100F1C000232444D45F822304B6813F4803F61D0C7
:100F2C00424A136843EA0E0313604B6813F4003F04
:100F3C005ED03E4A536843EA0E0353604B6813F489
:100F4C00801F5BD0394A936843EA0E0393604B6869
:100F5C0013F4001F58D0354AD36843EA0E03D3600C
:100F6C000CF1010C0A6832FA0CF353D0012303FA8A
:100F7C000CF302EA030E33EA0202F1D14A68122A98
:100F8C003FF649AF122A3FF666AF01A555F822F09D
:100F9C004B0E0008E30E0008ED0E0008FF0E0008D3
:100FAC00630E0008630E0008630E0008630E000851
:100FBC00630E0008630E0008630E0008630E000841
:100FCC00630E0008630E0008630E0008630E000831
:100FDC00630E0008E70E0008F30E0008012395E7E6
:100FEC00022393E7114A136823EA0E0313609CE76C
:100FFC000E4A536823EA0E0353609FE70B4A93682B
:10100C0023EA0E039360A2E7084AD36823EA0E038F
:10101C00D360A5E702B070BD0000221000003110B3
:10102C000010024000000140000801400004014093
:10103C0000226DE0032500E0002505FA04F4644568
:10104C0042D0FF2B5BD80646FF2B5AD8950034684C
:10105C004FF00F0E0EFA05FE24EA0E044FF0040CAE
:10106C000CFA05FC44EA0C043460C46824EA03035B
:10107C00C360013231FA02F348D0012393400B4094
:10108C00F7D04FEA920E0EF10205264C54F825507B
:10109C0002F00304A4000F26A64006EA050C224D1C
:1010AC00A842C9D005F58065A84209D005F5806530
:1010BC00A84207D005F58065A842BBD00425BCE743
:1010CC000125BAE70225B8E7164F0EF1020457F8CE
:1010DC00245025EA060647F82460144C256825EAB6
:1010EC0003052560656825EA03056560A56825EAA2
:1010FC000305A560E56825EA0305E560A1E7061D83
:10110C00A2E7A2F1080C4FEA8C05A0E7F0BD013272
:10111C0031FA02F305D0012393400B40F7D0F0B520
:10112C00AFE7704700000140000801400004014097
:10113C000AB101617047090401617047C36801EA93
:10114C00030221EA030141EA0241016170470000F8
:10115C00074AD36823F4E0631B041B0C000200F461
:10116C00E060034343F0BF6343F40033D360704744
:10117C0000ED00E000B5194BDB68C3F30223C3F1AB
:10118C00070CBCF1040F28BF4FF0040C03F1040E44
:10119C00BEF1060F18D9033B4FF0FF3E0EFA0CFCC4
:1011AC0021EA0C0199400EFA03F322EA03031943D6
:1011BC0000280BDB0901C9B200F1604000F5614069
:1011CC0080F800135DF804FB0023E5E700F00F0046
:1011DC000901C9B2024B1954F4E700BF00ED00E05D
:1011EC0014ED00E0002807DB00F01F02400901238A
:1011FC009340024A42F82030704700BF00E100E003
:10120C000138B0F1807F0BD24FF0E0235861054AD2
:10121C00F02182F823100020986107221A61704790
:10122C000120704700ED00E0064A136923F0040327
:10123C001361012903D040BF20BF20BF704730BFCE
:10124C00704700BF00ED00E010B4036A046A24F09C
:10125C0001040462846924F0F00C4CEA021223F0BD
:10126C000A030B438261036210BC704710B4046A1A
:10127C0024F0100404628469036A24F4704C4CEA70
:10128C00023223F0A00343EA01138261036210BC13
:10129C007047836823F070030B4343F007038360AC
:1012AC007047000090F83D30DBB2012B27D10223B0
:1012BC0080F83D300268D36843F00103D3600368C3
:1012CC00114A934210D0B3F1804F0DD0A2F5943255
:1012DC00934209D002F58062934205D01A6842F01D
:1012EC0001021A60002070479A6802F00702062A71
:1012FC0007D01A6842F001021A60002070470120E2
:10130C0070470020704700BF002C014070477047A9
:10131C007047704710B5044603681A6912F0020F43
:10132C0011D0DA6812F0020F0DD06FF002021A61C0
:10133C000123037703689B6913F0030F70D0FFF749
:10134C00E6FF0023237723681A6912F0040F12D0EA
:10135C00DA6812F0040F0ED06FF004021A61022347
:10136C00237723689B6913F4407F5FD02046FFF7F7
:10137C00CEFF0023237723681A6912F0080F12D0CE
:10138C00DA6812F0080F0ED06FF008021A6104230D
:10139C0023772368DB6913F0030F4ED02046FFF749
:1013AC00B6FF0023237723681A6912F0100F12D0AE
:1013BC00DA6812F0100F0ED06FF010021A610823C9
:1013CC0023772368DB6913F4407F3DD02046FFF779
:1013DC009EFF0023237723681A6912F0010F03D0B4
:1013EC00DA6812F0010F36D123681A6912F0800FF7
:1013FC0003D0DA6812F0800F34D123681A6912F026
:10140C00400F03D0DA6812F0400F32D123681A690A
:10141C0012F0200F03D0DA6812F0200F30D110BD7B
:10142C00FFF774FF2046FFF773FF8AE72046FFF7AC
:10143C006DFF2046FFF76CFF9BE72046FFF766FF2A
:10144C002046FFF765FFACE72046FFF75FFF20461D
:10145C00FFF75EFFBDE76FF001021A612046FEF751
:10146C0077FFC1E76FF080021A61204600F027F980
:10147C00C3E76FF040021A612046FFF74AFFC5E749
:10148C006FF020021A61204600F018F9C7E700003F
:10149C0003681B4A90420AD0B0F1804F07D0A2F5E6
:1014AC009432904203D002F58062904203D123F033
:1014BC0070034A681343124A90420AD0B0F1804F2D
:1014CC0007D0A2F59432904203D002F5806290428C
:1014DC0003D123F44073CA68134323F080034A6991
:1014EC00134303608B68C3620B688362044B98429E
:1014FC0002D00123436170470B690363F9E700BF16
:10150C00002C014040B310B5044690F83D30F3B1C7
:10151C00022384F83D30214651F8040BFFF7B8FF45
:10152C00012384F8463084F83E3084F83F3084F848
:10153C00403084F8413084F8423084F8433084F8E9
:10154C00443084F8453084F83D30002010BD80F8DC
:10155C003C30FFF73DF8DBE70120704710B484689E
:10156C0024F47F4C42EA03220A4342EA0C028260D2
:10157C0010BC704790F83C30012B66D010B5044677
:10158C00012380F83C30022380F83D3002689368D8
:10159C0023F47F4323F0770393600B68602B40D0D8
:1015AC0022D8402B47D00BD9502B0ED1CA68496892
:1015BC000068FFF749FE50212068FFF76AFE04E03F
:1015CC00202B0CD008D9302B09D0012384F83D30C6
:1015DC00002084F83C0010BD0BB1102BF5D119463E
:1015EC002068FFF756FEF0E7702B0ED0B3F5005FC6
:1015FC00EBD1CB684A6889680068FFF7AFFF2268B7
:10160C00936843F480439360DFE7CB684A6889684A
:10161C000068FFF7A3FF2268936843F07703936099
:10162C00D3E7CA6849680068FFF720FE602120688C
:10163C00FFF72FFEC9E7CA6849680068FFF704FE88
:10164C0040212068FFF725FEBFE70220704700000D
:10165C0090F83C30012B2CD010B4012380F83C3096
:10166C00022380F83D3003685A689C6822F0700CA5
:10167C000A6842EA0C025A6003680F4A93420AD085
:10168C00B3F1804F07D0A2F59432934203D002F508
:10169C008062934204D124F080044A6814439C6015
:1016AC00012380F83D30002380F83C30184610BCF4
:1016BC0070470220704700BF002C014070477047F4
:1016CC0010B504460268136923F44053C1680B43F8
:1016DC00136183680269134342691A430168CB683A
:1016EC0023F4B05323F00C031343CB60026853690B
:1016FC0023F4407381690B4353610268134B9A4284
:10170C0020D0FFF763FB024602EB820202EB82025F
:10171C0063689B00B2FBF3F20D48A0FB0231490950
:10172C00642303FB11231B013233A0FB03235B094E
:10173C0003F0F00202EB011203F00F0321681344D3
:10174C008B6010BDFFF752FB0246DDE7003801400D
:10175C001F85EB512DE9F84305460F461646994671
:10176C00DDF820802C68246837EA04030CBF4FF0A6
:10177C00010C4FF0000CB4451FD1B8F1FF3FF1D074
:10178C00B8F1000F05D0FEF7E7FFA0EB09004045CC
:10179C00E8D92A68D36823F4D073D3602A685369D4
:1017AC0023F001035361202385F83D3085F83E304A
:1017BC00002385F83C30032000E00020BDE8F883CE
:1017CC0058B310B5044690F83D300BB3242384F87D
:1017DC003D302268D36823F40053D3602046FFF7D2
:1017EC006FFF2268136923F49043136122685369D5
:1017FC0023F02A0353612268D36843F40053D36067
:10180C0000202064202384F83D3084F83E3010BD45
:10181C0080F83C30FEF70CFFD8E701207047A8B1E8
:10182C0010B50446242380F83D300268D36823F4B5
:10183C000053D360FEF736FF0020206484F83D008F
:10184C0084F83E00206384F83C0010BD01207047F2
:10185C002DE9F04182B01E4690F83D30DBB2202BD2
:10186C0054D104460D469046002953D0002A53D03B
:10187C0090F83C30012B51D0012380F83C300023F0
:10188C000364212380F83D30FEF766FF0746A4F879
:10189C002480A4F82680A368B3F5805F05D04FF0B0
:1018AC000008002384F83C3012E0236913B14FF098
:1018BC000008F6E7A8460025F3E738F8023B226853
:1018CC00C3F308035360E28C92B2013A92B2E28401
:1018DC00E38C9BB273B100963B46002280212046DC
:1018EC00FFF738FFE0B9002DE7D015F8012B23687E
:1018FC005A60E8E700963B46002240212046FFF75D
:10190C0029FF78B9202384F83D3000E0022002B092
:10191C00BDE8F0810120FAE70120F8E70220F6E7A4
:10192C000320F4E70320F2E7704700000C480D4950
:10193C000D4A002302E0D458C4500433C4188C421E
:10194C00F9D30A4A0A4C002301E013600432A24284
:10195C00FBD3FFF7E9FFFEF717FCFEF7B1FD70476D
:10196C00000000200C000020041A00080C000020CD
:10197C0000010020FEE70000F8B500BFF8BC08BC71
:10198C009E467047F8B500BFF8BC08BC9E46704731
:10199C00736C656570206D6F64653A206F6E0D0A0F
:1019AC00000000002D2D736C656570206F66662D30
:1019BC002D0D0A0068656C6C6F20776F726C64205B
:1019CC000D0A000002030405060708090A0B0C0D9A
:1019DC000E0F1010000000000000000000000000BE
:1019EC0001020304060708090000000001020304B9
:0419FC007501000869
:041A00004D0100088C
:0C1A040001000000100000000024F400AD
:04000005080019399D
:00000001FF
